{"contracts/LoanManager.sol":{"LoanManager":{"abi":[{"inputs":[],"stateMutability":"nonpayable","type":"constructor"},{"inputs":[{"internalType":"address","name":"target","type":"address"}],"name":"AddressEmptyCode","type":"error"},{"inputs":[{"internalType":"address","name":"account","type":"address"}],"name":"AddressInsufficientBalance","type":"error"},{"inputs":[],"name":"FailedInnerCall","type":"error"},{"inputs":[{"internalType":"address","name":"token","type":"address"}],"name":"SafeERC20FailedOperation","type":"error"},{"anonymous":false,"inputs":[{"indexed":true,"internalType":"uint256","name":"id","type":"uint256"},{"indexed":true,"internalType":"uint256","name":"loanId","type":"uint256"},{"indexed":false,"internalType":"uint256","name":"duration","type":"uint256"},{"indexed":false,"internalType":"uint256","name":"startingPrice","type":"uint256"},{"indexed":false,"internalType":"uint256","name":"startingTime","type":"uint256"},{"indexed":false,"internalType":"uint256","name":"endingPrice","type":"uint256"}],"name":"AuctionCreated","type":"event"},{"anonymous":false,"inputs":[{"indexed":true,"internalType":"uint256","name":"loanId","type":"uint256"},{"indexed":false,"internalType":"uint256","name":"amount","type":"uint256"}],"name":"AuctionReclaimed","type":"event"},{"anonymous":false,"inputs":[{"indexed":true,"internalType":"uint256","name":"auction","type":"uint256"},{"indexed":false,"internalType":"address","name":"bidder","type":"address"},{"indexed":false,"internalType":"uint256","name":"price","type":"uint256"}],"name":"AuctionSettled","type":"event"},{"anonymous":false,"inputs":[{"indexed":true,"internalType":"uint256","name":"id","type":"uint256"},{"indexed":true,"internalType":"address","name":"borrower","type":"address"},{"indexed":true,"internalType":"address","name":"lender","type":"address"},{"indexed":false,"internalType":"contract ERC20","name":"collateralToken","type":"address"},{"indexed":false,"internalType":"contract ERC20","name":"debtToken","type":"address"},{"indexed":false,"internalType":"uint256","name":"collateralAmount","type":"uint256"},{"indexed":false,"internalType":"uint256","name":"debtAmount","type":"uint256"},{"indexed":false,"internalType":"uint256","name":"interestRate","type":"uint256"},{"indexed":false,"internalType":"uint256","name":"startingTime","type":"uint256"},{"indexed":false,"internalType":"uint256","name":"duration","type":"uint256"},{"indexed":false,"internalType":"uint256","name":"terms","type":"uint256"}],"name":"LoanCreated","type":"event"},{"anonymous":false,"inputs":[{"indexed":true,"internalType":"uint256","name":"id","type":"uint256"},{"indexed":true,"internalType":"address","name":"borrower","type":"address"},{"indexed":true,"internalType":"address","name":"lender","type":"address"},{"indexed":false,"internalType":"uint256","name":"amount","type":"uint256"}],"name":"LoanRepaid","type":"event"},{"anonymous":false,"inputs":[{"indexed":false,"internalType":"uint256","name":"termId","type":"uint256"},{"components":[{"internalType":"uint256","name":"liquidationBonus","type":"uint256"},{"internalType":"uint256","name":"dutchAuctionMultiplier","type":"uint256"},{"internalType":"uint256","name":"settlementMultiplier","type":"uint256"},{"internalType":"uint256","name":"auctionLength","type":"uint256"}],"indexed":false,"internalType":"struct Terms","name":"term","type":"tuple"}],"name":"TermsSet","type":"event"},{"inputs":[{"internalType":"uint256","name":"","type":"uint256"}],"name":"auctions","outputs":[{"internalType":"uint256","name":"id","type":"uint256"},{"internalType":"uint256","name":"loanId","type":"uint256"},{"internalType":"uint256","name":"duration","type":"uint256"},{"internalType":"uint256","name":"startingPrice","type":"uint256"},{"internalType":"uint256","name":"startingTime","type":"uint256"},{"internalType":"uint256","name":"endingPrice","type":"uint256"}],"stateMutability":"view","type":"function"},{"inputs":[{"internalType":"uint256","name":"_auctionId","type":"uint256"}],"name":"bid","outputs":[],"stateMutability":"nonpayable","type":"function"},{"inputs":[{"internalType":"address","name":"","type":"address"},{"internalType":"uint256","name":"","type":"uint256"}],"name":"borrowerLoans","outputs":[{"internalType":"uint256","name":"","type":"uint256"}],"stateMutability":"view","type":"function"},{"inputs":[{"internalType":"address","name":"_lender","type":"address"},{"internalType":"contract ERC20","name":"_collateral","type":"address"},{"internalType":"contract ERC20","name":"_debt","type":"address"},{"internalType":"uint256","name":"_collateralAmount","type":"uint256"},{"internalType":"uint256","name":"_debtAmount","type":"uint256"},{"internalType":"uint256","name":"_interestRate","type":"uint256"},{"internalType":"uint256","name":"_duration","type":"uint256"},{"internalType":"uint256","name":"_terms","type":"uint256"}],"name":"createLoan","outputs":[],"stateMutability":"nonpayable","type":"function"},{"inputs":[{"internalType":"address","name":"_lender","type":"address"},{"internalType":"address","name":"_borrower","type":"address"},{"internalType":"contract ERC20","name":"_collateral","type":"address"},{"internalType":"contract ERC20","name":"_debt","type":"address"},{"internalType":"uint256","name":"_collateralAmount","type":"uint256"},{"internalType":"uint256","name":"_debtAmount","type":"uint256"},{"internalType":"uint256","name":"_interestRate","type":"uint256"},{"internalType":"uint256","name":"_duration","type":"uint256"},{"internalType":"uint256","name":"_terms","type":"uint256"},{"internalType":"bytes32","name":"_data","type":"bytes32"}],"name":"createLoan","outputs":[],"stateMutability":"nonpayable","type":"function"},{"inputs":[{"internalType":"uint256","name":"","type":"uint256"}],"name":"durations","outputs":[{"internalType":"uint256","name":"","type":"uint256"}],"stateMutability":"view","type":"function"},{"inputs":[{"internalType":"uint256","name":"_auctionId","type":"uint256"}],"name":"getCurrentPrice","outputs":[{"internalType":"uint256","name":"","type":"uint256"}],"stateMutability":"view","type":"function"},{"inputs":[{"internalType":"uint256","name":"_loanId","type":"uint256"}],"name":"getLoan","outputs":[{"components":[{"internalType":"uint256","name":"id","type":"uint256"},{"internalType":"address","name":"borrower","type":"address"},{"internalType":"address","name":"lender","type":"address"},{"internalType":"contract ERC20","name":"collateralToken","type":"address"},{"internalType":"contract ERC20","name":"debtToken","type":"address"},{"internalType":"uint256","name":"collateralAmount","type":"uint256"},{"internalType":"uint256","name":"debtAmount","type":"uint256"},{"internalType":"uint256","name":"interestRate","type":"uint256"},{"internalType":"uint256","name":"startingTime","type":"uint256"},{"internalType":"uint256","name":"duration","type":"uint256"},{"internalType":"uint256","name":"terms","type":"uint256"}],"internalType":"struct Loan","name":"loan","type":"tuple"}],"stateMutability":"view","type":"function"},{"inputs":[{"internalType":"address","name":"","type":"address"},{"internalType":"uint256","name":"","type":"uint256"}],"name":"lenderLoans","outputs":[{"internalType":"uint256","name":"","type":"uint256"}],"stateMutability":"view","type":"function"},{"inputs":[{"internalType":"uint256","name":"_loanId","type":"uint256"}],"name":"liquidateLoan","outputs":[],"stateMutability":"nonpayable","type":"function"},{"inputs":[],"name":"loanCount","outputs":[{"internalType":"uint256","name":"","type":"uint256"}],"stateMutability":"view","type":"function"},{"inputs":[{"internalType":"uint256","name":"","type":"uint256"}],"name":"loanIdToAuction","outputs":[{"internalType":"uint256","name":"","type":"uint256"}],"stateMutability":"view","type":"function"},{"inputs":[{"internalType":"uint256","name":"","type":"uint256"}],"name":"loanTerms","outputs":[{"internalType":"uint256","name":"liquidationBonus","type":"uint256"},{"internalType":"uint256","name":"dutchAuctionMultiplier","type":"uint256"},{"internalType":"uint256","name":"settlementMultiplier","type":"uint256"},{"internalType":"uint256","name":"auctionLength","type":"uint256"}],"stateMutability":"view","type":"function"},{"inputs":[{"internalType":"uint256","name":"","type":"uint256"}],"name":"loans","outputs":[{"internalType":"uint256","name":"id","type":"uint256"},{"internalType":"address","name":"borrower","type":"address"},{"internalType":"address","name":"lender","type":"address"},{"internalType":"contract ERC20","name":"collateralToken","type":"address"},{"internalType":"contract ERC20","name":"debtToken","type":"address"},{"internalType":"uint256","name":"collateralAmount","type":"uint256"},{"internalType":"uint256","name":"debtAmount","type":"uint256"},{"internalType":"uint256","name":"interestRate","type":"uint256"},{"internalType":"uint256","name":"startingTime","type":"uint256"},{"internalType":"uint256","name":"duration","type":"uint256"},{"internalType":"uint256","name":"terms","type":"uint256"}],"stateMutability":"view","type":"function"},{"inputs":[{"internalType":"uint256","name":"_loanId","type":"uint256"},{"internalType":"uint256","name":"_newRate","type":"uint256"}],"name":"rebalanceRate","outputs":[],"stateMutability":"nonpayable","type":"function"},{"inputs":[{"internalType":"uint256","name":"_auctionId","type":"uint256"}],"name":"reclaim","outputs":[],"stateMutability":"nonpayable","type":"function"},{"inputs":[{"internalType":"uint256","name":"_loanId","type":"uint256"},{"internalType":"address","name":"onBehalfof","type":"address"}],"name":"repayLoan","outputs":[],"stateMutability":"nonpayable","type":"function"},{"inputs":[{"internalType":"uint256","name":"_loanId","type":"uint256"}],"name":"repayLoan","outputs":[],"stateMutability":"nonpayable","type":"function"},{"inputs":[{"components":[{"internalType":"uint256","name":"liquidationBonus","type":"uint256"},{"internalType":"uint256","name":"dutchAuctionMultiplier","type":"uint256"},{"internalType":"uint256","name":"settlementMultiplier","type":"uint256"},{"internalType":"uint256","name":"auctionLength","type":"uint256"}],"internalType":"struct Terms","name":"_terms","type":"tuple"}],"name":"setTerms","outputs":[{"internalType":"uint256","name":"","type":"uint256"}],"stateMutability":"nonpayable","type":"function"},{"inputs":[{"internalType":"uint256","name":"_loanId","type":"uint256"},{"internalType":"address","name":"_borrower","type":"address"}],"name":"updateBorrower","outputs":[],"stateMutability":"nonpayable","type":"function"}],"evm":{"bytecode":{"linkReferences":{},"object":"60806040526040518060a0016040528061708062ffffff1681526020016201518062ffffff1681526020016202a30062ffffff16815260200162093a8062ffffff168152602001600062ffffff1681525060019060056200006292919062000077565b503480156200007057600080fd5b50620000ef565b828054828255906000526020600020908101928215620000bd579160200282015b82811115620000bc578251829062ffffff1690559160200191906001019062000098565b5b509050620000cc9190620000d0565b5090565b5b80821115620000eb576000816000905550600101620000d1565b5090565b6137e580620000ff6000396000f3fe608060405234801561001057600080fd5b506004361061012c5760003560e01c8063a53af07e116100ad578063c55d0f5611610071578063c55d0f5614610369578063ccdd9f5d14610399578063ce63094d146103b5578063e1ec3c68146103d3578063e3ed19021461040d5761012c565b8063a53af07e1461028a578063aad402ac146102ba578063ab7b1c89146102ea578063b10b8a2c14610306578063bc20a7af146103395761012c565b8063504006ca116100f4578063504006ca146101d1578063571a26a0146102015780638dfa027214610236578063918344d314610252578063983e892b1461026e5761012c565b80631d67d6a6146101315780631e24865a1461014d5780632dabbeed146101695780633cdb72f114610185578063454a2ab3146101b5575b600080fd5b61014b6004803603810190610146919061267c565b61043d565b005b61016760048036038101906101629190612768565b61045a565b005b610183600480360381019061017e9190612847565b610805565b005b61019f600480360381019061019a9190612874565b610bbe565b6040516101ac91906128c3565b60405180910390f35b6101cf60048036038101906101ca9190612847565b610bef565b005b6101eb60048036038101906101e69190612847565b611158565b6040516101f89190612a3c565b60405180910390f35b61021b60048036038101906102169190612847565b611355565b60405161022d96959493929190612a58565b60405180910390f35b610250600480360381019061024b9190612ab9565b6113a1565b005b61026c60048036038101906102679190612af9565b6115b0565b005b61028860048036038101906102839190612af9565b61192b565b005b6102a4600480360381019061029f9190612847565b611a1c565b6040516102b191906128c3565b60405180910390f35b6102d460048036038101906102cf9190612c42565b611a34565b6040516102e191906128c3565b60405180910390f35b61030460048036038101906102ff9190612847565b611aef565b005b610320600480360381019061031b9190612847565b611afc565b6040516103309493929190612c6f565b60405180910390f35b610353600480360381019061034e9190612847565b611b3c565b60405161036091906128c3565b60405180910390f35b610383600480360381019061037e9190612847565b611b60565b60405161039091906128c3565b60405180910390f35b6103b360048036038101906103ae9190612847565b611c6d565b005b6103bd611ec5565b6040516103ca91906128c3565b60405180910390f35b6103ed60048036038101906103e89190612847565b611ecb565b6040516104049b9a99989796959493929190612cd2565b60405180910390f35b61042760048036038101906104229190612874565b611fa5565b60405161043491906128c3565b60405180910390f35b610450883389898989898989600061045a565b5050505050505050565b60008081548092919061046c90612dac565b9190505550600060405180610160016040528060005481526020018b73ffffffffffffffffffffffffffffffffffffffff1681526020018c73ffffffffffffffffffffffffffffffffffffffff1681526020018a73ffffffffffffffffffffffffffffffffffffffff1681526020018973ffffffffffffffffffffffffffffffffffffffff1681526020018881526020018781526020018681526020014281526020016001868154811061052357610522612df4565b5b906000526020600020015481526020018481525090508060056000805481526020019081526020016000206000820151816000015560208201518160010160006101000a81548173ffffffffffffffffffffffffffffffffffffffff021916908373ffffffffffffffffffffffffffffffffffffffff16021790555060408201518160020160006101000a81548173ffffffffffffffffffffffffffffffffffffffff021916908373ffffffffffffffffffffffffffffffffffffffff16021790555060608201518160030160006101000a81548173ffffffffffffffffffffffffffffffffffffffff021916908373ffffffffffffffffffffffffffffffffffffffff16021790555060808201518160040160006101000a81548173ffffffffffffffffffffffffffffffffffffffff021916908373ffffffffffffffffffffffffffffffffffffffff16021790555060a0820151816005015560c0820151816006015560e082015181600701556101008201518160080155610120820151816009015561014082015181600a01559050508a73ffffffffffffffffffffffffffffffffffffffff16630955a20c82846040518363ffffffff1660e01b81526004016106f1929190612e32565b6020604051808303816000875af1158015610710573d6000803e3d6000fd5b505050506040513d601f19601f820116820180604052508101906107349190612e95565b610773576040517f08c379a000000000000000000000000000000000000000000000000000000000815260040161076a90612f1f565b60405180910390fd5b6107a03330898c73ffffffffffffffffffffffffffffffffffffffff16611fd6909392919063ffffffff16565b6107cd8b30888b73ffffffffffffffffffffffffffffffffffffffff16611fd6909392919063ffffffff16565b6107f833878a73ffffffffffffffffffffffffffffffffffffffff166120589092919063ffffffff16565b5050505050505050505050565b60006002828154811061081b5761081a612df4565b5b90600052602060002090600602016040518060c00160405290816000820154815260200160018201548152602001600282015481526020016003820154815260200160048201548152602001600582015481525050905042816040015182608001516108879190612f3f565b106108c7576040517f08c379a00000000000000000000000000000000000000000000000000000000081526004016108be90612fbf565b60405180910390fd5b80606001518160a0015114610911576040517f08c379a000000000000000000000000000000000000000000000000000000000815260040161090890612fbf565b60405180910390fd5b6000600560008360200151815260200190815260200160002060405180610160016040529081600082015481526020016001820160009054906101000a900473ffffffffffffffffffffffffffffffffffffffff1673ffffffffffffffffffffffffffffffffffffffff1673ffffffffffffffffffffffffffffffffffffffff1681526020016002820160009054906101000a900473ffffffffffffffffffffffffffffffffffffffff1673ffffffffffffffffffffffffffffffffffffffff1673ffffffffffffffffffffffffffffffffffffffff1681526020016003820160009054906101000a900473ffffffffffffffffffffffffffffffffffffffff1673ffffffffffffffffffffffffffffffffffffffff1673ffffffffffffffffffffffffffffffffffffffff1681526020016004820160009054906101000a900473ffffffffffffffffffffffffffffffffffffffff1673ffffffffffffffffffffffffffffffffffffffff1673ffffffffffffffffffffffffffffffffffffffff1681526020016005820154815260200160068201548152602001600782015481526020016008820154815260200160098201548152602001600a820154815250509050610b0d81604001518260a00151836060015173ffffffffffffffffffffffffffffffffffffffff166120589092919063ffffffff16565b60028381548110610b2157610b20612df4565b5b9060005260206000209060060201600080820160009055600182016000905560028201600090556003820160009055600482016000905560058201600090555050600460008360200151815260200190815260200160002060009055827f652729794a355f8eb8421b2de81e61cfeba43988a3a8f664b779b189137bfa608260a00151604051610bb191906128c3565b60405180910390a2505050565b60076020528160005260406000208181548110610bda57600080fd5b90600052602060002001600091509150505481565b600060028281548110610c0557610c04612df4565b5b90600052602060002090600602016040518060c0016040529081600082015481526020016001820154815260200160028201548152602001600382015481526020016004820154815260200160058201548152505090506000600560008360200151815260200190815260200160002060405180610160016040529081600082015481526020016001820160009054906101000a900473ffffffffffffffffffffffffffffffffffffffff1673ffffffffffffffffffffffffffffffffffffffff1673ffffffffffffffffffffffffffffffffffffffff1681526020016002820160009054906101000a900473ffffffffffffffffffffffffffffffffffffffff1673ffffffffffffffffffffffffffffffffffffffff1673ffffffffffffffffffffffffffffffffffffffff1681526020016003820160009054906101000a900473ffffffffffffffffffffffffffffffffffffffff1673ffffffffffffffffffffffffffffffffffffffff1673ffffffffffffffffffffffffffffffffffffffff1681526020016004820160009054906101000a900473ffffffffffffffffffffffffffffffffffffffff1673ffffffffffffffffffffffffffffffffffffffff1673ffffffffffffffffffffffffffffffffffffffff1681526020016005820154815260200160068201548152602001600782015481526020016008820154815260200160098201548152602001600a8201548152505090506000600382610140015181548110610e3c57610e3b612df4565b5b906000526020600020906004020160405180608001604052908160008201548152602001600182015481526020016002820154815260200160038201548152505090504283604001518460800151610e949190612f3f565b11610ed4576040517f08c379a0000000000000000000000000000000000000000000000000000000008152600401610ecb9061302b565b60405180910390fd5b6000610edf85611b60565b9050610f12333083866080015173ffffffffffffffffffffffffffffffffffffffff16611fd6909392919063ffffffff16565b610f45338460a00151856060015173ffffffffffffffffffffffffffffffffffffffff166120589092919063ffffffff16565b6000610f608460e001518560c00151866101000151426120d7565b90506000620f42408460000151838760c00151610f7d9190612f3f565b610f87919061304b565b610f9191906130bc565b90506000838211610fa25781610fa4565b835b905060008185610fb491906130ed565b9050610fe9876040015183896080015173ffffffffffffffffffffffffffffffffffffffff166120589092919063ffffffff16565b866040015173ffffffffffffffffffffffffffffffffffffffff16630e864fb68884846040518463ffffffff1660e01b815260040161102a93929190613121565b600060405180830381600087803b15801561104457600080fd5b505af1925050508015611055575060015b506110638760200151612127565b156110d657866020015173ffffffffffffffffffffffffffffffffffffffff16630e864fb68884846040518463ffffffff1660e01b81526004016110a993929190613121565b600060405180830381600087803b1580156110c357600080fd5b505af19250505080156110d4575060015b505b600081111561111357611112876020015182896080015173ffffffffffffffffffffffffffffffffffffffff166120589092919063ffffffff16565b5b887fc9f72b276a388619c6d185d146697036241880c36654b1a3ffdad07c24038d99338760405161114592919061315b565b60405180910390a2505050505050505050565b6111606124e9565b6005600083815260200190815260200160002060405180610160016040529081600082015481526020016001820160009054906101000a900473ffffffffffffffffffffffffffffffffffffffff1673ffffffffffffffffffffffffffffffffffffffff1673ffffffffffffffffffffffffffffffffffffffff1681526020016002820160009054906101000a900473ffffffffffffffffffffffffffffffffffffffff1673ffffffffffffffffffffffffffffffffffffffff1673ffffffffffffffffffffffffffffffffffffffff1681526020016003820160009054906101000a900473ffffffffffffffffffffffffffffffffffffffff1673ffffffffffffffffffffffffffffffffffffffff1673ffffffffffffffffffffffffffffffffffffffff1681526020016004820160009054906101000a900473ffffffffffffffffffffffffffffffffffffffff1673ffffffffffffffffffffffffffffffffffffffff1673ffffffffffffffffffffffffffffffffffffffff1681526020016005820154815260200160068201548152602001600782015481526020016008820154815260200160098201548152602001600a8201548152505090506113388160e001518260c00151836101000151426120d7565b8160c0018181516113499190612f3f565b91508181525050919050565b6002818154811061136557600080fd5b90600052602060002090600602016000915090508060000154908060010154908060020154908060030154908060040154908060050154905086565b60006005600084815260200190815260200160002090503373ffffffffffffffffffffffffffffffffffffffff168160020160009054906101000a900473ffffffffffffffffffffffffffffffffffffffff1673ffffffffffffffffffffffffffffffffffffffff161461144a576040517f08c379a0000000000000000000000000000000000000000000000000000000008152600401611441906131f6565b60405180910390fd5b428160080154826009015461145f9190612f3f565b11156114a0576040517f08c379a000000000000000000000000000000000000000000000000000000000815260040161149790613262565b60405180910390fd5b60006114ba826007015483600601548460080154426120d7565b905060008183600601546114ce9190612f3f565b90508083600601819055504283600801819055508383600701819055506115188360010160009054906101000a900473ffffffffffffffffffffffffffffffffffffffff16612127565b156115a9578260010160009054906101000a900473ffffffffffffffffffffffffffffffffffffffff1673ffffffffffffffffffffffffffffffffffffffff1663093de10184866040518363ffffffff1660e01b815260040161157c929190613480565b600060405180830381600087803b15801561159657600080fd5b505af19250505080156115a7575060015b505b5050505050565b60006005600084815260200190815260200160002060405180610160016040529081600082015481526020016001820160009054906101000a900473ffffffffffffffffffffffffffffffffffffffff1673ffffffffffffffffffffffffffffffffffffffff1673ffffffffffffffffffffffffffffffffffffffff1681526020016002820160009054906101000a900473ffffffffffffffffffffffffffffffffffffffff1673ffffffffffffffffffffffffffffffffffffffff1673ffffffffffffffffffffffffffffffffffffffff1681526020016003820160009054906101000a900473ffffffffffffffffffffffffffffffffffffffff1673ffffffffffffffffffffffffffffffffffffffff1673ffffffffffffffffffffffffffffffffffffffff1681526020016004820160009054906101000a900473ffffffffffffffffffffffffffffffffffffffff1673ffffffffffffffffffffffffffffffffffffffff1673ffffffffffffffffffffffffffffffffffffffff1681526020016005820154815260200160068201548152602001600782015481526020016008820154815260200160098201548152602001600a820154815250509050600061178c8260e001518360c00151846101000151426120d7565b90506000818360c001516117a09190612f3f565b90506117d784846040015183866080015173ffffffffffffffffffffffffffffffffffffffff16611fd6909392919063ffffffff16565b826040015173ffffffffffffffffffffffffffffffffffffffff16836020015173ffffffffffffffffffffffffffffffffffffffff16867f710e531990ea39fba48230679094c845e457119cedc84798e6f0e1eb2422ac598460405161183d91906128c3565b60405180910390a4826040015173ffffffffffffffffffffffffffffffffffffffff16630e71d91f846040518263ffffffff1660e01b81526004016118829190612a3c565b600060405180830381600087803b15801561189c57600080fd5b505af19250505080156118ad575060015b506000836101200151036119245760026004600087815260200190815260200160002054815481106118e2576118e1612df4565b5b90600052602060002090600602016000808201600090556001820160009055600282016000905560038201600090556004820160009055600582016000905550505b5050505050565b60006005600084815260200190815260200160002090503373ffffffffffffffffffffffffffffffffffffffff168160020160009054906101000a900473ffffffffffffffffffffffffffffffffffffffff1673ffffffffffffffffffffffffffffffffffffffff16146119d4576040517f08c379a00000000000000000000000000000000000000000000000000000000081526004016119cb9061351d565b60405180910390fd5b818160010160006101000a81548173ffffffffffffffffffffffffffffffffffffffff021916908373ffffffffffffffffffffffffffffffffffffffff160217905550505050565b60046020528060005260406000206000915090505481565b600060038290806001815401808255809150506001900390600052602060002090600402016000909190919091506000820151816000015560208201518160010155604082015181600201556060820151816003015550507fa2c2679a578a75705566f226e5e44abef52a51eadded9a83173775ae871bc8be6001600380549050611abf91906130ed565b83604051611ace929190613592565b60405180910390a16001600380549050611ae891906130ed565b9050919050565b611af981336115b0565b50565b60038181548110611b0c57600080fd5b90600052602060002090600402016000915090508060000154908060010154908060020154908060030154905084565b60018181548110611b4c57600080fd5b906000526020600020016000915090505481565b60008060028381548110611b7757611b76612df4565b5b90600052602060002090600602016040518060c00160405290816000820154815260200160018201548152602001600282015481526020016003820154815260200160048201548152602001600582015481525050905060008160600151905060008260a0015190506000836080015190506000846040015190508082611bfe9190612f3f565b4210611c11578295505050505050611c68565b60008242611c1f91906130ed565b905060008183611c2f91906130ed565b905080828688611c3f91906130ed565b611c49919061304b565b611c5391906130bc565b86611c5e91906130ed565b9750505050505050505b919050565b60006005600083815260200190815260200160002090503373ffffffffffffffffffffffffffffffffffffffff168160020160009054906101000a900473ffffffffffffffffffffffffffffffffffffffff1673ffffffffffffffffffffffffffffffffffffffff1614611d16576040517f08c379a0000000000000000000000000000000000000000000000000000000008152600401611d0d90613607565b60405180910390fd5b4281600801548260090154611d2b9190612f3f565b1180611d5a57507fffffffffffffffffffffffffffffffffffffffffffffffffffffffffffffffff8160090154145b15611d9a576040517f08c379a0000000000000000000000000000000000000000000000000000000008152600401611d9190613699565b60405180910390fd5b6000611db4826007015483600601548460080154426120d7565b90506000818360060154611dc89190612f3f565b9050611dda84828486600a015461213a565b7fffffffffffffffffffffffffffffffffffffffffffffffffffffffffffffffff8360090181905550611e308360010160009054906101000a900473ffffffffffffffffffffffffffffffffffffffff16612127565b15611ebf578260010160009054906101000a900473ffffffffffffffffffffffffffffffffffffffff1673ffffffffffffffffffffffffffffffffffffffff1663aee307b2846040518263ffffffff1660e01b8152600401611e9291906136b9565b600060405180830381600087803b158015611eac57600080fd5b505af1925050508015611ebd575060015b505b50505050565b60005481565b60056020528060005260406000206000915090508060000154908060010160009054906101000a900473ffffffffffffffffffffffffffffffffffffffff16908060020160009054906101000a900473ffffffffffffffffffffffffffffffffffffffff16908060030160009054906101000a900473ffffffffffffffffffffffffffffffffffffffff16908060040160009054906101000a900473ffffffffffffffffffffffffffffffffffffffff169080600501549080600601549080600701549080600801549080600901549080600a015490508b565b60066020528160005260406000208181548110611fc157600080fd5b90600052602060002001600091509150505481565b612052848573ffffffffffffffffffffffffffffffffffffffff166323b872dd86868660405160240161200b939291906136d5565b604051602081830303815290604052915060e01b6020820180517bffffffffffffffffffffffffffffffffffffffffffffffffffffffff838183161783525050505061229b565b50505050565b6120d2838473ffffffffffffffffffffffffffffffffffffffff1663a9059cbb858560405160240161208b92919061315b565b604051602081830303815290604052915060e01b6020820180517bffffffffffffffffffffffffffffffffffffffffffffffffffffffff838183161783525050505061229b565b505050565b60008083836120e691906130ed565b9050620f42406301e133806120fb919061304b565b818688612108919061304b565b612112919061304b565b61211c91906130bc565b915050949350505050565b600080823b905060008111915050919050565b6000600382815481106121505761214f612df4565b5b906000526020600020906004020160405180608001604052908160008201548152602001600182015481526020016002820154815260200160038201548152505090506000620f4240826020015185876121aa9190612f3f565b6121b4919061304b565b6121be91906130bc565b90506000620f424083604001516121d5919061304b565b85876121e1919061304b565b6121eb91906130bc565b905060006040518060c001604052806002805490508152602001898152602001856060015181526020018481526020014281526020018381525090506002819080600181540180825580915050600190039060005260206000209060060201600090919091909150600082015181600001556020820151816001015560408201518160020155606082015181600301556080820151816004015560a0820151816005015550505050505050505050565b60006122c6828473ffffffffffffffffffffffffffffffffffffffff1661233290919063ffffffff16565b905060008151141580156122eb5750808060200190518101906122e99190612e95565b155b1561232d57826040517f5274afe7000000000000000000000000000000000000000000000000000000008152600401612324919061370c565b60405180910390fd5b505050565b606061234083836000612348565b905092915050565b60608147101561238f57306040517fcd786059000000000000000000000000000000000000000000000000000000008152600401612386919061370c565b60405180910390fd5b6000808573ffffffffffffffffffffffffffffffffffffffff1684866040516123b89190613798565b60006040518083038185875af1925050503d80600081146123f5576040519150601f19603f3d011682016040523d82523d6000602084013e6123fa565b606091505b509150915061240a868383612415565b925050509392505050565b60608261242a57612425826124a4565b61249c565b60008251148015612452575060008473ffffffffffffffffffffffffffffffffffffffff163b145b1561249457836040517f9996b31500000000000000000000000000000000000000000000000000000000815260040161248b919061370c565b60405180910390fd5b81905061249d565b5b9392505050565b6000815111156124b75780518082602001fd5b6040517f1425ea4200000000000000000000000000000000000000000000000000000000815260040160405180910390fd5b60405180610160016040528060008152602001600073ffffffffffffffffffffffffffffffffffffffff168152602001600073ffffffffffffffffffffffffffffffffffffffff168152602001600073ffffffffffffffffffffffffffffffffffffffff168152602001600073ffffffffffffffffffffffffffffffffffffffff1681526020016000815260200160008152602001600081526020016000815260200160008152602001600081525090565b6000604051905090565b600080fd5b600073ffffffffffffffffffffffffffffffffffffffff82169050919050565b60006125d5826125aa565b9050919050565b6125e5816125ca565b81146125f057600080fd5b50565b600081359050612602816125dc565b92915050565b6000612613826125ca565b9050919050565b61262381612608565b811461262e57600080fd5b50565b6000813590506126408161261a565b92915050565b6000819050919050565b61265981612646565b811461266457600080fd5b50565b60008135905061267681612650565b92915050565b600080600080600080600080610100898b03121561269d5761269c6125a5565b5b60006126ab8b828c016125f3565b98505060206126bc8b828c01612631565b97505060406126cd8b828c01612631565b96505060606126de8b828c01612667565b95505060806126ef8b828c01612667565b94505060a06127008b828c01612667565b93505060c06127118b828c01612667565b92505060e06127228b828c01612667565b9150509295985092959890939650565b6000819050919050565b61274581612732565b811461275057600080fd5b50565b6000813590506127628161273c565b92915050565b6000806000806000806000806000806101408b8d03121561278c5761278b6125a5565b5b600061279a8d828e016125f3565b9a505060206127ab8d828e016125f3565b99505060406127bc8d828e01612631565b98505060606127cd8d828e01612631565b97505060806127de8d828e01612667565b96505060a06127ef8d828e01612667565b95505060c06128008d828e01612667565b94505060e06128118d828e01612667565b9350506101006128238d828e01612667565b9250506101206128358d828e01612753565b9150509295989b9194979a5092959850565b60006020828403121561285d5761285c6125a5565b5b600061286b84828501612667565b91505092915050565b6000806040838503121561288b5761288a6125a5565b5b6000612899858286016125f3565b92505060206128aa85828601612667565b9150509250929050565b6128bd81612646565b82525050565b60006020820190506128d860008301846128b4565b92915050565b6128e781612646565b82525050565b6128f6816125ca565b82525050565b6000819050919050565b600061292161291c612917846125aa565b6128fc565b6125aa565b9050919050565b600061293382612906565b9050919050565b600061294582612928565b9050919050565b6129558161293a565b82525050565b6101608201600082015161297260008501826128de565b50602082015161298560208501826128ed565b50604082015161299860408501826128ed565b5060608201516129ab606085018261294c565b5060808201516129be608085018261294c565b5060a08201516129d160a08501826128de565b5060c08201516129e460c08501826128de565b5060e08201516129f760e08501826128de565b50610100820151612a0c6101008501826128de565b50610120820151612a216101208501826128de565b50610140820151612a366101408501826128de565b50505050565b600061016082019050612a52600083018461295b565b92915050565b600060c082019050612a6d60008301896128b4565b612a7a60208301886128b4565b612a8760408301876128b4565b612a9460608301866128b4565b612aa160808301856128b4565b612aae60a08301846128b4565b979650505050505050565b60008060408385031215612ad057612acf6125a5565b5b6000612ade85828601612667565b9250506020612aef85828601612667565b9150509250929050565b60008060408385031215612b1057612b0f6125a5565b5b6000612b1e85828601612667565b9250506020612b2f858286016125f3565b9150509250929050565b600080fd5b6000601f19601f8301169050919050565b7f4e487b7100000000000000000000000000000000000000000000000000000000600052604160045260246000fd5b612b8782612b3e565b810181811067ffffffffffffffff82111715612ba657612ba5612b4f565b5b80604052505050565b6000612bb961259b565b9050612bc58282612b7e565b919050565b600060808284031215612be057612bdf612b39565b5b612bea6080612baf565b90506000612bfa84828501612667565b6000830152506020612c0e84828501612667565b6020830152506040612c2284828501612667565b6040830152506060612c3684828501612667565b60608301525092915050565b600060808284031215612c5857612c576125a5565b5b6000612c6684828501612bca565b91505092915050565b6000608082019050612c8460008301876128b4565b612c9160208301866128b4565b612c9e60408301856128b4565b612cab60608301846128b4565b95945050505050565b612cbd816125ca565b82525050565b612ccc8161293a565b82525050565b600061016082019050612ce8600083018e6128b4565b612cf5602083018d612cb4565b612d02604083018c612cb4565b612d0f606083018b612cc3565b612d1c608083018a612cc3565b612d2960a08301896128b4565b612d3660c08301886128b4565b612d4360e08301876128b4565b612d516101008301866128b4565b612d5f6101208301856128b4565b612d6d6101408301846128b4565b9c9b505050505050505050505050565b7f4e487b7100000000000000000000000000000000000000000000000000000000600052601160045260246000fd5b6000612db782612646565b91507fffffffffffffffffffffffffffffffffffffffffffffffffffffffffffffffff8203612de957612de8612d7d565b5b600182019050919050565b7f4e487b7100000000000000000000000000000000000000000000000000000000600052603260045260246000fd5b612e2c81612732565b82525050565b600061018082019050612e48600083018561295b565b612e56610160830184612e23565b9392505050565b60008115159050919050565b612e7281612e5d565b8114612e7d57600080fd5b50565b600081519050612e8f81612e69565b92915050565b600060208284031215612eab57612eaa6125a5565b5b6000612eb984828501612e80565b91505092915050565b600082825260208201905092915050565b7f4c6f616e206e6f74207665726966696564000000000000000000000000000000600082015250565b6000612f09601183612ec2565b9150612f1482612ed3565b602082019050919050565b60006020820190508181036000830152612f3881612efc565b9050919050565b6000612f4a82612646565b9150612f5583612646565b9250828201905080821115612f6d57612f6c612d7d565b5b92915050565b7f41756374696f6e20686173206e6f7420656e6465640000000000000000000000600082015250565b6000612fa9601583612ec2565b9150612fb482612f73565b602082019050919050565b60006020820190508181036000830152612fd881612f9c565b9050919050565b7f41756374696f6e2068617320656e646564000000000000000000000000000000600082015250565b6000613015601183612ec2565b915061302082612fdf565b602082019050919050565b6000602082019050818103600083015261304481613008565b9050919050565b600061305682612646565b915061306183612646565b925082820261306f81612646565b9150828204841483151761308657613085612d7d565b5b5092915050565b7f4e487b7100000000000000000000000000000000000000000000000000000000600052601260045260246000fd5b60006130c782612646565b91506130d283612646565b9250826130e2576130e161308d565b5b828204905092915050565b60006130f882612646565b915061310383612646565b925082820390508181111561311b5761311a612d7d565b5b92915050565b60006101a082019050613137600083018661295b565b6131456101608301856128b4565b6131536101808301846128b4565b949350505050565b60006040820190506131706000830185612cb4565b61317d60208301846128b4565b9392505050565b7f4f6e6c79206c656e6465722063616e20726562616c616e63652074686520726160008201527f7465000000000000000000000000000000000000000000000000000000000000602082015250565b60006131e0602283612ec2565b91506131eb82613184565b604082019050919050565b6000602082019050818103600083015261320f816131d3565b9050919050565b7f4c6f616e206e6f74207965742061646a75737461626c65000000000000000000600082015250565b600061324c601783612ec2565b915061325782613216565b602082019050919050565b6000602082019050818103600083015261327b8161323f565b9050919050565b60008160001c9050919050565b6000819050919050565b60006132ac6132a783613282565b61328f565b9050919050565b600073ffffffffffffffffffffffffffffffffffffffff82169050919050565b60006132e66132e183613282565b6132b3565b9050919050565b600073ffffffffffffffffffffffffffffffffffffffff82169050919050565b600061332061331b83613282565b6132ed565b9050919050565b6101608201600080830154905061333d81613299565b61334a60008601826128de565b506001830154905061335b816132d3565b61336860208601826128ed565b5060028301549050613379816132d3565b61338660408601826128ed565b50600383015490506133978161330d565b6133a4606086018261294c565b50600483015490506133b58161330d565b6133c2608086018261294c565b50600583015490506133d381613299565b6133e060a08601826128de565b50600683015490506133f181613299565b6133fe60c08601826128de565b506007830154905061340f81613299565b61341c60e08601826128de565b506008830154905061342d81613299565b61343b6101008601826128de565b506009830154905061344c81613299565b61345a6101208601826128de565b50600a830154905061346b81613299565b6134796101408601826128de565b5050505050565b6000610180820190506134966000830185613327565b6134a46101608301846128b4565b9392505050565b7f4f6e6c7920426f72726f7765722063616e2075706461746520626f72726f776560008201527f7200000000000000000000000000000000000000000000000000000000000000602082015250565b6000613507602183612ec2565b9150613512826134ab565b604082019050919050565b60006020820190508181036000830152613536816134fa565b9050919050565b60808201600082015161355360008501826128de565b50602082015161356660208501826128de565b50604082015161357960408501826128de565b50606082015161358c60608501826128de565b50505050565b600060a0820190506135a760008301856128b4565b6135b4602083018461353d565b9392505050565b7f4f6e6c79206c656e6465722063616e206c697175696461746500000000000000600082015250565b60006135f1601983612ec2565b91506135fc826135bb565b602082019050919050565b60006020820190508181036000830152613620816135e4565b9050919050565b7f4c6f616e206e6f7420796574206c6971756964617461626c65206f722069732060008201527f616c726561647920696e2061756374696f6e0000000000000000000000000000602082015250565b6000613683603283612ec2565b915061368e82613627565b604082019050919050565b600060208201905081810360008301526136b281613676565b9050919050565b6000610160820190506136cf6000830184613327565b92915050565b60006060820190506136ea6000830186612cb4565b6136f76020830185612cb4565b61370460408301846128b4565b949350505050565b60006020820190506137216000830184612cb4565b92915050565b600081519050919050565b600081905092915050565b60005b8381101561375b578082015181840152602081019050613740565b60008484015250505050565b600061377282613727565b61377c8185613732565b935061378c81856020860161373d565b80840191505092915050565b60006137a48284613767565b91508190509291505056fea26469706673582212202f2067e667dc9fa17bb5c2c2fe164e5d77c667530a6ea82451a3e57f03f78f7f64736f6c63430008140033","opcodes":"PUSH1 0x80 PUSH1 0x40 MSTORE PUSH1 0x40 MLOAD DUP1 PUSH1 0xA0 ADD PUSH1 0x40 MSTORE DUP1 PUSH2 0x7080 PUSH3 0xFFFFFF AND DUP2 MSTORE PUSH1 0x20 ADD PUSH3 0x15180 PUSH3 0xFFFFFF AND DUP2 MSTORE PUSH1 0x20 ADD PUSH3 0x2A300 PUSH3 0xFFFFFF AND DUP2 MSTORE PUSH1 0x20 ADD PUSH3 0x93A80 PUSH3 0xFFFFFF AND DUP2 MSTORE PUSH1 0x20 ADD PUSH1 0x0 PUSH3 0xFFFFFF AND DUP2 MSTORE POP PUSH1 0x1 SWAP1 PUSH1 0x5 PUSH3 0x62 SWAP3 SWAP2 SWAP1 PUSH3 0x77 JUMP JUMPDEST POP CALLVALUE DUP1 ISZERO PUSH3 0x70 JUMPI PUSH1 0x0 DUP1 REVERT JUMPDEST POP PUSH3 0xEF JUMP JUMPDEST DUP3 DUP1 SLOAD DUP3 DUP3 SSTORE SWAP1 PUSH1 0x0 MSTORE PUSH1 0x20 PUSH1 0x0 KECCAK256 SWAP1 DUP2 ADD SWAP3 DUP3 ISZERO PUSH3 0xBD JUMPI SWAP2 PUSH1 0x20 MUL DUP3 ADD JUMPDEST DUP3 DUP2 GT ISZERO PUSH3 0xBC JUMPI DUP3 MLOAD DUP3 SWAP1 PUSH3 0xFFFFFF AND SWAP1 SSTORE SWAP2 PUSH1 0x20 ADD SWAP2 SWAP1 PUSH1 0x1 ADD SWAP1 PUSH3 0x98 JUMP JUMPDEST JUMPDEST POP SWAP1 POP PUSH3 0xCC SWAP2 SWAP1 PUSH3 0xD0 JUMP JUMPDEST POP SWAP1 JUMP JUMPDEST JUMPDEST DUP1 DUP3 GT ISZERO PUSH3 0xEB JUMPI PUSH1 0x0 DUP2 PUSH1 0x0 SWAP1 SSTORE POP PUSH1 0x1 ADD PUSH3 0xD1 JUMP JUMPDEST POP SWAP1 JUMP JUMPDEST PUSH2 0x37E5 DUP1 PUSH3 0xFF PUSH1 0x0 CODECOPY PUSH1 0x0 RETURN INVALID PUSH1 0x80 PUSH1 0x40 MSTORE CALLVALUE DUP1 ISZERO PUSH2 0x10 JUMPI PUSH1 0x0 DUP1 REVERT JUMPDEST POP PUSH1 0x4 CALLDATASIZE LT PUSH2 0x12C JUMPI PUSH1 0x0 CALLDATALOAD PUSH1 0xE0 SHR DUP1 PUSH4 0xA53AF07E GT PUSH2 0xAD JUMPI DUP1 PUSH4 0xC55D0F56 GT PUSH2 0x71 JUMPI DUP1 PUSH4 0xC55D0F56 EQ PUSH2 0x369 JUMPI DUP1 PUSH4 0xCCDD9F5D EQ PUSH2 0x399 JUMPI DUP1 PUSH4 0xCE63094D EQ PUSH2 0x3B5 JUMPI DUP1 PUSH4 0xE1EC3C68 EQ PUSH2 0x3D3 JUMPI DUP1 PUSH4 0xE3ED1902 EQ PUSH2 0x40D JUMPI PUSH2 0x12C JUMP JUMPDEST DUP1 PUSH4 0xA53AF07E EQ PUSH2 0x28A JUMPI DUP1 PUSH4 0xAAD402AC EQ PUSH2 0x2BA JUMPI DUP1 PUSH4 0xAB7B1C89 EQ PUSH2 0x2EA JUMPI DUP1 PUSH4 0xB10B8A2C EQ PUSH2 0x306 JUMPI DUP1 PUSH4 0xBC20A7AF EQ PUSH2 0x339 JUMPI PUSH2 0x12C JUMP JUMPDEST DUP1 PUSH4 0x504006CA GT PUSH2 0xF4 JUMPI DUP1 PUSH4 0x504006CA EQ PUSH2 0x1D1 JUMPI DUP1 PUSH4 0x571A26A0 EQ PUSH2 0x201 JUMPI DUP1 PUSH4 0x8DFA0272 EQ PUSH2 0x236 JUMPI DUP1 PUSH4 0x918344D3 EQ PUSH2 0x252 JUMPI DUP1 PUSH4 0x983E892B EQ PUSH2 0x26E JUMPI PUSH2 0x12C JUMP JUMPDEST DUP1 PUSH4 0x1D67D6A6 EQ PUSH2 0x131 JUMPI DUP1 PUSH4 0x1E24865A EQ PUSH2 0x14D JUMPI DUP1 PUSH4 0x2DABBEED EQ PUSH2 0x169 JUMPI DUP1 PUSH4 0x3CDB72F1 EQ PUSH2 0x185 JUMPI DUP1 PUSH4 0x454A2AB3 EQ PUSH2 0x1B5 JUMPI JUMPDEST PUSH1 0x0 DUP1 REVERT JUMPDEST PUSH2 0x14B PUSH1 0x4 DUP1 CALLDATASIZE SUB DUP2 ADD SWAP1 PUSH2 0x146 SWAP2 SWAP1 PUSH2 0x267C JUMP JUMPDEST PUSH2 0x43D JUMP JUMPDEST STOP JUMPDEST PUSH2 0x167 PUSH1 0x4 DUP1 CALLDATASIZE SUB DUP2 ADD SWAP1 PUSH2 0x162 SWAP2 SWAP1 PUSH2 0x2768 JUMP JUMPDEST PUSH2 0x45A JUMP JUMPDEST STOP JUMPDEST PUSH2 0x183 PUSH1 0x4 DUP1 CALLDATASIZE SUB DUP2 ADD SWAP1 PUSH2 0x17E SWAP2 SWAP1 PUSH2 0x2847 JUMP JUMPDEST PUSH2 0x805 JUMP JUMPDEST STOP JUMPDEST PUSH2 0x19F PUSH1 0x4 DUP1 CALLDATASIZE SUB DUP2 ADD SWAP1 PUSH2 0x19A SWAP2 SWAP1 PUSH2 0x2874 JUMP JUMPDEST PUSH2 0xBBE JUMP JUMPDEST PUSH1 0x40 MLOAD PUSH2 0x1AC SWAP2 SWAP1 PUSH2 0x28C3 JUMP JUMPDEST PUSH1 0x40 MLOAD DUP1 SWAP2 SUB SWAP1 RETURN JUMPDEST PUSH2 0x1CF PUSH1 0x4 DUP1 CALLDATASIZE SUB DUP2 ADD SWAP1 PUSH2 0x1CA SWAP2 SWAP1 PUSH2 0x2847 JUMP JUMPDEST PUSH2 0xBEF JUMP JUMPDEST STOP JUMPDEST PUSH2 0x1EB PUSH1 0x4 DUP1 CALLDATASIZE SUB DUP2 ADD SWAP1 PUSH2 0x1E6 SWAP2 SWAP1 PUSH2 0x2847 JUMP JUMPDEST PUSH2 0x1158 JUMP JUMPDEST PUSH1 0x40 MLOAD PUSH2 0x1F8 SWAP2 SWAP1 PUSH2 0x2A3C JUMP JUMPDEST PUSH1 0x40 MLOAD DUP1 SWAP2 SUB SWAP1 RETURN JUMPDEST PUSH2 0x21B PUSH1 0x4 DUP1 CALLDATASIZE SUB DUP2 ADD SWAP1 PUSH2 0x216 SWAP2 SWAP1 PUSH2 0x2847 JUMP JUMPDEST PUSH2 0x1355 JUMP JUMPDEST PUSH1 0x40 MLOAD PUSH2 0x22D SWAP7 SWAP6 SWAP5 SWAP4 SWAP3 SWAP2 SWAP1 PUSH2 0x2A58 JUMP JUMPDEST PUSH1 0x40 MLOAD DUP1 SWAP2 SUB SWAP1 RETURN JUMPDEST PUSH2 0x250 PUSH1 0x4 DUP1 CALLDATASIZE SUB DUP2 ADD SWAP1 PUSH2 0x24B SWAP2 SWAP1 PUSH2 0x2AB9 JUMP JUMPDEST PUSH2 0x13A1 JUMP JUMPDEST STOP JUMPDEST PUSH2 0x26C PUSH1 0x4 DUP1 CALLDATASIZE SUB DUP2 ADD SWAP1 PUSH2 0x267 SWAP2 SWAP1 PUSH2 0x2AF9 JUMP JUMPDEST PUSH2 0x15B0 JUMP JUMPDEST STOP JUMPDEST PUSH2 0x288 PUSH1 0x4 DUP1 CALLDATASIZE SUB DUP2 ADD SWAP1 PUSH2 0x283 SWAP2 SWAP1 PUSH2 0x2AF9 JUMP JUMPDEST PUSH2 0x192B JUMP JUMPDEST STOP JUMPDEST PUSH2 0x2A4 PUSH1 0x4 DUP1 CALLDATASIZE SUB DUP2 ADD SWAP1 PUSH2 0x29F SWAP2 SWAP1 PUSH2 0x2847 JUMP JUMPDEST PUSH2 0x1A1C JUMP JUMPDEST PUSH1 0x40 MLOAD PUSH2 0x2B1 SWAP2 SWAP1 PUSH2 0x28C3 JUMP JUMPDEST PUSH1 0x40 MLOAD DUP1 SWAP2 SUB SWAP1 RETURN JUMPDEST PUSH2 0x2D4 PUSH1 0x4 DUP1 CALLDATASIZE SUB DUP2 ADD SWAP1 PUSH2 0x2CF SWAP2 SWAP1 PUSH2 0x2C42 JUMP JUMPDEST PUSH2 0x1A34 JUMP JUMPDEST PUSH1 0x40 MLOAD PUSH2 0x2E1 SWAP2 SWAP1 PUSH2 0x28C3 JUMP JUMPDEST PUSH1 0x40 MLOAD DUP1 SWAP2 SUB SWAP1 RETURN JUMPDEST PUSH2 0x304 PUSH1 0x4 DUP1 CALLDATASIZE SUB DUP2 ADD SWAP1 PUSH2 0x2FF SWAP2 SWAP1 PUSH2 0x2847 JUMP JUMPDEST PUSH2 0x1AEF JUMP JUMPDEST STOP JUMPDEST PUSH2 0x320 PUSH1 0x4 DUP1 CALLDATASIZE SUB DUP2 ADD SWAP1 PUSH2 0x31B SWAP2 SWAP1 PUSH2 0x2847 JUMP JUMPDEST PUSH2 0x1AFC JUMP JUMPDEST PUSH1 0x40 MLOAD PUSH2 0x330 SWAP5 SWAP4 SWAP3 SWAP2 SWAP1 PUSH2 0x2C6F JUMP JUMPDEST PUSH1 0x40 MLOAD DUP1 SWAP2 SUB SWAP1 RETURN JUMPDEST PUSH2 0x353 PUSH1 0x4 DUP1 CALLDATASIZE SUB DUP2 ADD SWAP1 PUSH2 0x34E SWAP2 SWAP1 PUSH2 0x2847 JUMP JUMPDEST PUSH2 0x1B3C JUMP JUMPDEST PUSH1 0x40 MLOAD PUSH2 0x360 SWAP2 SWAP1 PUSH2 0x28C3 JUMP JUMPDEST PUSH1 0x40 MLOAD DUP1 SWAP2 SUB SWAP1 RETURN JUMPDEST PUSH2 0x383 PUSH1 0x4 DUP1 CALLDATASIZE SUB DUP2 ADD SWAP1 PUSH2 0x37E SWAP2 SWAP1 PUSH2 0x2847 JUMP JUMPDEST PUSH2 0x1B60 JUMP JUMPDEST PUSH1 0x40 MLOAD PUSH2 0x390 SWAP2 SWAP1 PUSH2 0x28C3 JUMP JUMPDEST PUSH1 0x40 MLOAD DUP1 SWAP2 SUB SWAP1 RETURN JUMPDEST PUSH2 0x3B3 PUSH1 0x4 DUP1 CALLDATASIZE SUB DUP2 ADD SWAP1 PUSH2 0x3AE SWAP2 SWAP1 PUSH2 0x2847 JUMP JUMPDEST PUSH2 0x1C6D JUMP JUMPDEST STOP JUMPDEST PUSH2 0x3BD PUSH2 0x1EC5 JUMP JUMPDEST PUSH1 0x40 MLOAD PUSH2 0x3CA SWAP2 SWAP1 PUSH2 0x28C3 JUMP JUMPDEST PUSH1 0x40 MLOAD DUP1 SWAP2 SUB SWAP1 RETURN JUMPDEST PUSH2 0x3ED PUSH1 0x4 DUP1 CALLDATASIZE SUB DUP2 ADD SWAP1 PUSH2 0x3E8 SWAP2 SWAP1 PUSH2 0x2847 JUMP JUMPDEST PUSH2 0x1ECB JUMP JUMPDEST PUSH1 0x40 MLOAD PUSH2 0x404 SWAP12 SWAP11 SWAP10 SWAP9 SWAP8 SWAP7 SWAP6 SWAP5 SWAP4 SWAP3 SWAP2 SWAP1 PUSH2 0x2CD2 JUMP JUMPDEST PUSH1 0x40 MLOAD DUP1 SWAP2 SUB SWAP1 RETURN JUMPDEST PUSH2 0x427 PUSH1 0x4 DUP1 CALLDATASIZE SUB DUP2 ADD SWAP1 PUSH2 0x422 SWAP2 SWAP1 PUSH2 0x2874 JUMP JUMPDEST PUSH2 0x1FA5 JUMP JUMPDEST PUSH1 0x40 MLOAD PUSH2 0x434 SWAP2 SWAP1 PUSH2 0x28C3 JUMP JUMPDEST PUSH1 0x40 MLOAD DUP1 SWAP2 SUB SWAP1 RETURN JUMPDEST PUSH2 0x450 DUP9 CALLER DUP10 DUP10 DUP10 DUP10 DUP10 DUP10 DUP10 PUSH1 0x0 PUSH2 0x45A JUMP JUMPDEST POP POP POP POP POP POP POP POP JUMP JUMPDEST PUSH1 0x0 DUP1 DUP2 SLOAD DUP1 SWAP3 SWAP2 SWAP1 PUSH2 0x46C SWAP1 PUSH2 0x2DAC JUMP JUMPDEST SWAP2 SWAP1 POP SSTORE POP PUSH1 0x0 PUSH1 0x40 MLOAD DUP1 PUSH2 0x160 ADD PUSH1 0x40 MSTORE DUP1 PUSH1 0x0 SLOAD DUP2 MSTORE PUSH1 0x20 ADD DUP12 PUSH20 0xFFFFFFFFFFFFFFFFFFFFFFFFFFFFFFFFFFFFFFFF AND DUP2 MSTORE PUSH1 0x20 ADD DUP13 PUSH20 0xFFFFFFFFFFFFFFFFFFFFFFFFFFFFFFFFFFFFFFFF AND DUP2 MSTORE PUSH1 0x20 ADD DUP11 PUSH20 0xFFFFFFFFFFFFFFFFFFFFFFFFFFFFFFFFFFFFFFFF AND DUP2 MSTORE PUSH1 0x20 ADD DUP10 PUSH20 0xFFFFFFFFFFFFFFFFFFFFFFFFFFFFFFFFFFFFFFFF AND DUP2 MSTORE PUSH1 0x20 ADD DUP9 DUP2 MSTORE PUSH1 0x20 ADD DUP8 DUP2 MSTORE PUSH1 0x20 ADD DUP7 DUP2 MSTORE PUSH1 0x20 ADD TIMESTAMP DUP2 MSTORE PUSH1 0x20 ADD PUSH1 0x1 DUP7 DUP2 SLOAD DUP2 LT PUSH2 0x523 JUMPI PUSH2 0x522 PUSH2 0x2DF4 JUMP JUMPDEST JUMPDEST SWAP1 PUSH1 0x0 MSTORE PUSH1 0x20 PUSH1 0x0 KECCAK256 ADD SLOAD DUP2 MSTORE PUSH1 0x20 ADD DUP5 DUP2 MSTORE POP SWAP1 POP DUP1 PUSH1 0x5 PUSH1 0x0 DUP1 SLOAD DUP2 MSTORE PUSH1 0x20 ADD SWAP1 DUP2 MSTORE PUSH1 0x20 ADD PUSH1 0x0 KECCAK256 PUSH1 0x0 DUP3 ADD MLOAD DUP2 PUSH1 0x0 ADD SSTORE PUSH1 0x20 DUP3 ADD MLOAD DUP2 PUSH1 0x1 ADD PUSH1 0x0 PUSH2 0x100 EXP DUP2 SLOAD DUP2 PUSH20 0xFFFFFFFFFFFFFFFFFFFFFFFFFFFFFFFFFFFFFFFF MUL NOT AND SWAP1 DUP4 PUSH20 0xFFFFFFFFFFFFFFFFFFFFFFFFFFFFFFFFFFFFFFFF AND MUL OR SWAP1 SSTORE POP PUSH1 0x40 DUP3 ADD MLOAD DUP2 PUSH1 0x2 ADD PUSH1 0x0 PUSH2 0x100 EXP DUP2 SLOAD DUP2 PUSH20 0xFFFFFFFFFFFFFFFFFFFFFFFFFFFFFFFFFFFFFFFF MUL NOT AND SWAP1 DUP4 PUSH20 0xFFFFFFFFFFFFFFFFFFFFFFFFFFFFFFFFFFFFFFFF AND MUL OR SWAP1 SSTORE POP PUSH1 0x60 DUP3 ADD MLOAD DUP2 PUSH1 0x3 ADD PUSH1 0x0 PUSH2 0x100 EXP DUP2 SLOAD DUP2 PUSH20 0xFFFFFFFFFFFFFFFFFFFFFFFFFFFFFFFFFFFFFFFF MUL NOT AND SWAP1 DUP4 PUSH20 0xFFFFFFFFFFFFFFFFFFFFFFFFFFFFFFFFFFFFFFFF AND MUL OR SWAP1 SSTORE POP PUSH1 0x80 DUP3 ADD MLOAD DUP2 PUSH1 0x4 ADD PUSH1 0x0 PUSH2 0x100 EXP DUP2 SLOAD DUP2 PUSH20 0xFFFFFFFFFFFFFFFFFFFFFFFFFFFFFFFFFFFFFFFF MUL NOT AND SWAP1 DUP4 PUSH20 0xFFFFFFFFFFFFFFFFFFFFFFFFFFFFFFFFFFFFFFFF AND MUL OR SWAP1 SSTORE POP PUSH1 0xA0 DUP3 ADD MLOAD DUP2 PUSH1 0x5 ADD SSTORE PUSH1 0xC0 DUP3 ADD MLOAD DUP2 PUSH1 0x6 ADD SSTORE PUSH1 0xE0 DUP3 ADD MLOAD DUP2 PUSH1 0x7 ADD SSTORE PUSH2 0x100 DUP3 ADD MLOAD DUP2 PUSH1 0x8 ADD SSTORE PUSH2 0x120 DUP3 ADD MLOAD DUP2 PUSH1 0x9 ADD SSTORE PUSH2 0x140 DUP3 ADD MLOAD DUP2 PUSH1 0xA ADD SSTORE SWAP1 POP POP DUP11 PUSH20 0xFFFFFFFFFFFFFFFFFFFFFFFFFFFFFFFFFFFFFFFF AND PUSH4 0x955A20C DUP3 DUP5 PUSH1 0x40 MLOAD DUP4 PUSH4 0xFFFFFFFF AND PUSH1 0xE0 SHL DUP2 MSTORE PUSH1 0x4 ADD PUSH2 0x6F1 SWAP3 SWAP2 SWAP1 PUSH2 0x2E32 JUMP JUMPDEST PUSH1 0x20 PUSH1 0x40 MLOAD DUP1 DUP4 SUB DUP2 PUSH1 0x0 DUP8 GAS CALL ISZERO DUP1 ISZERO PUSH2 0x710 JUMPI RETURNDATASIZE PUSH1 0x0 DUP1 RETURNDATACOPY RETURNDATASIZE PUSH1 0x0 REVERT JUMPDEST POP POP POP POP PUSH1 0x40 MLOAD RETURNDATASIZE PUSH1 0x1F NOT PUSH1 0x1F DUP3 ADD AND DUP3 ADD DUP1 PUSH1 0x40 MSTORE POP DUP2 ADD SWAP1 PUSH2 0x734 SWAP2 SWAP1 PUSH2 0x2E95 JUMP JUMPDEST PUSH2 0x773 JUMPI PUSH1 0x40 MLOAD PUSH32 0x8C379A000000000000000000000000000000000000000000000000000000000 DUP2 MSTORE PUSH1 0x4 ADD PUSH2 0x76A SWAP1 PUSH2 0x2F1F JUMP JUMPDEST PUSH1 0x40 MLOAD DUP1 SWAP2 SUB SWAP1 REVERT JUMPDEST PUSH2 0x7A0 CALLER ADDRESS DUP10 DUP13 PUSH20 0xFFFFFFFFFFFFFFFFFFFFFFFFFFFFFFFFFFFFFFFF AND PUSH2 0x1FD6 SWAP1 SWAP4 SWAP3 SWAP2 SWAP1 PUSH4 0xFFFFFFFF AND JUMP JUMPDEST PUSH2 0x7CD DUP12 ADDRESS DUP9 DUP12 PUSH20 0xFFFFFFFFFFFFFFFFFFFFFFFFFFFFFFFFFFFFFFFF AND PUSH2 0x1FD6 SWAP1 SWAP4 SWAP3 SWAP2 SWAP1 PUSH4 0xFFFFFFFF AND JUMP JUMPDEST PUSH2 0x7F8 CALLER DUP8 DUP11 PUSH20 0xFFFFFFFFFFFFFFFFFFFFFFFFFFFFFFFFFFFFFFFF AND PUSH2 0x2058 SWAP1 SWAP3 SWAP2 SWAP1 PUSH4 0xFFFFFFFF AND JUMP JUMPDEST POP POP POP POP POP POP POP POP POP POP POP JUMP JUMPDEST PUSH1 0x0 PUSH1 0x2 DUP3 DUP2 SLOAD DUP2 LT PUSH2 0x81B JUMPI PUSH2 0x81A PUSH2 0x2DF4 JUMP JUMPDEST JUMPDEST SWAP1 PUSH1 0x0 MSTORE PUSH1 0x20 PUSH1 0x0 KECCAK256 SWAP1 PUSH1 0x6 MUL ADD PUSH1 0x40 MLOAD DUP1 PUSH1 0xC0 ADD PUSH1 0x40 MSTORE SWAP1 DUP2 PUSH1 0x0 DUP3 ADD SLOAD DUP2 MSTORE PUSH1 0x20 ADD PUSH1 0x1 DUP3 ADD SLOAD DUP2 MSTORE PUSH1 0x20 ADD PUSH1 0x2 DUP3 ADD SLOAD DUP2 MSTORE PUSH1 0x20 ADD PUSH1 0x3 DUP3 ADD SLOAD DUP2 MSTORE PUSH1 0x20 ADD PUSH1 0x4 DUP3 ADD SLOAD DUP2 MSTORE PUSH1 0x20 ADD PUSH1 0x5 DUP3 ADD SLOAD DUP2 MSTORE POP POP SWAP1 POP TIMESTAMP DUP2 PUSH1 0x40 ADD MLOAD DUP3 PUSH1 0x80 ADD MLOAD PUSH2 0x887 SWAP2 SWAP1 PUSH2 0x2F3F JUMP JUMPDEST LT PUSH2 0x8C7 JUMPI PUSH1 0x40 MLOAD PUSH32 0x8C379A000000000000000000000000000000000000000000000000000000000 DUP2 MSTORE PUSH1 0x4 ADD PUSH2 0x8BE SWAP1 PUSH2 0x2FBF JUMP JUMPDEST PUSH1 0x40 MLOAD DUP1 SWAP2 SUB SWAP1 REVERT JUMPDEST DUP1 PUSH1 0x60 ADD MLOAD DUP2 PUSH1 0xA0 ADD MLOAD EQ PUSH2 0x911 JUMPI PUSH1 0x40 MLOAD PUSH32 0x8C379A000000000000000000000000000000000000000000000000000000000 DUP2 MSTORE PUSH1 0x4 ADD PUSH2 0x908 SWAP1 PUSH2 0x2FBF JUMP JUMPDEST PUSH1 0x40 MLOAD DUP1 SWAP2 SUB SWAP1 REVERT JUMPDEST PUSH1 0x0 PUSH1 0x5 PUSH1 0x0 DUP4 PUSH1 0x20 ADD MLOAD DUP2 MSTORE PUSH1 0x20 ADD SWAP1 DUP2 MSTORE PUSH1 0x20 ADD PUSH1 0x0 KECCAK256 PUSH1 0x40 MLOAD DUP1 PUSH2 0x160 ADD PUSH1 0x40 MSTORE SWAP1 DUP2 PUSH1 0x0 DUP3 ADD SLOAD DUP2 MSTORE PUSH1 0x20 ADD PUSH1 0x1 DUP3 ADD PUSH1 0x0 SWAP1 SLOAD SWAP1 PUSH2 0x100 EXP SWAP1 DIV PUSH20 0xFFFFFFFFFFFFFFFFFFFFFFFFFFFFFFFFFFFFFFFF AND PUSH20 0xFFFFFFFFFFFFFFFFFFFFFFFFFFFFFFFFFFFFFFFF AND PUSH20 0xFFFFFFFFFFFFFFFFFFFFFFFFFFFFFFFFFFFFFFFF AND DUP2 MSTORE PUSH1 0x20 ADD PUSH1 0x2 DUP3 ADD PUSH1 0x0 SWAP1 SLOAD SWAP1 PUSH2 0x100 EXP SWAP1 DIV PUSH20 0xFFFFFFFFFFFFFFFFFFFFFFFFFFFFFFFFFFFFFFFF AND PUSH20 0xFFFFFFFFFFFFFFFFFFFFFFFFFFFFFFFFFFFFFFFF AND PUSH20 0xFFFFFFFFFFFFFFFFFFFFFFFFFFFFFFFFFFFFFFFF AND DUP2 MSTORE PUSH1 0x20 ADD PUSH1 0x3 DUP3 ADD PUSH1 0x0 SWAP1 SLOAD SWAP1 PUSH2 0x100 EXP SWAP1 DIV PUSH20 0xFFFFFFFFFFFFFFFFFFFFFFFFFFFFFFFFFFFFFFFF AND PUSH20 0xFFFFFFFFFFFFFFFFFFFFFFFFFFFFFFFFFFFFFFFF AND PUSH20 0xFFFFFFFFFFFFFFFFFFFFFFFFFFFFFFFFFFFFFFFF AND DUP2 MSTORE PUSH1 0x20 ADD PUSH1 0x4 DUP3 ADD PUSH1 0x0 SWAP1 SLOAD SWAP1 PUSH2 0x100 EXP SWAP1 DIV PUSH20 0xFFFFFFFFFFFFFFFFFFFFFFFFFFFFFFFFFFFFFFFF AND PUSH20 0xFFFFFFFFFFFFFFFFFFFFFFFFFFFFFFFFFFFFFFFF AND PUSH20 0xFFFFFFFFFFFFFFFFFFFFFFFFFFFFFFFFFFFFFFFF AND DUP2 MSTORE PUSH1 0x20 ADD PUSH1 0x5 DUP3 ADD SLOAD DUP2 MSTORE PUSH1 0x20 ADD PUSH1 0x6 DUP3 ADD SLOAD DUP2 MSTORE PUSH1 0x20 ADD PUSH1 0x7 DUP3 ADD SLOAD DUP2 MSTORE PUSH1 0x20 ADD PUSH1 0x8 DUP3 ADD SLOAD DUP2 MSTORE PUSH1 0x20 ADD PUSH1 0x9 DUP3 ADD SLOAD DUP2 MSTORE PUSH1 0x20 ADD PUSH1 0xA DUP3 ADD SLOAD DUP2 MSTORE POP POP SWAP1 POP PUSH2 0xB0D DUP2 PUSH1 0x40 ADD MLOAD DUP3 PUSH1 0xA0 ADD MLOAD DUP4 PUSH1 0x60 ADD MLOAD PUSH20 0xFFFFFFFFFFFFFFFFFFFFFFFFFFFFFFFFFFFFFFFF AND PUSH2 0x2058 SWAP1 SWAP3 SWAP2 SWAP1 PUSH4 0xFFFFFFFF AND JUMP JUMPDEST PUSH1 0x2 DUP4 DUP2 SLOAD DUP2 LT PUSH2 0xB21 JUMPI PUSH2 0xB20 PUSH2 0x2DF4 JUMP JUMPDEST JUMPDEST SWAP1 PUSH1 0x0 MSTORE PUSH1 0x20 PUSH1 0x0 KECCAK256 SWAP1 PUSH1 0x6 MUL ADD PUSH1 0x0 DUP1 DUP3 ADD PUSH1 0x0 SWAP1 SSTORE PUSH1 0x1 DUP3 ADD PUSH1 0x0 SWAP1 SSTORE PUSH1 0x2 DUP3 ADD PUSH1 0x0 SWAP1 SSTORE PUSH1 0x3 DUP3 ADD PUSH1 0x0 SWAP1 SSTORE PUSH1 0x4 DUP3 ADD PUSH1 0x0 SWAP1 SSTORE PUSH1 0x5 DUP3 ADD PUSH1 0x0 SWAP1 SSTORE POP POP PUSH1 0x4 PUSH1 0x0 DUP4 PUSH1 0x20 ADD MLOAD DUP2 MSTORE PUSH1 0x20 ADD SWAP1 DUP2 MSTORE PUSH1 0x20 ADD PUSH1 0x0 KECCAK256 PUSH1 0x0 SWAP1 SSTORE DUP3 PUSH32 0x652729794A355F8EB8421B2DE81E61CFEBA43988A3A8F664B779B189137BFA60 DUP3 PUSH1 0xA0 ADD MLOAD PUSH1 0x40 MLOAD PUSH2 0xBB1 SWAP2 SWAP1 PUSH2 0x28C3 JUMP JUMPDEST PUSH1 0x40 MLOAD DUP1 SWAP2 SUB SWAP1 LOG2 POP POP POP JUMP JUMPDEST PUSH1 0x7 PUSH1 0x20 MSTORE DUP2 PUSH1 0x0 MSTORE PUSH1 0x40 PUSH1 0x0 KECCAK256 DUP2 DUP2 SLOAD DUP2 LT PUSH2 0xBDA JUMPI PUSH1 0x0 DUP1 REVERT JUMPDEST SWAP1 PUSH1 0x0 MSTORE PUSH1 0x20 PUSH1 0x0 KECCAK256 ADD PUSH1 0x0 SWAP2 POP SWAP2 POP POP SLOAD DUP2 JUMP JUMPDEST PUSH1 0x0 PUSH1 0x2 DUP3 DUP2 SLOAD DUP2 LT PUSH2 0xC05 JUMPI PUSH2 0xC04 PUSH2 0x2DF4 JUMP JUMPDEST JUMPDEST SWAP1 PUSH1 0x0 MSTORE PUSH1 0x20 PUSH1 0x0 KECCAK256 SWAP1 PUSH1 0x6 MUL ADD PUSH1 0x40 MLOAD DUP1 PUSH1 0xC0 ADD PUSH1 0x40 MSTORE SWAP1 DUP2 PUSH1 0x0 DUP3 ADD SLOAD DUP2 MSTORE PUSH1 0x20 ADD PUSH1 0x1 DUP3 ADD SLOAD DUP2 MSTORE PUSH1 0x20 ADD PUSH1 0x2 DUP3 ADD SLOAD DUP2 MSTORE PUSH1 0x20 ADD PUSH1 0x3 DUP3 ADD SLOAD DUP2 MSTORE PUSH1 0x20 ADD PUSH1 0x4 DUP3 ADD SLOAD DUP2 MSTORE PUSH1 0x20 ADD PUSH1 0x5 DUP3 ADD SLOAD DUP2 MSTORE POP POP SWAP1 POP PUSH1 0x0 PUSH1 0x5 PUSH1 0x0 DUP4 PUSH1 0x20 ADD MLOAD DUP2 MSTORE PUSH1 0x20 ADD SWAP1 DUP2 MSTORE PUSH1 0x20 ADD PUSH1 0x0 KECCAK256 PUSH1 0x40 MLOAD DUP1 PUSH2 0x160 ADD PUSH1 0x40 MSTORE SWAP1 DUP2 PUSH1 0x0 DUP3 ADD SLOAD DUP2 MSTORE PUSH1 0x20 ADD PUSH1 0x1 DUP3 ADD PUSH1 0x0 SWAP1 SLOAD SWAP1 PUSH2 0x100 EXP SWAP1 DIV PUSH20 0xFFFFFFFFFFFFFFFFFFFFFFFFFFFFFFFFFFFFFFFF AND PUSH20 0xFFFFFFFFFFFFFFFFFFFFFFFFFFFFFFFFFFFFFFFF AND PUSH20 0xFFFFFFFFFFFFFFFFFFFFFFFFFFFFFFFFFFFFFFFF AND DUP2 MSTORE PUSH1 0x20 ADD PUSH1 0x2 DUP3 ADD PUSH1 0x0 SWAP1 SLOAD SWAP1 PUSH2 0x100 EXP SWAP1 DIV PUSH20 0xFFFFFFFFFFFFFFFFFFFFFFFFFFFFFFFFFFFFFFFF AND PUSH20 0xFFFFFFFFFFFFFFFFFFFFFFFFFFFFFFFFFFFFFFFF AND PUSH20 0xFFFFFFFFFFFFFFFFFFFFFFFFFFFFFFFFFFFFFFFF AND DUP2 MSTORE PUSH1 0x20 ADD PUSH1 0x3 DUP3 ADD PUSH1 0x0 SWAP1 SLOAD SWAP1 PUSH2 0x100 EXP SWAP1 DIV PUSH20 0xFFFFFFFFFFFFFFFFFFFFFFFFFFFFFFFFFFFFFFFF AND PUSH20 0xFFFFFFFFFFFFFFFFFFFFFFFFFFFFFFFFFFFFFFFF AND PUSH20 0xFFFFFFFFFFFFFFFFFFFFFFFFFFFFFFFFFFFFFFFF AND DUP2 MSTORE PUSH1 0x20 ADD PUSH1 0x4 DUP3 ADD PUSH1 0x0 SWAP1 SLOAD SWAP1 PUSH2 0x100 EXP SWAP1 DIV PUSH20 0xFFFFFFFFFFFFFFFFFFFFFFFFFFFFFFFFFFFFFFFF AND PUSH20 0xFFFFFFFFFFFFFFFFFFFFFFFFFFFFFFFFFFFFFFFF AND PUSH20 0xFFFFFFFFFFFFFFFFFFFFFFFFFFFFFFFFFFFFFFFF AND DUP2 MSTORE PUSH1 0x20 ADD PUSH1 0x5 DUP3 ADD SLOAD DUP2 MSTORE PUSH1 0x20 ADD PUSH1 0x6 DUP3 ADD SLOAD DUP2 MSTORE PUSH1 0x20 ADD PUSH1 0x7 DUP3 ADD SLOAD DUP2 MSTORE PUSH1 0x20 ADD PUSH1 0x8 DUP3 ADD SLOAD DUP2 MSTORE PUSH1 0x20 ADD PUSH1 0x9 DUP3 ADD SLOAD DUP2 MSTORE PUSH1 0x20 ADD PUSH1 0xA DUP3 ADD SLOAD DUP2 MSTORE POP POP SWAP1 POP PUSH1 0x0 PUSH1 0x3 DUP3 PUSH2 0x140 ADD MLOAD DUP2 SLOAD DUP2 LT PUSH2 0xE3C JUMPI PUSH2 0xE3B PUSH2 0x2DF4 JUMP JUMPDEST JUMPDEST SWAP1 PUSH1 0x0 MSTORE PUSH1 0x20 PUSH1 0x0 KECCAK256 SWAP1 PUSH1 0x4 MUL ADD PUSH1 0x40 MLOAD DUP1 PUSH1 0x80 ADD PUSH1 0x40 MSTORE SWAP1 DUP2 PUSH1 0x0 DUP3 ADD SLOAD DUP2 MSTORE PUSH1 0x20 ADD PUSH1 0x1 DUP3 ADD SLOAD DUP2 MSTORE PUSH1 0x20 ADD PUSH1 0x2 DUP3 ADD SLOAD DUP2 MSTORE PUSH1 0x20 ADD PUSH1 0x3 DUP3 ADD SLOAD DUP2 MSTORE POP POP SWAP1 POP TIMESTAMP DUP4 PUSH1 0x40 ADD MLOAD DUP5 PUSH1 0x80 ADD MLOAD PUSH2 0xE94 SWAP2 SWAP1 PUSH2 0x2F3F JUMP JUMPDEST GT PUSH2 0xED4 JUMPI PUSH1 0x40 MLOAD PUSH32 0x8C379A000000000000000000000000000000000000000000000000000000000 DUP2 MSTORE PUSH1 0x4 ADD PUSH2 0xECB SWAP1 PUSH2 0x302B JUMP JUMPDEST PUSH1 0x40 MLOAD DUP1 SWAP2 SUB SWAP1 REVERT JUMPDEST PUSH1 0x0 PUSH2 0xEDF DUP6 PUSH2 0x1B60 JUMP JUMPDEST SWAP1 POP PUSH2 0xF12 CALLER ADDRESS DUP4 DUP7 PUSH1 0x80 ADD MLOAD PUSH20 0xFFFFFFFFFFFFFFFFFFFFFFFFFFFFFFFFFFFFFFFF AND PUSH2 0x1FD6 SWAP1 SWAP4 SWAP3 SWAP2 SWAP1 PUSH4 0xFFFFFFFF AND JUMP JUMPDEST PUSH2 0xF45 CALLER DUP5 PUSH1 0xA0 ADD MLOAD DUP6 PUSH1 0x60 ADD MLOAD PUSH20 0xFFFFFFFFFFFFFFFFFFFFFFFFFFFFFFFFFFFFFFFF AND PUSH2 0x2058 SWAP1 SWAP3 SWAP2 SWAP1 PUSH4 0xFFFFFFFF AND JUMP JUMPDEST PUSH1 0x0 PUSH2 0xF60 DUP5 PUSH1 0xE0 ADD MLOAD DUP6 PUSH1 0xC0 ADD MLOAD DUP7 PUSH2 0x100 ADD MLOAD TIMESTAMP PUSH2 0x20D7 JUMP JUMPDEST SWAP1 POP PUSH1 0x0 PUSH3 0xF4240 DUP5 PUSH1 0x0 ADD MLOAD DUP4 DUP8 PUSH1 0xC0 ADD MLOAD PUSH2 0xF7D SWAP2 SWAP1 PUSH2 0x2F3F JUMP JUMPDEST PUSH2 0xF87 SWAP2 SWAP1 PUSH2 0x304B JUMP JUMPDEST PUSH2 0xF91 SWAP2 SWAP1 PUSH2 0x30BC JUMP JUMPDEST SWAP1 POP PUSH1 0x0 DUP4 DUP3 GT PUSH2 0xFA2 JUMPI DUP2 PUSH2 0xFA4 JUMP JUMPDEST DUP4 JUMPDEST SWAP1 POP PUSH1 0x0 DUP2 DUP6 PUSH2 0xFB4 SWAP2 SWAP1 PUSH2 0x30ED JUMP JUMPDEST SWAP1 POP PUSH2 0xFE9 DUP8 PUSH1 0x40 ADD MLOAD DUP4 DUP10 PUSH1 0x80 ADD MLOAD PUSH20 0xFFFFFFFFFFFFFFFFFFFFFFFFFFFFFFFFFFFFFFFF AND PUSH2 0x2058 SWAP1 SWAP3 SWAP2 SWAP1 PUSH4 0xFFFFFFFF AND JUMP JUMPDEST DUP7 PUSH1 0x40 ADD MLOAD PUSH20 0xFFFFFFFFFFFFFFFFFFFFFFFFFFFFFFFFFFFFFFFF AND PUSH4 0xE864FB6 DUP9 DUP5 DUP5 PUSH1 0x40 MLOAD DUP5 PUSH4 0xFFFFFFFF AND PUSH1 0xE0 SHL DUP2 MSTORE PUSH1 0x4 ADD PUSH2 0x102A SWAP4 SWAP3 SWAP2 SWAP1 PUSH2 0x3121 JUMP JUMPDEST PUSH1 0x0 PUSH1 0x40 MLOAD DUP1 DUP4 SUB DUP2 PUSH1 0x0 DUP8 DUP1 EXTCODESIZE ISZERO DUP1 ISZERO PUSH2 0x1044 JUMPI PUSH1 0x0 DUP1 REVERT JUMPDEST POP GAS CALL SWAP3 POP POP POP DUP1 ISZERO PUSH2 0x1055 JUMPI POP PUSH1 0x1 JUMPDEST POP PUSH2 0x1063 DUP8 PUSH1 0x20 ADD MLOAD PUSH2 0x2127 JUMP JUMPDEST ISZERO PUSH2 0x10D6 JUMPI DUP7 PUSH1 0x20 ADD MLOAD PUSH20 0xFFFFFFFFFFFFFFFFFFFFFFFFFFFFFFFFFFFFFFFF AND PUSH4 0xE864FB6 DUP9 DUP5 DUP5 PUSH1 0x40 MLOAD DUP5 PUSH4 0xFFFFFFFF AND PUSH1 0xE0 SHL DUP2 MSTORE PUSH1 0x4 ADD PUSH2 0x10A9 SWAP4 SWAP3 SWAP2 SWAP1 PUSH2 0x3121 JUMP JUMPDEST PUSH1 0x0 PUSH1 0x40 MLOAD DUP1 DUP4 SUB DUP2 PUSH1 0x0 DUP8 DUP1 EXTCODESIZE ISZERO DUP1 ISZERO PUSH2 0x10C3 JUMPI PUSH1 0x0 DUP1 REVERT JUMPDEST POP GAS CALL SWAP3 POP POP POP DUP1 ISZERO PUSH2 0x10D4 JUMPI POP PUSH1 0x1 JUMPDEST POP JUMPDEST PUSH1 0x0 DUP2 GT ISZERO PUSH2 0x1113 JUMPI PUSH2 0x1112 DUP8 PUSH1 0x20 ADD MLOAD DUP3 DUP10 PUSH1 0x80 ADD MLOAD PUSH20 0xFFFFFFFFFFFFFFFFFFFFFFFFFFFFFFFFFFFFFFFF AND PUSH2 0x2058 SWAP1 SWAP3 SWAP2 SWAP1 PUSH4 0xFFFFFFFF AND JUMP JUMPDEST JUMPDEST DUP9 PUSH32 0xC9F72B276A388619C6D185D146697036241880C36654B1A3FFDAD07C24038D99 CALLER DUP8 PUSH1 0x40 MLOAD PUSH2 0x1145 SWAP3 SWAP2 SWAP1 PUSH2 0x315B JUMP JUMPDEST PUSH1 0x40 MLOAD DUP1 SWAP2 SUB SWAP1 LOG2 POP POP POP POP POP POP POP POP POP JUMP JUMPDEST PUSH2 0x1160 PUSH2 0x24E9 JUMP JUMPDEST PUSH1 0x5 PUSH1 0x0 DUP4 DUP2 MSTORE PUSH1 0x20 ADD SWAP1 DUP2 MSTORE PUSH1 0x20 ADD PUSH1 0x0 KECCAK256 PUSH1 0x40 MLOAD DUP1 PUSH2 0x160 ADD PUSH1 0x40 MSTORE SWAP1 DUP2 PUSH1 0x0 DUP3 ADD SLOAD DUP2 MSTORE PUSH1 0x20 ADD PUSH1 0x1 DUP3 ADD PUSH1 0x0 SWAP1 SLOAD SWAP1 PUSH2 0x100 EXP SWAP1 DIV PUSH20 0xFFFFFFFFFFFFFFFFFFFFFFFFFFFFFFFFFFFFFFFF AND PUSH20 0xFFFFFFFFFFFFFFFFFFFFFFFFFFFFFFFFFFFFFFFF AND PUSH20 0xFFFFFFFFFFFFFFFFFFFFFFFFFFFFFFFFFFFFFFFF AND DUP2 MSTORE PUSH1 0x20 ADD PUSH1 0x2 DUP3 ADD PUSH1 0x0 SWAP1 SLOAD SWAP1 PUSH2 0x100 EXP SWAP1 DIV PUSH20 0xFFFFFFFFFFFFFFFFFFFFFFFFFFFFFFFFFFFFFFFF AND PUSH20 0xFFFFFFFFFFFFFFFFFFFFFFFFFFFFFFFFFFFFFFFF AND PUSH20 0xFFFFFFFFFFFFFFFFFFFFFFFFFFFFFFFFFFFFFFFF AND DUP2 MSTORE PUSH1 0x20 ADD PUSH1 0x3 DUP3 ADD PUSH1 0x0 SWAP1 SLOAD SWAP1 PUSH2 0x100 EXP SWAP1 DIV PUSH20 0xFFFFFFFFFFFFFFFFFFFFFFFFFFFFFFFFFFFFFFFF AND PUSH20 0xFFFFFFFFFFFFFFFFFFFFFFFFFFFFFFFFFFFFFFFF AND PUSH20 0xFFFFFFFFFFFFFFFFFFFFFFFFFFFFFFFFFFFFFFFF AND DUP2 MSTORE PUSH1 0x20 ADD PUSH1 0x4 DUP3 ADD PUSH1 0x0 SWAP1 SLOAD SWAP1 PUSH2 0x100 EXP SWAP1 DIV PUSH20 0xFFFFFFFFFFFFFFFFFFFFFFFFFFFFFFFFFFFFFFFF AND PUSH20 0xFFFFFFFFFFFFFFFFFFFFFFFFFFFFFFFFFFFFFFFF AND PUSH20 0xFFFFFFFFFFFFFFFFFFFFFFFFFFFFFFFFFFFFFFFF AND DUP2 MSTORE PUSH1 0x20 ADD PUSH1 0x5 DUP3 ADD SLOAD DUP2 MSTORE PUSH1 0x20 ADD PUSH1 0x6 DUP3 ADD SLOAD DUP2 MSTORE PUSH1 0x20 ADD PUSH1 0x7 DUP3 ADD SLOAD DUP2 MSTORE PUSH1 0x20 ADD PUSH1 0x8 DUP3 ADD SLOAD DUP2 MSTORE PUSH1 0x20 ADD PUSH1 0x9 DUP3 ADD SLOAD DUP2 MSTORE PUSH1 0x20 ADD PUSH1 0xA DUP3 ADD SLOAD DUP2 MSTORE POP POP SWAP1 POP PUSH2 0x1338 DUP2 PUSH1 0xE0 ADD MLOAD DUP3 PUSH1 0xC0 ADD MLOAD DUP4 PUSH2 0x100 ADD MLOAD TIMESTAMP PUSH2 0x20D7 JUMP JUMPDEST DUP2 PUSH1 0xC0 ADD DUP2 DUP2 MLOAD PUSH2 0x1349 SWAP2 SWAP1 PUSH2 0x2F3F JUMP JUMPDEST SWAP2 POP DUP2 DUP2 MSTORE POP POP SWAP2 SWAP1 POP JUMP JUMPDEST PUSH1 0x2 DUP2 DUP2 SLOAD DUP2 LT PUSH2 0x1365 JUMPI PUSH1 0x0 DUP1 REVERT JUMPDEST SWAP1 PUSH1 0x0 MSTORE PUSH1 0x20 PUSH1 0x0 KECCAK256 SWAP1 PUSH1 0x6 MUL ADD PUSH1 0x0 SWAP2 POP SWAP1 POP DUP1 PUSH1 0x0 ADD SLOAD SWAP1 DUP1 PUSH1 0x1 ADD SLOAD SWAP1 DUP1 PUSH1 0x2 ADD SLOAD SWAP1 DUP1 PUSH1 0x3 ADD SLOAD SWAP1 DUP1 PUSH1 0x4 ADD SLOAD SWAP1 DUP1 PUSH1 0x5 ADD SLOAD SWAP1 POP DUP7 JUMP JUMPDEST PUSH1 0x0 PUSH1 0x5 PUSH1 0x0 DUP5 DUP2 MSTORE PUSH1 0x20 ADD SWAP1 DUP2 MSTORE PUSH1 0x20 ADD PUSH1 0x0 KECCAK256 SWAP1 POP CALLER PUSH20 0xFFFFFFFFFFFFFFFFFFFFFFFFFFFFFFFFFFFFFFFF AND DUP2 PUSH1 0x2 ADD PUSH1 0x0 SWAP1 SLOAD SWAP1 PUSH2 0x100 EXP SWAP1 DIV PUSH20 0xFFFFFFFFFFFFFFFFFFFFFFFFFFFFFFFFFFFFFFFF AND PUSH20 0xFFFFFFFFFFFFFFFFFFFFFFFFFFFFFFFFFFFFFFFF AND EQ PUSH2 0x144A JUMPI PUSH1 0x40 MLOAD PUSH32 0x8C379A000000000000000000000000000000000000000000000000000000000 DUP2 MSTORE PUSH1 0x4 ADD PUSH2 0x1441 SWAP1 PUSH2 0x31F6 JUMP JUMPDEST PUSH1 0x40 MLOAD DUP1 SWAP2 SUB SWAP1 REVERT JUMPDEST TIMESTAMP DUP2 PUSH1 0x8 ADD SLOAD DUP3 PUSH1 0x9 ADD SLOAD PUSH2 0x145F SWAP2 SWAP1 PUSH2 0x2F3F JUMP JUMPDEST GT ISZERO PUSH2 0x14A0 JUMPI PUSH1 0x40 MLOAD PUSH32 0x8C379A000000000000000000000000000000000000000000000000000000000 DUP2 MSTORE PUSH1 0x4 ADD PUSH2 0x1497 SWAP1 PUSH2 0x3262 JUMP JUMPDEST PUSH1 0x40 MLOAD DUP1 SWAP2 SUB SWAP1 REVERT JUMPDEST PUSH1 0x0 PUSH2 0x14BA DUP3 PUSH1 0x7 ADD SLOAD DUP4 PUSH1 0x6 ADD SLOAD DUP5 PUSH1 0x8 ADD SLOAD TIMESTAMP PUSH2 0x20D7 JUMP JUMPDEST SWAP1 POP PUSH1 0x0 DUP2 DUP4 PUSH1 0x6 ADD SLOAD PUSH2 0x14CE SWAP2 SWAP1 PUSH2 0x2F3F JUMP JUMPDEST SWAP1 POP DUP1 DUP4 PUSH1 0x6 ADD DUP2 SWAP1 SSTORE POP TIMESTAMP DUP4 PUSH1 0x8 ADD DUP2 SWAP1 SSTORE POP DUP4 DUP4 PUSH1 0x7 ADD DUP2 SWAP1 SSTORE POP PUSH2 0x1518 DUP4 PUSH1 0x1 ADD PUSH1 0x0 SWAP1 SLOAD SWAP1 PUSH2 0x100 EXP SWAP1 DIV PUSH20 0xFFFFFFFFFFFFFFFFFFFFFFFFFFFFFFFFFFFFFFFF AND PUSH2 0x2127 JUMP JUMPDEST ISZERO PUSH2 0x15A9 JUMPI DUP3 PUSH1 0x1 ADD PUSH1 0x0 SWAP1 SLOAD SWAP1 PUSH2 0x100 EXP SWAP1 DIV PUSH20 0xFFFFFFFFFFFFFFFFFFFFFFFFFFFFFFFFFFFFFFFF AND PUSH20 0xFFFFFFFFFFFFFFFFFFFFFFFFFFFFFFFFFFFFFFFF AND PUSH4 0x93DE101 DUP5 DUP7 PUSH1 0x40 MLOAD DUP4 PUSH4 0xFFFFFFFF AND PUSH1 0xE0 SHL DUP2 MSTORE PUSH1 0x4 ADD PUSH2 0x157C SWAP3 SWAP2 SWAP1 PUSH2 0x3480 JUMP JUMPDEST PUSH1 0x0 PUSH1 0x40 MLOAD DUP1 DUP4 SUB DUP2 PUSH1 0x0 DUP8 DUP1 EXTCODESIZE ISZERO DUP1 ISZERO PUSH2 0x1596 JUMPI PUSH1 0x0 DUP1 REVERT JUMPDEST POP GAS CALL SWAP3 POP POP POP DUP1 ISZERO PUSH2 0x15A7 JUMPI POP PUSH1 0x1 JUMPDEST POP JUMPDEST POP POP POP POP POP JUMP JUMPDEST PUSH1 0x0 PUSH1 0x5 PUSH1 0x0 DUP5 DUP2 MSTORE PUSH1 0x20 ADD SWAP1 DUP2 MSTORE PUSH1 0x20 ADD PUSH1 0x0 KECCAK256 PUSH1 0x40 MLOAD DUP1 PUSH2 0x160 ADD PUSH1 0x40 MSTORE SWAP1 DUP2 PUSH1 0x0 DUP3 ADD SLOAD DUP2 MSTORE PUSH1 0x20 ADD PUSH1 0x1 DUP3 ADD PUSH1 0x0 SWAP1 SLOAD SWAP1 PUSH2 0x100 EXP SWAP1 DIV PUSH20 0xFFFFFFFFFFFFFFFFFFFFFFFFFFFFFFFFFFFFFFFF AND PUSH20 0xFFFFFFFFFFFFFFFFFFFFFFFFFFFFFFFFFFFFFFFF AND PUSH20 0xFFFFFFFFFFFFFFFFFFFFFFFFFFFFFFFFFFFFFFFF AND DUP2 MSTORE PUSH1 0x20 ADD PUSH1 0x2 DUP3 ADD PUSH1 0x0 SWAP1 SLOAD SWAP1 PUSH2 0x100 EXP SWAP1 DIV PUSH20 0xFFFFFFFFFFFFFFFFFFFFFFFFFFFFFFFFFFFFFFFF AND PUSH20 0xFFFFFFFFFFFFFFFFFFFFFFFFFFFFFFFFFFFFFFFF AND PUSH20 0xFFFFFFFFFFFFFFFFFFFFFFFFFFFFFFFFFFFFFFFF AND DUP2 MSTORE PUSH1 0x20 ADD PUSH1 0x3 DUP3 ADD PUSH1 0x0 SWAP1 SLOAD SWAP1 PUSH2 0x100 EXP SWAP1 DIV PUSH20 0xFFFFFFFFFFFFFFFFFFFFFFFFFFFFFFFFFFFFFFFF AND PUSH20 0xFFFFFFFFFFFFFFFFFFFFFFFFFFFFFFFFFFFFFFFF AND PUSH20 0xFFFFFFFFFFFFFFFFFFFFFFFFFFFFFFFFFFFFFFFF AND DUP2 MSTORE PUSH1 0x20 ADD PUSH1 0x4 DUP3 ADD PUSH1 0x0 SWAP1 SLOAD SWAP1 PUSH2 0x100 EXP SWAP1 DIV PUSH20 0xFFFFFFFFFFFFFFFFFFFFFFFFFFFFFFFFFFFFFFFF AND PUSH20 0xFFFFFFFFFFFFFFFFFFFFFFFFFFFFFFFFFFFFFFFF AND PUSH20 0xFFFFFFFFFFFFFFFFFFFFFFFFFFFFFFFFFFFFFFFF AND DUP2 MSTORE PUSH1 0x20 ADD PUSH1 0x5 DUP3 ADD SLOAD DUP2 MSTORE PUSH1 0x20 ADD PUSH1 0x6 DUP3 ADD SLOAD DUP2 MSTORE PUSH1 0x20 ADD PUSH1 0x7 DUP3 ADD SLOAD DUP2 MSTORE PUSH1 0x20 ADD PUSH1 0x8 DUP3 ADD SLOAD DUP2 MSTORE PUSH1 0x20 ADD PUSH1 0x9 DUP3 ADD SLOAD DUP2 MSTORE PUSH1 0x20 ADD PUSH1 0xA DUP3 ADD SLOAD DUP2 MSTORE POP POP SWAP1 POP PUSH1 0x0 PUSH2 0x178C DUP3 PUSH1 0xE0 ADD MLOAD DUP4 PUSH1 0xC0 ADD MLOAD DUP5 PUSH2 0x100 ADD MLOAD TIMESTAMP PUSH2 0x20D7 JUMP JUMPDEST SWAP1 POP PUSH1 0x0 DUP2 DUP4 PUSH1 0xC0 ADD MLOAD PUSH2 0x17A0 SWAP2 SWAP1 PUSH2 0x2F3F JUMP JUMPDEST SWAP1 POP PUSH2 0x17D7 DUP5 DUP5 PUSH1 0x40 ADD MLOAD DUP4 DUP7 PUSH1 0x80 ADD MLOAD PUSH20 0xFFFFFFFFFFFFFFFFFFFFFFFFFFFFFFFFFFFFFFFF AND PUSH2 0x1FD6 SWAP1 SWAP4 SWAP3 SWAP2 SWAP1 PUSH4 0xFFFFFFFF AND JUMP JUMPDEST DUP3 PUSH1 0x40 ADD MLOAD PUSH20 0xFFFFFFFFFFFFFFFFFFFFFFFFFFFFFFFFFFFFFFFF AND DUP4 PUSH1 0x20 ADD MLOAD PUSH20 0xFFFFFFFFFFFFFFFFFFFFFFFFFFFFFFFFFFFFFFFF AND DUP7 PUSH32 0x710E531990EA39FBA48230679094C845E457119CEDC84798E6F0E1EB2422AC59 DUP5 PUSH1 0x40 MLOAD PUSH2 0x183D SWAP2 SWAP1 PUSH2 0x28C3 JUMP JUMPDEST PUSH1 0x40 MLOAD DUP1 SWAP2 SUB SWAP1 LOG4 DUP3 PUSH1 0x40 ADD MLOAD PUSH20 0xFFFFFFFFFFFFFFFFFFFFFFFFFFFFFFFFFFFFFFFF AND PUSH4 0xE71D91F DUP5 PUSH1 0x40 MLOAD DUP3 PUSH4 0xFFFFFFFF AND PUSH1 0xE0 SHL DUP2 MSTORE PUSH1 0x4 ADD PUSH2 0x1882 SWAP2 SWAP1 PUSH2 0x2A3C JUMP JUMPDEST PUSH1 0x0 PUSH1 0x40 MLOAD DUP1 DUP4 SUB DUP2 PUSH1 0x0 DUP8 DUP1 EXTCODESIZE ISZERO DUP1 ISZERO PUSH2 0x189C JUMPI PUSH1 0x0 DUP1 REVERT JUMPDEST POP GAS CALL SWAP3 POP POP POP DUP1 ISZERO PUSH2 0x18AD JUMPI POP PUSH1 0x1 JUMPDEST POP PUSH1 0x0 DUP4 PUSH2 0x120 ADD MLOAD SUB PUSH2 0x1924 JUMPI PUSH1 0x2 PUSH1 0x4 PUSH1 0x0 DUP8 DUP2 MSTORE PUSH1 0x20 ADD SWAP1 DUP2 MSTORE PUSH1 0x20 ADD PUSH1 0x0 KECCAK256 SLOAD DUP2 SLOAD DUP2 LT PUSH2 0x18E2 JUMPI PUSH2 0x18E1 PUSH2 0x2DF4 JUMP JUMPDEST JUMPDEST SWAP1 PUSH1 0x0 MSTORE PUSH1 0x20 PUSH1 0x0 KECCAK256 SWAP1 PUSH1 0x6 MUL ADD PUSH1 0x0 DUP1 DUP3 ADD PUSH1 0x0 SWAP1 SSTORE PUSH1 0x1 DUP3 ADD PUSH1 0x0 SWAP1 SSTORE PUSH1 0x2 DUP3 ADD PUSH1 0x0 SWAP1 SSTORE PUSH1 0x3 DUP3 ADD PUSH1 0x0 SWAP1 SSTORE PUSH1 0x4 DUP3 ADD PUSH1 0x0 SWAP1 SSTORE PUSH1 0x5 DUP3 ADD PUSH1 0x0 SWAP1 SSTORE POP POP JUMPDEST POP POP POP POP POP JUMP JUMPDEST PUSH1 0x0 PUSH1 0x5 PUSH1 0x0 DUP5 DUP2 MSTORE PUSH1 0x20 ADD SWAP1 DUP2 MSTORE PUSH1 0x20 ADD PUSH1 0x0 KECCAK256 SWAP1 POP CALLER PUSH20 0xFFFFFFFFFFFFFFFFFFFFFFFFFFFFFFFFFFFFFFFF AND DUP2 PUSH1 0x2 ADD PUSH1 0x0 SWAP1 SLOAD SWAP1 PUSH2 0x100 EXP SWAP1 DIV PUSH20 0xFFFFFFFFFFFFFFFFFFFFFFFFFFFFFFFFFFFFFFFF AND PUSH20 0xFFFFFFFFFFFFFFFFFFFFFFFFFFFFFFFFFFFFFFFF AND EQ PUSH2 0x19D4 JUMPI PUSH1 0x40 MLOAD PUSH32 0x8C379A000000000000000000000000000000000000000000000000000000000 DUP2 MSTORE PUSH1 0x4 ADD PUSH2 0x19CB SWAP1 PUSH2 0x351D JUMP JUMPDEST PUSH1 0x40 MLOAD DUP1 SWAP2 SUB SWAP1 REVERT JUMPDEST DUP2 DUP2 PUSH1 0x1 ADD PUSH1 0x0 PUSH2 0x100 EXP DUP2 SLOAD DUP2 PUSH20 0xFFFFFFFFFFFFFFFFFFFFFFFFFFFFFFFFFFFFFFFF MUL NOT AND SWAP1 DUP4 PUSH20 0xFFFFFFFFFFFFFFFFFFFFFFFFFFFFFFFFFFFFFFFF AND MUL OR SWAP1 SSTORE POP POP POP POP JUMP JUMPDEST PUSH1 0x4 PUSH1 0x20 MSTORE DUP1 PUSH1 0x0 MSTORE PUSH1 0x40 PUSH1 0x0 KECCAK256 PUSH1 0x0 SWAP2 POP SWAP1 POP SLOAD DUP2 JUMP JUMPDEST PUSH1 0x0 PUSH1 0x3 DUP3 SWAP1 DUP1 PUSH1 0x1 DUP2 SLOAD ADD DUP1 DUP3 SSTORE DUP1 SWAP2 POP POP PUSH1 0x1 SWAP1 SUB SWAP1 PUSH1 0x0 MSTORE PUSH1 0x20 PUSH1 0x0 KECCAK256 SWAP1 PUSH1 0x4 MUL ADD PUSH1 0x0 SWAP1 SWAP2 SWAP1 SWAP2 SWAP1 SWAP2 POP PUSH1 0x0 DUP3 ADD MLOAD DUP2 PUSH1 0x0 ADD SSTORE PUSH1 0x20 DUP3 ADD MLOAD DUP2 PUSH1 0x1 ADD SSTORE PUSH1 0x40 DUP3 ADD MLOAD DUP2 PUSH1 0x2 ADD SSTORE PUSH1 0x60 DUP3 ADD MLOAD DUP2 PUSH1 0x3 ADD SSTORE POP POP PUSH32 0xA2C2679A578A75705566F226E5E44ABEF52A51EADDED9A83173775AE871BC8BE PUSH1 0x1 PUSH1 0x3 DUP1 SLOAD SWAP1 POP PUSH2 0x1ABF SWAP2 SWAP1 PUSH2 0x30ED JUMP JUMPDEST DUP4 PUSH1 0x40 MLOAD PUSH2 0x1ACE SWAP3 SWAP2 SWAP1 PUSH2 0x3592 JUMP JUMPDEST PUSH1 0x40 MLOAD DUP1 SWAP2 SUB SWAP1 LOG1 PUSH1 0x1 PUSH1 0x3 DUP1 SLOAD SWAP1 POP PUSH2 0x1AE8 SWAP2 SWAP1 PUSH2 0x30ED JUMP JUMPDEST SWAP1 POP SWAP2 SWAP1 POP JUMP JUMPDEST PUSH2 0x1AF9 DUP2 CALLER PUSH2 0x15B0 JUMP JUMPDEST POP JUMP JUMPDEST PUSH1 0x3 DUP2 DUP2 SLOAD DUP2 LT PUSH2 0x1B0C JUMPI PUSH1 0x0 DUP1 REVERT JUMPDEST SWAP1 PUSH1 0x0 MSTORE PUSH1 0x20 PUSH1 0x0 KECCAK256 SWAP1 PUSH1 0x4 MUL ADD PUSH1 0x0 SWAP2 POP SWAP1 POP DUP1 PUSH1 0x0 ADD SLOAD SWAP1 DUP1 PUSH1 0x1 ADD SLOAD SWAP1 DUP1 PUSH1 0x2 ADD SLOAD SWAP1 DUP1 PUSH1 0x3 ADD SLOAD SWAP1 POP DUP5 JUMP JUMPDEST PUSH1 0x1 DUP2 DUP2 SLOAD DUP2 LT PUSH2 0x1B4C JUMPI PUSH1 0x0 DUP1 REVERT JUMPDEST SWAP1 PUSH1 0x0 MSTORE PUSH1 0x20 PUSH1 0x0 KECCAK256 ADD PUSH1 0x0 SWAP2 POP SWAP1 POP SLOAD DUP2 JUMP JUMPDEST PUSH1 0x0 DUP1 PUSH1 0x2 DUP4 DUP2 SLOAD DUP2 LT PUSH2 0x1B77 JUMPI PUSH2 0x1B76 PUSH2 0x2DF4 JUMP JUMPDEST JUMPDEST SWAP1 PUSH1 0x0 MSTORE PUSH1 0x20 PUSH1 0x0 KECCAK256 SWAP1 PUSH1 0x6 MUL ADD PUSH1 0x40 MLOAD DUP1 PUSH1 0xC0 ADD PUSH1 0x40 MSTORE SWAP1 DUP2 PUSH1 0x0 DUP3 ADD SLOAD DUP2 MSTORE PUSH1 0x20 ADD PUSH1 0x1 DUP3 ADD SLOAD DUP2 MSTORE PUSH1 0x20 ADD PUSH1 0x2 DUP3 ADD SLOAD DUP2 MSTORE PUSH1 0x20 ADD PUSH1 0x3 DUP3 ADD SLOAD DUP2 MSTORE PUSH1 0x20 ADD PUSH1 0x4 DUP3 ADD SLOAD DUP2 MSTORE PUSH1 0x20 ADD PUSH1 0x5 DUP3 ADD SLOAD DUP2 MSTORE POP POP SWAP1 POP PUSH1 0x0 DUP2 PUSH1 0x60 ADD MLOAD SWAP1 POP PUSH1 0x0 DUP3 PUSH1 0xA0 ADD MLOAD SWAP1 POP PUSH1 0x0 DUP4 PUSH1 0x80 ADD MLOAD SWAP1 POP PUSH1 0x0 DUP5 PUSH1 0x40 ADD MLOAD SWAP1 POP DUP1 DUP3 PUSH2 0x1BFE SWAP2 SWAP1 PUSH2 0x2F3F JUMP JUMPDEST TIMESTAMP LT PUSH2 0x1C11 JUMPI DUP3 SWAP6 POP POP POP POP POP POP PUSH2 0x1C68 JUMP JUMPDEST PUSH1 0x0 DUP3 TIMESTAMP PUSH2 0x1C1F SWAP2 SWAP1 PUSH2 0x30ED JUMP JUMPDEST SWAP1 POP PUSH1 0x0 DUP2 DUP4 PUSH2 0x1C2F SWAP2 SWAP1 PUSH2 0x30ED JUMP JUMPDEST SWAP1 POP DUP1 DUP3 DUP7 DUP9 PUSH2 0x1C3F SWAP2 SWAP1 PUSH2 0x30ED JUMP JUMPDEST PUSH2 0x1C49 SWAP2 SWAP1 PUSH2 0x304B JUMP JUMPDEST PUSH2 0x1C53 SWAP2 SWAP1 PUSH2 0x30BC JUMP JUMPDEST DUP7 PUSH2 0x1C5E SWAP2 SWAP1 PUSH2 0x30ED JUMP JUMPDEST SWAP8 POP POP POP POP POP POP POP POP JUMPDEST SWAP2 SWAP1 POP JUMP JUMPDEST PUSH1 0x0 PUSH1 0x5 PUSH1 0x0 DUP4 DUP2 MSTORE PUSH1 0x20 ADD SWAP1 DUP2 MSTORE PUSH1 0x20 ADD PUSH1 0x0 KECCAK256 SWAP1 POP CALLER PUSH20 0xFFFFFFFFFFFFFFFFFFFFFFFFFFFFFFFFFFFFFFFF AND DUP2 PUSH1 0x2 ADD PUSH1 0x0 SWAP1 SLOAD SWAP1 PUSH2 0x100 EXP SWAP1 DIV PUSH20 0xFFFFFFFFFFFFFFFFFFFFFFFFFFFFFFFFFFFFFFFF AND PUSH20 0xFFFFFFFFFFFFFFFFFFFFFFFFFFFFFFFFFFFFFFFF AND EQ PUSH2 0x1D16 JUMPI PUSH1 0x40 MLOAD PUSH32 0x8C379A000000000000000000000000000000000000000000000000000000000 DUP2 MSTORE PUSH1 0x4 ADD PUSH2 0x1D0D SWAP1 PUSH2 0x3607 JUMP JUMPDEST PUSH1 0x40 MLOAD DUP1 SWAP2 SUB SWAP1 REVERT JUMPDEST TIMESTAMP DUP2 PUSH1 0x8 ADD SLOAD DUP3 PUSH1 0x9 ADD SLOAD PUSH2 0x1D2B SWAP2 SWAP1 PUSH2 0x2F3F JUMP JUMPDEST GT DUP1 PUSH2 0x1D5A JUMPI POP PUSH32 0xFFFFFFFFFFFFFFFFFFFFFFFFFFFFFFFFFFFFFFFFFFFFFFFFFFFFFFFFFFFFFFFF DUP2 PUSH1 0x9 ADD SLOAD EQ JUMPDEST ISZERO PUSH2 0x1D9A JUMPI PUSH1 0x40 MLOAD PUSH32 0x8C379A000000000000000000000000000000000000000000000000000000000 DUP2 MSTORE PUSH1 0x4 ADD PUSH2 0x1D91 SWAP1 PUSH2 0x3699 JUMP JUMPDEST PUSH1 0x40 MLOAD DUP1 SWAP2 SUB SWAP1 REVERT JUMPDEST PUSH1 0x0 PUSH2 0x1DB4 DUP3 PUSH1 0x7 ADD SLOAD DUP4 PUSH1 0x6 ADD SLOAD DUP5 PUSH1 0x8 ADD SLOAD TIMESTAMP PUSH2 0x20D7 JUMP JUMPDEST SWAP1 POP PUSH1 0x0 DUP2 DUP4 PUSH1 0x6 ADD SLOAD PUSH2 0x1DC8 SWAP2 SWAP1 PUSH2 0x2F3F JUMP JUMPDEST SWAP1 POP PUSH2 0x1DDA DUP5 DUP3 DUP5 DUP7 PUSH1 0xA ADD SLOAD PUSH2 0x213A JUMP JUMPDEST PUSH32 0xFFFFFFFFFFFFFFFFFFFFFFFFFFFFFFFFFFFFFFFFFFFFFFFFFFFFFFFFFFFFFFFF DUP4 PUSH1 0x9 ADD DUP2 SWAP1 SSTORE POP PUSH2 0x1E30 DUP4 PUSH1 0x1 ADD PUSH1 0x0 SWAP1 SLOAD SWAP1 PUSH2 0x100 EXP SWAP1 DIV PUSH20 0xFFFFFFFFFFFFFFFFFFFFFFFFFFFFFFFFFFFFFFFF AND PUSH2 0x2127 JUMP JUMPDEST ISZERO PUSH2 0x1EBF JUMPI DUP3 PUSH1 0x1 ADD PUSH1 0x0 SWAP1 SLOAD SWAP1 PUSH2 0x100 EXP SWAP1 DIV PUSH20 0xFFFFFFFFFFFFFFFFFFFFFFFFFFFFFFFFFFFFFFFF AND PUSH20 0xFFFFFFFFFFFFFFFFFFFFFFFFFFFFFFFFFFFFFFFF AND PUSH4 0xAEE307B2 DUP5 PUSH1 0x40 MLOAD DUP3 PUSH4 0xFFFFFFFF AND PUSH1 0xE0 SHL DUP2 MSTORE PUSH1 0x4 ADD PUSH2 0x1E92 SWAP2 SWAP1 PUSH2 0x36B9 JUMP JUMPDEST PUSH1 0x0 PUSH1 0x40 MLOAD DUP1 DUP4 SUB DUP2 PUSH1 0x0 DUP8 DUP1 EXTCODESIZE ISZERO DUP1 ISZERO PUSH2 0x1EAC JUMPI PUSH1 0x0 DUP1 REVERT JUMPDEST POP GAS CALL SWAP3 POP POP POP DUP1 ISZERO PUSH2 0x1EBD JUMPI POP PUSH1 0x1 JUMPDEST POP JUMPDEST POP POP POP POP JUMP JUMPDEST PUSH1 0x0 SLOAD DUP2 JUMP JUMPDEST PUSH1 0x5 PUSH1 0x20 MSTORE DUP1 PUSH1 0x0 MSTORE PUSH1 0x40 PUSH1 0x0 KECCAK256 PUSH1 0x0 SWAP2 POP SWAP1 POP DUP1 PUSH1 0x0 ADD SLOAD SWAP1 DUP1 PUSH1 0x1 ADD PUSH1 0x0 SWAP1 SLOAD SWAP1 PUSH2 0x100 EXP SWAP1 DIV PUSH20 0xFFFFFFFFFFFFFFFFFFFFFFFFFFFFFFFFFFFFFFFF AND SWAP1 DUP1 PUSH1 0x2 ADD PUSH1 0x0 SWAP1 SLOAD SWAP1 PUSH2 0x100 EXP SWAP1 DIV PUSH20 0xFFFFFFFFFFFFFFFFFFFFFFFFFFFFFFFFFFFFFFFF AND SWAP1 DUP1 PUSH1 0x3 ADD PUSH1 0x0 SWAP1 SLOAD SWAP1 PUSH2 0x100 EXP SWAP1 DIV PUSH20 0xFFFFFFFFFFFFFFFFFFFFFFFFFFFFFFFFFFFFFFFF AND SWAP1 DUP1 PUSH1 0x4 ADD PUSH1 0x0 SWAP1 SLOAD SWAP1 PUSH2 0x100 EXP SWAP1 DIV PUSH20 0xFFFFFFFFFFFFFFFFFFFFFFFFFFFFFFFFFFFFFFFF AND SWAP1 DUP1 PUSH1 0x5 ADD SLOAD SWAP1 DUP1 PUSH1 0x6 ADD SLOAD SWAP1 DUP1 PUSH1 0x7 ADD SLOAD SWAP1 DUP1 PUSH1 0x8 ADD SLOAD SWAP1 DUP1 PUSH1 0x9 ADD SLOAD SWAP1 DUP1 PUSH1 0xA ADD SLOAD SWAP1 POP DUP12 JUMP JUMPDEST PUSH1 0x6 PUSH1 0x20 MSTORE DUP2 PUSH1 0x0 MSTORE PUSH1 0x40 PUSH1 0x0 KECCAK256 DUP2 DUP2 SLOAD DUP2 LT PUSH2 0x1FC1 JUMPI PUSH1 0x0 DUP1 REVERT JUMPDEST SWAP1 PUSH1 0x0 MSTORE PUSH1 0x20 PUSH1 0x0 KECCAK256 ADD PUSH1 0x0 SWAP2 POP SWAP2 POP POP SLOAD DUP2 JUMP JUMPDEST PUSH2 0x2052 DUP5 DUP6 PUSH20 0xFFFFFFFFFFFFFFFFFFFFFFFFFFFFFFFFFFFFFFFF AND PUSH4 0x23B872DD DUP7 DUP7 DUP7 PUSH1 0x40 MLOAD PUSH1 0x24 ADD PUSH2 0x200B SWAP4 SWAP3 SWAP2 SWAP1 PUSH2 0x36D5 JUMP JUMPDEST PUSH1 0x40 MLOAD PUSH1 0x20 DUP2 DUP4 SUB SUB DUP2 MSTORE SWAP1 PUSH1 0x40 MSTORE SWAP2 POP PUSH1 0xE0 SHL PUSH1 0x20 DUP3 ADD DUP1 MLOAD PUSH28 0xFFFFFFFFFFFFFFFFFFFFFFFFFFFFFFFFFFFFFFFFFFFFFFFFFFFFFFFF DUP4 DUP2 DUP4 AND OR DUP4 MSTORE POP POP POP POP PUSH2 0x229B JUMP JUMPDEST POP POP POP POP JUMP JUMPDEST PUSH2 0x20D2 DUP4 DUP5 PUSH20 0xFFFFFFFFFFFFFFFFFFFFFFFFFFFFFFFFFFFFFFFF AND PUSH4 0xA9059CBB DUP6 DUP6 PUSH1 0x40 MLOAD PUSH1 0x24 ADD PUSH2 0x208B SWAP3 SWAP2 SWAP1 PUSH2 0x315B JUMP JUMPDEST PUSH1 0x40 MLOAD PUSH1 0x20 DUP2 DUP4 SUB SUB DUP2 MSTORE SWAP1 PUSH1 0x40 MSTORE SWAP2 POP PUSH1 0xE0 SHL PUSH1 0x20 DUP3 ADD DUP1 MLOAD PUSH28 0xFFFFFFFFFFFFFFFFFFFFFFFFFFFFFFFFFFFFFFFFFFFFFFFFFFFFFFFF DUP4 DUP2 DUP4 AND OR DUP4 MSTORE POP POP POP POP PUSH2 0x229B JUMP JUMPDEST POP POP POP JUMP JUMPDEST PUSH1 0x0 DUP1 DUP4 DUP4 PUSH2 0x20E6 SWAP2 SWAP1 PUSH2 0x30ED JUMP JUMPDEST SWAP1 POP PUSH3 0xF4240 PUSH4 0x1E13380 PUSH2 0x20FB SWAP2 SWAP1 PUSH2 0x304B JUMP JUMPDEST DUP2 DUP7 DUP9 PUSH2 0x2108 SWAP2 SWAP1 PUSH2 0x304B JUMP JUMPDEST PUSH2 0x2112 SWAP2 SWAP1 PUSH2 0x304B JUMP JUMPDEST PUSH2 0x211C SWAP2 SWAP1 PUSH2 0x30BC JUMP JUMPDEST SWAP2 POP POP SWAP5 SWAP4 POP POP POP POP JUMP JUMPDEST PUSH1 0x0 DUP1 DUP3 EXTCODESIZE SWAP1 POP PUSH1 0x0 DUP2 GT SWAP2 POP POP SWAP2 SWAP1 POP JUMP JUMPDEST PUSH1 0x0 PUSH1 0x3 DUP3 DUP2 SLOAD DUP2 LT PUSH2 0x2150 JUMPI PUSH2 0x214F PUSH2 0x2DF4 JUMP JUMPDEST JUMPDEST SWAP1 PUSH1 0x0 MSTORE PUSH1 0x20 PUSH1 0x0 KECCAK256 SWAP1 PUSH1 0x4 MUL ADD PUSH1 0x40 MLOAD DUP1 PUSH1 0x80 ADD PUSH1 0x40 MSTORE SWAP1 DUP2 PUSH1 0x0 DUP3 ADD SLOAD DUP2 MSTORE PUSH1 0x20 ADD PUSH1 0x1 DUP3 ADD SLOAD DUP2 MSTORE PUSH1 0x20 ADD PUSH1 0x2 DUP3 ADD SLOAD DUP2 MSTORE PUSH1 0x20 ADD PUSH1 0x3 DUP3 ADD SLOAD DUP2 MSTORE POP POP SWAP1 POP PUSH1 0x0 PUSH3 0xF4240 DUP3 PUSH1 0x20 ADD MLOAD DUP6 DUP8 PUSH2 0x21AA SWAP2 SWAP1 PUSH2 0x2F3F JUMP JUMPDEST PUSH2 0x21B4 SWAP2 SWAP1 PUSH2 0x304B JUMP JUMPDEST PUSH2 0x21BE SWAP2 SWAP1 PUSH2 0x30BC JUMP JUMPDEST SWAP1 POP PUSH1 0x0 PUSH3 0xF4240 DUP4 PUSH1 0x40 ADD MLOAD PUSH2 0x21D5 SWAP2 SWAP1 PUSH2 0x304B JUMP JUMPDEST DUP6 DUP8 PUSH2 0x21E1 SWAP2 SWAP1 PUSH2 0x304B JUMP JUMPDEST PUSH2 0x21EB SWAP2 SWAP1 PUSH2 0x30BC JUMP JUMPDEST SWAP1 POP PUSH1 0x0 PUSH1 0x40 MLOAD DUP1 PUSH1 0xC0 ADD PUSH1 0x40 MSTORE DUP1 PUSH1 0x2 DUP1 SLOAD SWAP1 POP DUP2 MSTORE PUSH1 0x20 ADD DUP10 DUP2 MSTORE PUSH1 0x20 ADD DUP6 PUSH1 0x60 ADD MLOAD DUP2 MSTORE PUSH1 0x20 ADD DUP5 DUP2 MSTORE PUSH1 0x20 ADD TIMESTAMP DUP2 MSTORE PUSH1 0x20 ADD DUP4 DUP2 MSTORE POP SWAP1 POP PUSH1 0x2 DUP2 SWAP1 DUP1 PUSH1 0x1 DUP2 SLOAD ADD DUP1 DUP3 SSTORE DUP1 SWAP2 POP POP PUSH1 0x1 SWAP1 SUB SWAP1 PUSH1 0x0 MSTORE PUSH1 0x20 PUSH1 0x0 KECCAK256 SWAP1 PUSH1 0x6 MUL ADD PUSH1 0x0 SWAP1 SWAP2 SWAP1 SWAP2 SWAP1 SWAP2 POP PUSH1 0x0 DUP3 ADD MLOAD DUP2 PUSH1 0x0 ADD SSTORE PUSH1 0x20 DUP3 ADD MLOAD DUP2 PUSH1 0x1 ADD SSTORE PUSH1 0x40 DUP3 ADD MLOAD DUP2 PUSH1 0x2 ADD SSTORE PUSH1 0x60 DUP3 ADD MLOAD DUP2 PUSH1 0x3 ADD SSTORE PUSH1 0x80 DUP3 ADD MLOAD DUP2 PUSH1 0x4 ADD SSTORE PUSH1 0xA0 DUP3 ADD MLOAD DUP2 PUSH1 0x5 ADD SSTORE POP POP POP POP POP POP POP POP POP POP JUMP JUMPDEST PUSH1 0x0 PUSH2 0x22C6 DUP3 DUP5 PUSH20 0xFFFFFFFFFFFFFFFFFFFFFFFFFFFFFFFFFFFFFFFF AND PUSH2 0x2332 SWAP1 SWAP2 SWAP1 PUSH4 0xFFFFFFFF AND JUMP JUMPDEST SWAP1 POP PUSH1 0x0 DUP2 MLOAD EQ ISZERO DUP1 ISZERO PUSH2 0x22EB JUMPI POP DUP1 DUP1 PUSH1 0x20 ADD SWAP1 MLOAD DUP2 ADD SWAP1 PUSH2 0x22E9 SWAP2 SWAP1 PUSH2 0x2E95 JUMP JUMPDEST ISZERO JUMPDEST ISZERO PUSH2 0x232D JUMPI DUP3 PUSH1 0x40 MLOAD PUSH32 0x5274AFE700000000000000000000000000000000000000000000000000000000 DUP2 MSTORE PUSH1 0x4 ADD PUSH2 0x2324 SWAP2 SWAP1 PUSH2 0x370C JUMP JUMPDEST PUSH1 0x40 MLOAD DUP1 SWAP2 SUB SWAP1 REVERT JUMPDEST POP POP POP JUMP JUMPDEST PUSH1 0x60 PUSH2 0x2340 DUP4 DUP4 PUSH1 0x0 PUSH2 0x2348 JUMP JUMPDEST SWAP1 POP SWAP3 SWAP2 POP POP JUMP JUMPDEST PUSH1 0x60 DUP2 SELFBALANCE LT ISZERO PUSH2 0x238F JUMPI ADDRESS PUSH1 0x40 MLOAD PUSH32 0xCD78605900000000000000000000000000000000000000000000000000000000 DUP2 MSTORE PUSH1 0x4 ADD PUSH2 0x2386 SWAP2 SWAP1 PUSH2 0x370C JUMP JUMPDEST PUSH1 0x40 MLOAD DUP1 SWAP2 SUB SWAP1 REVERT JUMPDEST PUSH1 0x0 DUP1 DUP6 PUSH20 0xFFFFFFFFFFFFFFFFFFFFFFFFFFFFFFFFFFFFFFFF AND DUP5 DUP7 PUSH1 0x40 MLOAD PUSH2 0x23B8 SWAP2 SWAP1 PUSH2 0x3798 JUMP JUMPDEST PUSH1 0x0 PUSH1 0x40 MLOAD DUP1 DUP4 SUB DUP2 DUP6 DUP8 GAS CALL SWAP3 POP POP POP RETURNDATASIZE DUP1 PUSH1 0x0 DUP2 EQ PUSH2 0x23F5 JUMPI PUSH1 0x40 MLOAD SWAP2 POP PUSH1 0x1F NOT PUSH1 0x3F RETURNDATASIZE ADD AND DUP3 ADD PUSH1 0x40 MSTORE RETURNDATASIZE DUP3 MSTORE RETURNDATASIZE PUSH1 0x0 PUSH1 0x20 DUP5 ADD RETURNDATACOPY PUSH2 0x23FA JUMP JUMPDEST PUSH1 0x60 SWAP2 POP JUMPDEST POP SWAP2 POP SWAP2 POP PUSH2 0x240A DUP7 DUP4 DUP4 PUSH2 0x2415 JUMP JUMPDEST SWAP3 POP POP POP SWAP4 SWAP3 POP POP POP JUMP JUMPDEST PUSH1 0x60 DUP3 PUSH2 0x242A JUMPI PUSH2 0x2425 DUP3 PUSH2 0x24A4 JUMP JUMPDEST PUSH2 0x249C JUMP JUMPDEST PUSH1 0x0 DUP3 MLOAD EQ DUP1 ISZERO PUSH2 0x2452 JUMPI POP PUSH1 0x0 DUP5 PUSH20 0xFFFFFFFFFFFFFFFFFFFFFFFFFFFFFFFFFFFFFFFF AND EXTCODESIZE EQ JUMPDEST ISZERO PUSH2 0x2494 JUMPI DUP4 PUSH1 0x40 MLOAD PUSH32 0x9996B31500000000000000000000000000000000000000000000000000000000 DUP2 MSTORE PUSH1 0x4 ADD PUSH2 0x248B SWAP2 SWAP1 PUSH2 0x370C JUMP JUMPDEST PUSH1 0x40 MLOAD DUP1 SWAP2 SUB SWAP1 REVERT JUMPDEST DUP2 SWAP1 POP PUSH2 0x249D JUMP JUMPDEST JUMPDEST SWAP4 SWAP3 POP POP POP JUMP JUMPDEST PUSH1 0x0 DUP2 MLOAD GT ISZERO PUSH2 0x24B7 JUMPI DUP1 MLOAD DUP1 DUP3 PUSH1 0x20 ADD REVERT JUMPDEST PUSH1 0x40 MLOAD PUSH32 0x1425EA4200000000000000000000000000000000000000000000000000000000 DUP2 MSTORE PUSH1 0x4 ADD PUSH1 0x40 MLOAD DUP1 SWAP2 SUB SWAP1 REVERT JUMPDEST PUSH1 0x40 MLOAD DUP1 PUSH2 0x160 ADD PUSH1 0x40 MSTORE DUP1 PUSH1 0x0 DUP2 MSTORE PUSH1 0x20 ADD PUSH1 0x0 PUSH20 0xFFFFFFFFFFFFFFFFFFFFFFFFFFFFFFFFFFFFFFFF AND DUP2 MSTORE PUSH1 0x20 ADD PUSH1 0x0 PUSH20 0xFFFFFFFFFFFFFFFFFFFFFFFFFFFFFFFFFFFFFFFF AND DUP2 MSTORE PUSH1 0x20 ADD PUSH1 0x0 PUSH20 0xFFFFFFFFFFFFFFFFFFFFFFFFFFFFFFFFFFFFFFFF AND DUP2 MSTORE PUSH1 0x20 ADD PUSH1 0x0 PUSH20 0xFFFFFFFFFFFFFFFFFFFFFFFFFFFFFFFFFFFFFFFF AND DUP2 MSTORE PUSH1 0x20 ADD PUSH1 0x0 DUP2 MSTORE PUSH1 0x20 ADD PUSH1 0x0 DUP2 MSTORE PUSH1 0x20 ADD PUSH1 0x0 DUP2 MSTORE PUSH1 0x20 ADD PUSH1 0x0 DUP2 MSTORE PUSH1 0x20 ADD PUSH1 0x0 DUP2 MSTORE PUSH1 0x20 ADD PUSH1 0x0 DUP2 MSTORE POP SWAP1 JUMP JUMPDEST PUSH1 0x0 PUSH1 0x40 MLOAD SWAP1 POP SWAP1 JUMP JUMPDEST PUSH1 0x0 DUP1 REVERT JUMPDEST PUSH1 0x0 PUSH20 0xFFFFFFFFFFFFFFFFFFFFFFFFFFFFFFFFFFFFFFFF DUP3 AND SWAP1 POP SWAP2 SWAP1 POP JUMP JUMPDEST PUSH1 0x0 PUSH2 0x25D5 DUP3 PUSH2 0x25AA JUMP JUMPDEST SWAP1 POP SWAP2 SWAP1 POP JUMP JUMPDEST PUSH2 0x25E5 DUP2 PUSH2 0x25CA JUMP JUMPDEST DUP2 EQ PUSH2 0x25F0 JUMPI PUSH1 0x0 DUP1 REVERT JUMPDEST POP JUMP JUMPDEST PUSH1 0x0 DUP2 CALLDATALOAD SWAP1 POP PUSH2 0x2602 DUP2 PUSH2 0x25DC JUMP JUMPDEST SWAP3 SWAP2 POP POP JUMP JUMPDEST PUSH1 0x0 PUSH2 0x2613 DUP3 PUSH2 0x25CA JUMP JUMPDEST SWAP1 POP SWAP2 SWAP1 POP JUMP JUMPDEST PUSH2 0x2623 DUP2 PUSH2 0x2608 JUMP JUMPDEST DUP2 EQ PUSH2 0x262E JUMPI PUSH1 0x0 DUP1 REVERT JUMPDEST POP JUMP JUMPDEST PUSH1 0x0 DUP2 CALLDATALOAD SWAP1 POP PUSH2 0x2640 DUP2 PUSH2 0x261A JUMP JUMPDEST SWAP3 SWAP2 POP POP JUMP JUMPDEST PUSH1 0x0 DUP2 SWAP1 POP SWAP2 SWAP1 POP JUMP JUMPDEST PUSH2 0x2659 DUP2 PUSH2 0x2646 JUMP JUMPDEST DUP2 EQ PUSH2 0x2664 JUMPI PUSH1 0x0 DUP1 REVERT JUMPDEST POP JUMP JUMPDEST PUSH1 0x0 DUP2 CALLDATALOAD SWAP1 POP PUSH2 0x2676 DUP2 PUSH2 0x2650 JUMP JUMPDEST SWAP3 SWAP2 POP POP JUMP JUMPDEST PUSH1 0x0 DUP1 PUSH1 0x0 DUP1 PUSH1 0x0 DUP1 PUSH1 0x0 DUP1 PUSH2 0x100 DUP10 DUP12 SUB SLT ISZERO PUSH2 0x269D JUMPI PUSH2 0x269C PUSH2 0x25A5 JUMP JUMPDEST JUMPDEST PUSH1 0x0 PUSH2 0x26AB DUP12 DUP3 DUP13 ADD PUSH2 0x25F3 JUMP JUMPDEST SWAP9 POP POP PUSH1 0x20 PUSH2 0x26BC DUP12 DUP3 DUP13 ADD PUSH2 0x2631 JUMP JUMPDEST SWAP8 POP POP PUSH1 0x40 PUSH2 0x26CD DUP12 DUP3 DUP13 ADD PUSH2 0x2631 JUMP JUMPDEST SWAP7 POP POP PUSH1 0x60 PUSH2 0x26DE DUP12 DUP3 DUP13 ADD PUSH2 0x2667 JUMP JUMPDEST SWAP6 POP POP PUSH1 0x80 PUSH2 0x26EF DUP12 DUP3 DUP13 ADD PUSH2 0x2667 JUMP JUMPDEST SWAP5 POP POP PUSH1 0xA0 PUSH2 0x2700 DUP12 DUP3 DUP13 ADD PUSH2 0x2667 JUMP JUMPDEST SWAP4 POP POP PUSH1 0xC0 PUSH2 0x2711 DUP12 DUP3 DUP13 ADD PUSH2 0x2667 JUMP JUMPDEST SWAP3 POP POP PUSH1 0xE0 PUSH2 0x2722 DUP12 DUP3 DUP13 ADD PUSH2 0x2667 JUMP JUMPDEST SWAP2 POP POP SWAP3 SWAP6 SWAP9 POP SWAP3 SWAP6 SWAP9 SWAP1 SWAP4 SWAP7 POP JUMP JUMPDEST PUSH1 0x0 DUP2 SWAP1 POP SWAP2 SWAP1 POP JUMP JUMPDEST PUSH2 0x2745 DUP2 PUSH2 0x2732 JUMP JUMPDEST DUP2 EQ PUSH2 0x2750 JUMPI PUSH1 0x0 DUP1 REVERT JUMPDEST POP JUMP JUMPDEST PUSH1 0x0 DUP2 CALLDATALOAD SWAP1 POP PUSH2 0x2762 DUP2 PUSH2 0x273C JUMP JUMPDEST SWAP3 SWAP2 POP POP JUMP JUMPDEST PUSH1 0x0 DUP1 PUSH1 0x0 DUP1 PUSH1 0x0 DUP1 PUSH1 0x0 DUP1 PUSH1 0x0 DUP1 PUSH2 0x140 DUP12 DUP14 SUB SLT ISZERO PUSH2 0x278C JUMPI PUSH2 0x278B PUSH2 0x25A5 JUMP JUMPDEST JUMPDEST PUSH1 0x0 PUSH2 0x279A DUP14 DUP3 DUP15 ADD PUSH2 0x25F3 JUMP JUMPDEST SWAP11 POP POP PUSH1 0x20 PUSH2 0x27AB DUP14 DUP3 DUP15 ADD PUSH2 0x25F3 JUMP JUMPDEST SWAP10 POP POP PUSH1 0x40 PUSH2 0x27BC DUP14 DUP3 DUP15 ADD PUSH2 0x2631 JUMP JUMPDEST SWAP9 POP POP PUSH1 0x60 PUSH2 0x27CD DUP14 DUP3 DUP15 ADD PUSH2 0x2631 JUMP JUMPDEST SWAP8 POP POP PUSH1 0x80 PUSH2 0x27DE DUP14 DUP3 DUP15 ADD PUSH2 0x2667 JUMP JUMPDEST SWAP7 POP POP PUSH1 0xA0 PUSH2 0x27EF DUP14 DUP3 DUP15 ADD PUSH2 0x2667 JUMP JUMPDEST SWAP6 POP POP PUSH1 0xC0 PUSH2 0x2800 DUP14 DUP3 DUP15 ADD PUSH2 0x2667 JUMP JUMPDEST SWAP5 POP POP PUSH1 0xE0 PUSH2 0x2811 DUP14 DUP3 DUP15 ADD PUSH2 0x2667 JUMP JUMPDEST SWAP4 POP POP PUSH2 0x100 PUSH2 0x2823 DUP14 DUP3 DUP15 ADD PUSH2 0x2667 JUMP JUMPDEST SWAP3 POP POP PUSH2 0x120 PUSH2 0x2835 DUP14 DUP3 DUP15 ADD PUSH2 0x2753 JUMP JUMPDEST SWAP2 POP POP SWAP3 SWAP6 SWAP9 SWAP12 SWAP2 SWAP5 SWAP8 SWAP11 POP SWAP3 SWAP6 SWAP9 POP JUMP JUMPDEST PUSH1 0x0 PUSH1 0x20 DUP3 DUP5 SUB SLT ISZERO PUSH2 0x285D JUMPI PUSH2 0x285C PUSH2 0x25A5 JUMP JUMPDEST JUMPDEST PUSH1 0x0 PUSH2 0x286B DUP5 DUP3 DUP6 ADD PUSH2 0x2667 JUMP JUMPDEST SWAP2 POP POP SWAP3 SWAP2 POP POP JUMP JUMPDEST PUSH1 0x0 DUP1 PUSH1 0x40 DUP4 DUP6 SUB SLT ISZERO PUSH2 0x288B JUMPI PUSH2 0x288A PUSH2 0x25A5 JUMP JUMPDEST JUMPDEST PUSH1 0x0 PUSH2 0x2899 DUP6 DUP3 DUP7 ADD PUSH2 0x25F3 JUMP JUMPDEST SWAP3 POP POP PUSH1 0x20 PUSH2 0x28AA DUP6 DUP3 DUP7 ADD PUSH2 0x2667 JUMP JUMPDEST SWAP2 POP POP SWAP3 POP SWAP3 SWAP1 POP JUMP JUMPDEST PUSH2 0x28BD DUP2 PUSH2 0x2646 JUMP JUMPDEST DUP3 MSTORE POP POP JUMP JUMPDEST PUSH1 0x0 PUSH1 0x20 DUP3 ADD SWAP1 POP PUSH2 0x28D8 PUSH1 0x0 DUP4 ADD DUP5 PUSH2 0x28B4 JUMP JUMPDEST SWAP3 SWAP2 POP POP JUMP JUMPDEST PUSH2 0x28E7 DUP2 PUSH2 0x2646 JUMP JUMPDEST DUP3 MSTORE POP POP JUMP JUMPDEST PUSH2 0x28F6 DUP2 PUSH2 0x25CA JUMP JUMPDEST DUP3 MSTORE POP POP JUMP JUMPDEST PUSH1 0x0 DUP2 SWAP1 POP SWAP2 SWAP1 POP JUMP JUMPDEST PUSH1 0x0 PUSH2 0x2921 PUSH2 0x291C PUSH2 0x2917 DUP5 PUSH2 0x25AA JUMP JUMPDEST PUSH2 0x28FC JUMP JUMPDEST PUSH2 0x25AA JUMP JUMPDEST SWAP1 POP SWAP2 SWAP1 POP JUMP JUMPDEST PUSH1 0x0 PUSH2 0x2933 DUP3 PUSH2 0x2906 JUMP JUMPDEST SWAP1 POP SWAP2 SWAP1 POP JUMP JUMPDEST PUSH1 0x0 PUSH2 0x2945 DUP3 PUSH2 0x2928 JUMP JUMPDEST SWAP1 POP SWAP2 SWAP1 POP JUMP JUMPDEST PUSH2 0x2955 DUP2 PUSH2 0x293A JUMP JUMPDEST DUP3 MSTORE POP POP JUMP JUMPDEST PUSH2 0x160 DUP3 ADD PUSH1 0x0 DUP3 ADD MLOAD PUSH2 0x2972 PUSH1 0x0 DUP6 ADD DUP3 PUSH2 0x28DE JUMP JUMPDEST POP PUSH1 0x20 DUP3 ADD MLOAD PUSH2 0x2985 PUSH1 0x20 DUP6 ADD DUP3 PUSH2 0x28ED JUMP JUMPDEST POP PUSH1 0x40 DUP3 ADD MLOAD PUSH2 0x2998 PUSH1 0x40 DUP6 ADD DUP3 PUSH2 0x28ED JUMP JUMPDEST POP PUSH1 0x60 DUP3 ADD MLOAD PUSH2 0x29AB PUSH1 0x60 DUP6 ADD DUP3 PUSH2 0x294C JUMP JUMPDEST POP PUSH1 0x80 DUP3 ADD MLOAD PUSH2 0x29BE PUSH1 0x80 DUP6 ADD DUP3 PUSH2 0x294C JUMP JUMPDEST POP PUSH1 0xA0 DUP3 ADD MLOAD PUSH2 0x29D1 PUSH1 0xA0 DUP6 ADD DUP3 PUSH2 0x28DE JUMP JUMPDEST POP PUSH1 0xC0 DUP3 ADD MLOAD PUSH2 0x29E4 PUSH1 0xC0 DUP6 ADD DUP3 PUSH2 0x28DE JUMP JUMPDEST POP PUSH1 0xE0 DUP3 ADD MLOAD PUSH2 0x29F7 PUSH1 0xE0 DUP6 ADD DUP3 PUSH2 0x28DE JUMP JUMPDEST POP PUSH2 0x100 DUP3 ADD MLOAD PUSH2 0x2A0C PUSH2 0x100 DUP6 ADD DUP3 PUSH2 0x28DE JUMP JUMPDEST POP PUSH2 0x120 DUP3 ADD MLOAD PUSH2 0x2A21 PUSH2 0x120 DUP6 ADD DUP3 PUSH2 0x28DE JUMP JUMPDEST POP PUSH2 0x140 DUP3 ADD MLOAD PUSH2 0x2A36 PUSH2 0x140 DUP6 ADD DUP3 PUSH2 0x28DE JUMP JUMPDEST POP POP POP POP JUMP JUMPDEST PUSH1 0x0 PUSH2 0x160 DUP3 ADD SWAP1 POP PUSH2 0x2A52 PUSH1 0x0 DUP4 ADD DUP5 PUSH2 0x295B JUMP JUMPDEST SWAP3 SWAP2 POP POP JUMP JUMPDEST PUSH1 0x0 PUSH1 0xC0 DUP3 ADD SWAP1 POP PUSH2 0x2A6D PUSH1 0x0 DUP4 ADD DUP10 PUSH2 0x28B4 JUMP JUMPDEST PUSH2 0x2A7A PUSH1 0x20 DUP4 ADD DUP9 PUSH2 0x28B4 JUMP JUMPDEST PUSH2 0x2A87 PUSH1 0x40 DUP4 ADD DUP8 PUSH2 0x28B4 JUMP JUMPDEST PUSH2 0x2A94 PUSH1 0x60 DUP4 ADD DUP7 PUSH2 0x28B4 JUMP JUMPDEST PUSH2 0x2AA1 PUSH1 0x80 DUP4 ADD DUP6 PUSH2 0x28B4 JUMP JUMPDEST PUSH2 0x2AAE PUSH1 0xA0 DUP4 ADD DUP5 PUSH2 0x28B4 JUMP JUMPDEST SWAP8 SWAP7 POP POP POP POP POP POP POP JUMP JUMPDEST PUSH1 0x0 DUP1 PUSH1 0x40 DUP4 DUP6 SUB SLT ISZERO PUSH2 0x2AD0 JUMPI PUSH2 0x2ACF PUSH2 0x25A5 JUMP JUMPDEST JUMPDEST PUSH1 0x0 PUSH2 0x2ADE DUP6 DUP3 DUP7 ADD PUSH2 0x2667 JUMP JUMPDEST SWAP3 POP POP PUSH1 0x20 PUSH2 0x2AEF DUP6 DUP3 DUP7 ADD PUSH2 0x2667 JUMP JUMPDEST SWAP2 POP POP SWAP3 POP SWAP3 SWAP1 POP JUMP JUMPDEST PUSH1 0x0 DUP1 PUSH1 0x40 DUP4 DUP6 SUB SLT ISZERO PUSH2 0x2B10 JUMPI PUSH2 0x2B0F PUSH2 0x25A5 JUMP JUMPDEST JUMPDEST PUSH1 0x0 PUSH2 0x2B1E DUP6 DUP3 DUP7 ADD PUSH2 0x2667 JUMP JUMPDEST SWAP3 POP POP PUSH1 0x20 PUSH2 0x2B2F DUP6 DUP3 DUP7 ADD PUSH2 0x25F3 JUMP JUMPDEST SWAP2 POP POP SWAP3 POP SWAP3 SWAP1 POP JUMP JUMPDEST PUSH1 0x0 DUP1 REVERT JUMPDEST PUSH1 0x0 PUSH1 0x1F NOT PUSH1 0x1F DUP4 ADD AND SWAP1 POP SWAP2 SWAP1 POP JUMP JUMPDEST PUSH32 0x4E487B7100000000000000000000000000000000000000000000000000000000 PUSH1 0x0 MSTORE PUSH1 0x41 PUSH1 0x4 MSTORE PUSH1 0x24 PUSH1 0x0 REVERT JUMPDEST PUSH2 0x2B87 DUP3 PUSH2 0x2B3E JUMP JUMPDEST DUP2 ADD DUP2 DUP2 LT PUSH8 0xFFFFFFFFFFFFFFFF DUP3 GT OR ISZERO PUSH2 0x2BA6 JUMPI PUSH2 0x2BA5 PUSH2 0x2B4F JUMP JUMPDEST JUMPDEST DUP1 PUSH1 0x40 MSTORE POP POP POP JUMP JUMPDEST PUSH1 0x0 PUSH2 0x2BB9 PUSH2 0x259B JUMP JUMPDEST SWAP1 POP PUSH2 0x2BC5 DUP3 DUP3 PUSH2 0x2B7E JUMP JUMPDEST SWAP2 SWAP1 POP JUMP JUMPDEST PUSH1 0x0 PUSH1 0x80 DUP3 DUP5 SUB SLT ISZERO PUSH2 0x2BE0 JUMPI PUSH2 0x2BDF PUSH2 0x2B39 JUMP JUMPDEST JUMPDEST PUSH2 0x2BEA PUSH1 0x80 PUSH2 0x2BAF JUMP JUMPDEST SWAP1 POP PUSH1 0x0 PUSH2 0x2BFA DUP5 DUP3 DUP6 ADD PUSH2 0x2667 JUMP JUMPDEST PUSH1 0x0 DUP4 ADD MSTORE POP PUSH1 0x20 PUSH2 0x2C0E DUP5 DUP3 DUP6 ADD PUSH2 0x2667 JUMP JUMPDEST PUSH1 0x20 DUP4 ADD MSTORE POP PUSH1 0x40 PUSH2 0x2C22 DUP5 DUP3 DUP6 ADD PUSH2 0x2667 JUMP JUMPDEST PUSH1 0x40 DUP4 ADD MSTORE POP PUSH1 0x60 PUSH2 0x2C36 DUP5 DUP3 DUP6 ADD PUSH2 0x2667 JUMP JUMPDEST PUSH1 0x60 DUP4 ADD MSTORE POP SWAP3 SWAP2 POP POP JUMP JUMPDEST PUSH1 0x0 PUSH1 0x80 DUP3 DUP5 SUB SLT ISZERO PUSH2 0x2C58 JUMPI PUSH2 0x2C57 PUSH2 0x25A5 JUMP JUMPDEST JUMPDEST PUSH1 0x0 PUSH2 0x2C66 DUP5 DUP3 DUP6 ADD PUSH2 0x2BCA JUMP JUMPDEST SWAP2 POP POP SWAP3 SWAP2 POP POP JUMP JUMPDEST PUSH1 0x0 PUSH1 0x80 DUP3 ADD SWAP1 POP PUSH2 0x2C84 PUSH1 0x0 DUP4 ADD DUP8 PUSH2 0x28B4 JUMP JUMPDEST PUSH2 0x2C91 PUSH1 0x20 DUP4 ADD DUP7 PUSH2 0x28B4 JUMP JUMPDEST PUSH2 0x2C9E PUSH1 0x40 DUP4 ADD DUP6 PUSH2 0x28B4 JUMP JUMPDEST PUSH2 0x2CAB PUSH1 0x60 DUP4 ADD DUP5 PUSH2 0x28B4 JUMP JUMPDEST SWAP6 SWAP5 POP POP POP POP POP JUMP JUMPDEST PUSH2 0x2CBD DUP2 PUSH2 0x25CA JUMP JUMPDEST DUP3 MSTORE POP POP JUMP JUMPDEST PUSH2 0x2CCC DUP2 PUSH2 0x293A JUMP JUMPDEST DUP3 MSTORE POP POP JUMP JUMPDEST PUSH1 0x0 PUSH2 0x160 DUP3 ADD SWAP1 POP PUSH2 0x2CE8 PUSH1 0x0 DUP4 ADD DUP15 PUSH2 0x28B4 JUMP JUMPDEST PUSH2 0x2CF5 PUSH1 0x20 DUP4 ADD DUP14 PUSH2 0x2CB4 JUMP JUMPDEST PUSH2 0x2D02 PUSH1 0x40 DUP4 ADD DUP13 PUSH2 0x2CB4 JUMP JUMPDEST PUSH2 0x2D0F PUSH1 0x60 DUP4 ADD DUP12 PUSH2 0x2CC3 JUMP JUMPDEST PUSH2 0x2D1C PUSH1 0x80 DUP4 ADD DUP11 PUSH2 0x2CC3 JUMP JUMPDEST PUSH2 0x2D29 PUSH1 0xA0 DUP4 ADD DUP10 PUSH2 0x28B4 JUMP JUMPDEST PUSH2 0x2D36 PUSH1 0xC0 DUP4 ADD DUP9 PUSH2 0x28B4 JUMP JUMPDEST PUSH2 0x2D43 PUSH1 0xE0 DUP4 ADD DUP8 PUSH2 0x28B4 JUMP JUMPDEST PUSH2 0x2D51 PUSH2 0x100 DUP4 ADD DUP7 PUSH2 0x28B4 JUMP JUMPDEST PUSH2 0x2D5F PUSH2 0x120 DUP4 ADD DUP6 PUSH2 0x28B4 JUMP JUMPDEST PUSH2 0x2D6D PUSH2 0x140 DUP4 ADD DUP5 PUSH2 0x28B4 JUMP JUMPDEST SWAP13 SWAP12 POP POP POP POP POP POP POP POP POP POP POP POP JUMP JUMPDEST PUSH32 0x4E487B7100000000000000000000000000000000000000000000000000000000 PUSH1 0x0 MSTORE PUSH1 0x11 PUSH1 0x4 MSTORE PUSH1 0x24 PUSH1 0x0 REVERT JUMPDEST PUSH1 0x0 PUSH2 0x2DB7 DUP3 PUSH2 0x2646 JUMP JUMPDEST SWAP2 POP PUSH32 0xFFFFFFFFFFFFFFFFFFFFFFFFFFFFFFFFFFFFFFFFFFFFFFFFFFFFFFFFFFFFFFFF DUP3 SUB PUSH2 0x2DE9 JUMPI PUSH2 0x2DE8 PUSH2 0x2D7D JUMP JUMPDEST JUMPDEST PUSH1 0x1 DUP3 ADD SWAP1 POP SWAP2 SWAP1 POP JUMP JUMPDEST PUSH32 0x4E487B7100000000000000000000000000000000000000000000000000000000 PUSH1 0x0 MSTORE PUSH1 0x32 PUSH1 0x4 MSTORE PUSH1 0x24 PUSH1 0x0 REVERT JUMPDEST PUSH2 0x2E2C DUP2 PUSH2 0x2732 JUMP JUMPDEST DUP3 MSTORE POP POP JUMP JUMPDEST PUSH1 0x0 PUSH2 0x180 DUP3 ADD SWAP1 POP PUSH2 0x2E48 PUSH1 0x0 DUP4 ADD DUP6 PUSH2 0x295B JUMP JUMPDEST PUSH2 0x2E56 PUSH2 0x160 DUP4 ADD DUP5 PUSH2 0x2E23 JUMP JUMPDEST SWAP4 SWAP3 POP POP POP JUMP JUMPDEST PUSH1 0x0 DUP2 ISZERO ISZERO SWAP1 POP SWAP2 SWAP1 POP JUMP JUMPDEST PUSH2 0x2E72 DUP2 PUSH2 0x2E5D JUMP JUMPDEST DUP2 EQ PUSH2 0x2E7D JUMPI PUSH1 0x0 DUP1 REVERT JUMPDEST POP JUMP JUMPDEST PUSH1 0x0 DUP2 MLOAD SWAP1 POP PUSH2 0x2E8F DUP2 PUSH2 0x2E69 JUMP JUMPDEST SWAP3 SWAP2 POP POP JUMP JUMPDEST PUSH1 0x0 PUSH1 0x20 DUP3 DUP5 SUB SLT ISZERO PUSH2 0x2EAB JUMPI PUSH2 0x2EAA PUSH2 0x25A5 JUMP JUMPDEST JUMPDEST PUSH1 0x0 PUSH2 0x2EB9 DUP5 DUP3 DUP6 ADD PUSH2 0x2E80 JUMP JUMPDEST SWAP2 POP POP SWAP3 SWAP2 POP POP JUMP JUMPDEST PUSH1 0x0 DUP3 DUP3 MSTORE PUSH1 0x20 DUP3 ADD SWAP1 POP SWAP3 SWAP2 POP POP JUMP JUMPDEST PUSH32 0x4C6F616E206E6F74207665726966696564000000000000000000000000000000 PUSH1 0x0 DUP3 ADD MSTORE POP JUMP JUMPDEST PUSH1 0x0 PUSH2 0x2F09 PUSH1 0x11 DUP4 PUSH2 0x2EC2 JUMP JUMPDEST SWAP2 POP PUSH2 0x2F14 DUP3 PUSH2 0x2ED3 JUMP JUMPDEST PUSH1 0x20 DUP3 ADD SWAP1 POP SWAP2 SWAP1 POP JUMP JUMPDEST PUSH1 0x0 PUSH1 0x20 DUP3 ADD SWAP1 POP DUP2 DUP2 SUB PUSH1 0x0 DUP4 ADD MSTORE PUSH2 0x2F38 DUP2 PUSH2 0x2EFC JUMP JUMPDEST SWAP1 POP SWAP2 SWAP1 POP JUMP JUMPDEST PUSH1 0x0 PUSH2 0x2F4A DUP3 PUSH2 0x2646 JUMP JUMPDEST SWAP2 POP PUSH2 0x2F55 DUP4 PUSH2 0x2646 JUMP JUMPDEST SWAP3 POP DUP3 DUP3 ADD SWAP1 POP DUP1 DUP3 GT ISZERO PUSH2 0x2F6D JUMPI PUSH2 0x2F6C PUSH2 0x2D7D JUMP JUMPDEST JUMPDEST SWAP3 SWAP2 POP POP JUMP JUMPDEST PUSH32 0x41756374696F6E20686173206E6F7420656E6465640000000000000000000000 PUSH1 0x0 DUP3 ADD MSTORE POP JUMP JUMPDEST PUSH1 0x0 PUSH2 0x2FA9 PUSH1 0x15 DUP4 PUSH2 0x2EC2 JUMP JUMPDEST SWAP2 POP PUSH2 0x2FB4 DUP3 PUSH2 0x2F73 JUMP JUMPDEST PUSH1 0x20 DUP3 ADD SWAP1 POP SWAP2 SWAP1 POP JUMP JUMPDEST PUSH1 0x0 PUSH1 0x20 DUP3 ADD SWAP1 POP DUP2 DUP2 SUB PUSH1 0x0 DUP4 ADD MSTORE PUSH2 0x2FD8 DUP2 PUSH2 0x2F9C JUMP JUMPDEST SWAP1 POP SWAP2 SWAP1 POP JUMP JUMPDEST PUSH32 0x41756374696F6E2068617320656E646564000000000000000000000000000000 PUSH1 0x0 DUP3 ADD MSTORE POP JUMP JUMPDEST PUSH1 0x0 PUSH2 0x3015 PUSH1 0x11 DUP4 PUSH2 0x2EC2 JUMP JUMPDEST SWAP2 POP PUSH2 0x3020 DUP3 PUSH2 0x2FDF JUMP JUMPDEST PUSH1 0x20 DUP3 ADD SWAP1 POP SWAP2 SWAP1 POP JUMP JUMPDEST PUSH1 0x0 PUSH1 0x20 DUP3 ADD SWAP1 POP DUP2 DUP2 SUB PUSH1 0x0 DUP4 ADD MSTORE PUSH2 0x3044 DUP2 PUSH2 0x3008 JUMP JUMPDEST SWAP1 POP SWAP2 SWAP1 POP JUMP JUMPDEST PUSH1 0x0 PUSH2 0x3056 DUP3 PUSH2 0x2646 JUMP JUMPDEST SWAP2 POP PUSH2 0x3061 DUP4 PUSH2 0x2646 JUMP JUMPDEST SWAP3 POP DUP3 DUP3 MUL PUSH2 0x306F DUP2 PUSH2 0x2646 JUMP JUMPDEST SWAP2 POP DUP3 DUP3 DIV DUP5 EQ DUP4 ISZERO OR PUSH2 0x3086 JUMPI PUSH2 0x3085 PUSH2 0x2D7D JUMP JUMPDEST JUMPDEST POP SWAP3 SWAP2 POP POP JUMP JUMPDEST PUSH32 0x4E487B7100000000000000000000000000000000000000000000000000000000 PUSH1 0x0 MSTORE PUSH1 0x12 PUSH1 0x4 MSTORE PUSH1 0x24 PUSH1 0x0 REVERT JUMPDEST PUSH1 0x0 PUSH2 0x30C7 DUP3 PUSH2 0x2646 JUMP JUMPDEST SWAP2 POP PUSH2 0x30D2 DUP4 PUSH2 0x2646 JUMP JUMPDEST SWAP3 POP DUP3 PUSH2 0x30E2 JUMPI PUSH2 0x30E1 PUSH2 0x308D JUMP JUMPDEST JUMPDEST DUP3 DUP3 DIV SWAP1 POP SWAP3 SWAP2 POP POP JUMP JUMPDEST PUSH1 0x0 PUSH2 0x30F8 DUP3 PUSH2 0x2646 JUMP JUMPDEST SWAP2 POP PUSH2 0x3103 DUP4 PUSH2 0x2646 JUMP JUMPDEST SWAP3 POP DUP3 DUP3 SUB SWAP1 POP DUP2 DUP2 GT ISZERO PUSH2 0x311B JUMPI PUSH2 0x311A PUSH2 0x2D7D JUMP JUMPDEST JUMPDEST SWAP3 SWAP2 POP POP JUMP JUMPDEST PUSH1 0x0 PUSH2 0x1A0 DUP3 ADD SWAP1 POP PUSH2 0x3137 PUSH1 0x0 DUP4 ADD DUP7 PUSH2 0x295B JUMP JUMPDEST PUSH2 0x3145 PUSH2 0x160 DUP4 ADD DUP6 PUSH2 0x28B4 JUMP JUMPDEST PUSH2 0x3153 PUSH2 0x180 DUP4 ADD DUP5 PUSH2 0x28B4 JUMP JUMPDEST SWAP5 SWAP4 POP POP POP POP JUMP JUMPDEST PUSH1 0x0 PUSH1 0x40 DUP3 ADD SWAP1 POP PUSH2 0x3170 PUSH1 0x0 DUP4 ADD DUP6 PUSH2 0x2CB4 JUMP JUMPDEST PUSH2 0x317D PUSH1 0x20 DUP4 ADD DUP5 PUSH2 0x28B4 JUMP JUMPDEST SWAP4 SWAP3 POP POP POP JUMP JUMPDEST PUSH32 0x4F6E6C79206C656E6465722063616E20726562616C616E636520746865207261 PUSH1 0x0 DUP3 ADD MSTORE PUSH32 0x7465000000000000000000000000000000000000000000000000000000000000 PUSH1 0x20 DUP3 ADD MSTORE POP JUMP JUMPDEST PUSH1 0x0 PUSH2 0x31E0 PUSH1 0x22 DUP4 PUSH2 0x2EC2 JUMP JUMPDEST SWAP2 POP PUSH2 0x31EB DUP3 PUSH2 0x3184 JUMP JUMPDEST PUSH1 0x40 DUP3 ADD SWAP1 POP SWAP2 SWAP1 POP JUMP JUMPDEST PUSH1 0x0 PUSH1 0x20 DUP3 ADD SWAP1 POP DUP2 DUP2 SUB PUSH1 0x0 DUP4 ADD MSTORE PUSH2 0x320F DUP2 PUSH2 0x31D3 JUMP JUMPDEST SWAP1 POP SWAP2 SWAP1 POP JUMP JUMPDEST PUSH32 0x4C6F616E206E6F74207965742061646A75737461626C65000000000000000000 PUSH1 0x0 DUP3 ADD MSTORE POP JUMP JUMPDEST PUSH1 0x0 PUSH2 0x324C PUSH1 0x17 DUP4 PUSH2 0x2EC2 JUMP JUMPDEST SWAP2 POP PUSH2 0x3257 DUP3 PUSH2 0x3216 JUMP JUMPDEST PUSH1 0x20 DUP3 ADD SWAP1 POP SWAP2 SWAP1 POP JUMP JUMPDEST PUSH1 0x0 PUSH1 0x20 DUP3 ADD SWAP1 POP DUP2 DUP2 SUB PUSH1 0x0 DUP4 ADD MSTORE PUSH2 0x327B DUP2 PUSH2 0x323F JUMP JUMPDEST SWAP1 POP SWAP2 SWAP1 POP JUMP JUMPDEST PUSH1 0x0 DUP2 PUSH1 0x0 SHR SWAP1 POP SWAP2 SWAP1 POP JUMP JUMPDEST PUSH1 0x0 DUP2 SWAP1 POP SWAP2 SWAP1 POP JUMP JUMPDEST PUSH1 0x0 PUSH2 0x32AC PUSH2 0x32A7 DUP4 PUSH2 0x3282 JUMP JUMPDEST PUSH2 0x328F JUMP JUMPDEST SWAP1 POP SWAP2 SWAP1 POP JUMP JUMPDEST PUSH1 0x0 PUSH20 0xFFFFFFFFFFFFFFFFFFFFFFFFFFFFFFFFFFFFFFFF DUP3 AND SWAP1 POP SWAP2 SWAP1 POP JUMP JUMPDEST PUSH1 0x0 PUSH2 0x32E6 PUSH2 0x32E1 DUP4 PUSH2 0x3282 JUMP JUMPDEST PUSH2 0x32B3 JUMP JUMPDEST SWAP1 POP SWAP2 SWAP1 POP JUMP JUMPDEST PUSH1 0x0 PUSH20 0xFFFFFFFFFFFFFFFFFFFFFFFFFFFFFFFFFFFFFFFF DUP3 AND SWAP1 POP SWAP2 SWAP1 POP JUMP JUMPDEST PUSH1 0x0 PUSH2 0x3320 PUSH2 0x331B DUP4 PUSH2 0x3282 JUMP JUMPDEST PUSH2 0x32ED JUMP JUMPDEST SWAP1 POP SWAP2 SWAP1 POP JUMP JUMPDEST PUSH2 0x160 DUP3 ADD PUSH1 0x0 DUP1 DUP4 ADD SLOAD SWAP1 POP PUSH2 0x333D DUP2 PUSH2 0x3299 JUMP JUMPDEST PUSH2 0x334A PUSH1 0x0 DUP7 ADD DUP3 PUSH2 0x28DE JUMP JUMPDEST POP PUSH1 0x1 DUP4 ADD SLOAD SWAP1 POP PUSH2 0x335B DUP2 PUSH2 0x32D3 JUMP JUMPDEST PUSH2 0x3368 PUSH1 0x20 DUP7 ADD DUP3 PUSH2 0x28ED JUMP JUMPDEST POP PUSH1 0x2 DUP4 ADD SLOAD SWAP1 POP PUSH2 0x3379 DUP2 PUSH2 0x32D3 JUMP JUMPDEST PUSH2 0x3386 PUSH1 0x40 DUP7 ADD DUP3 PUSH2 0x28ED JUMP JUMPDEST POP PUSH1 0x3 DUP4 ADD SLOAD SWAP1 POP PUSH2 0x3397 DUP2 PUSH2 0x330D JUMP JUMPDEST PUSH2 0x33A4 PUSH1 0x60 DUP7 ADD DUP3 PUSH2 0x294C JUMP JUMPDEST POP PUSH1 0x4 DUP4 ADD SLOAD SWAP1 POP PUSH2 0x33B5 DUP2 PUSH2 0x330D JUMP JUMPDEST PUSH2 0x33C2 PUSH1 0x80 DUP7 ADD DUP3 PUSH2 0x294C JUMP JUMPDEST POP PUSH1 0x5 DUP4 ADD SLOAD SWAP1 POP PUSH2 0x33D3 DUP2 PUSH2 0x3299 JUMP JUMPDEST PUSH2 0x33E0 PUSH1 0xA0 DUP7 ADD DUP3 PUSH2 0x28DE JUMP JUMPDEST POP PUSH1 0x6 DUP4 ADD SLOAD SWAP1 POP PUSH2 0x33F1 DUP2 PUSH2 0x3299 JUMP JUMPDEST PUSH2 0x33FE PUSH1 0xC0 DUP7 ADD DUP3 PUSH2 0x28DE JUMP JUMPDEST POP PUSH1 0x7 DUP4 ADD SLOAD SWAP1 POP PUSH2 0x340F DUP2 PUSH2 0x3299 JUMP JUMPDEST PUSH2 0x341C PUSH1 0xE0 DUP7 ADD DUP3 PUSH2 0x28DE JUMP JUMPDEST POP PUSH1 0x8 DUP4 ADD SLOAD SWAP1 POP PUSH2 0x342D DUP2 PUSH2 0x3299 JUMP JUMPDEST PUSH2 0x343B PUSH2 0x100 DUP7 ADD DUP3 PUSH2 0x28DE JUMP JUMPDEST POP PUSH1 0x9 DUP4 ADD SLOAD SWAP1 POP PUSH2 0x344C DUP2 PUSH2 0x3299 JUMP JUMPDEST PUSH2 0x345A PUSH2 0x120 DUP7 ADD DUP3 PUSH2 0x28DE JUMP JUMPDEST POP PUSH1 0xA DUP4 ADD SLOAD SWAP1 POP PUSH2 0x346B DUP2 PUSH2 0x3299 JUMP JUMPDEST PUSH2 0x3479 PUSH2 0x140 DUP7 ADD DUP3 PUSH2 0x28DE JUMP JUMPDEST POP POP POP POP POP JUMP JUMPDEST PUSH1 0x0 PUSH2 0x180 DUP3 ADD SWAP1 POP PUSH2 0x3496 PUSH1 0x0 DUP4 ADD DUP6 PUSH2 0x3327 JUMP JUMPDEST PUSH2 0x34A4 PUSH2 0x160 DUP4 ADD DUP5 PUSH2 0x28B4 JUMP JUMPDEST SWAP4 SWAP3 POP POP POP JUMP JUMPDEST PUSH32 0x4F6E6C7920426F72726F7765722063616E2075706461746520626F72726F7765 PUSH1 0x0 DUP3 ADD MSTORE PUSH32 0x7200000000000000000000000000000000000000000000000000000000000000 PUSH1 0x20 DUP3 ADD MSTORE POP JUMP JUMPDEST PUSH1 0x0 PUSH2 0x3507 PUSH1 0x21 DUP4 PUSH2 0x2EC2 JUMP JUMPDEST SWAP2 POP PUSH2 0x3512 DUP3 PUSH2 0x34AB JUMP JUMPDEST PUSH1 0x40 DUP3 ADD SWAP1 POP SWAP2 SWAP1 POP JUMP JUMPDEST PUSH1 0x0 PUSH1 0x20 DUP3 ADD SWAP1 POP DUP2 DUP2 SUB PUSH1 0x0 DUP4 ADD MSTORE PUSH2 0x3536 DUP2 PUSH2 0x34FA JUMP JUMPDEST SWAP1 POP SWAP2 SWAP1 POP JUMP JUMPDEST PUSH1 0x80 DUP3 ADD PUSH1 0x0 DUP3 ADD MLOAD PUSH2 0x3553 PUSH1 0x0 DUP6 ADD DUP3 PUSH2 0x28DE JUMP JUMPDEST POP PUSH1 0x20 DUP3 ADD MLOAD PUSH2 0x3566 PUSH1 0x20 DUP6 ADD DUP3 PUSH2 0x28DE JUMP JUMPDEST POP PUSH1 0x40 DUP3 ADD MLOAD PUSH2 0x3579 PUSH1 0x40 DUP6 ADD DUP3 PUSH2 0x28DE JUMP JUMPDEST POP PUSH1 0x60 DUP3 ADD MLOAD PUSH2 0x358C PUSH1 0x60 DUP6 ADD DUP3 PUSH2 0x28DE JUMP JUMPDEST POP POP POP POP JUMP JUMPDEST PUSH1 0x0 PUSH1 0xA0 DUP3 ADD SWAP1 POP PUSH2 0x35A7 PUSH1 0x0 DUP4 ADD DUP6 PUSH2 0x28B4 JUMP JUMPDEST PUSH2 0x35B4 PUSH1 0x20 DUP4 ADD DUP5 PUSH2 0x353D JUMP JUMPDEST SWAP4 SWAP3 POP POP POP JUMP JUMPDEST PUSH32 0x4F6E6C79206C656E6465722063616E206C697175696461746500000000000000 PUSH1 0x0 DUP3 ADD MSTORE POP JUMP JUMPDEST PUSH1 0x0 PUSH2 0x35F1 PUSH1 0x19 DUP4 PUSH2 0x2EC2 JUMP JUMPDEST SWAP2 POP PUSH2 0x35FC DUP3 PUSH2 0x35BB JUMP JUMPDEST PUSH1 0x20 DUP3 ADD SWAP1 POP SWAP2 SWAP1 POP JUMP JUMPDEST PUSH1 0x0 PUSH1 0x20 DUP3 ADD SWAP1 POP DUP2 DUP2 SUB PUSH1 0x0 DUP4 ADD MSTORE PUSH2 0x3620 DUP2 PUSH2 0x35E4 JUMP JUMPDEST SWAP1 POP SWAP2 SWAP1 POP JUMP JUMPDEST PUSH32 0x4C6F616E206E6F7420796574206C6971756964617461626C65206F7220697320 PUSH1 0x0 DUP3 ADD MSTORE PUSH32 0x616C726561647920696E2061756374696F6E0000000000000000000000000000 PUSH1 0x20 DUP3 ADD MSTORE POP JUMP JUMPDEST PUSH1 0x0 PUSH2 0x3683 PUSH1 0x32 DUP4 PUSH2 0x2EC2 JUMP JUMPDEST SWAP2 POP PUSH2 0x368E DUP3 PUSH2 0x3627 JUMP JUMPDEST PUSH1 0x40 DUP3 ADD SWAP1 POP SWAP2 SWAP1 POP JUMP JUMPDEST PUSH1 0x0 PUSH1 0x20 DUP3 ADD SWAP1 POP DUP2 DUP2 SUB PUSH1 0x0 DUP4 ADD MSTORE PUSH2 0x36B2 DUP2 PUSH2 0x3676 JUMP JUMPDEST SWAP1 POP SWAP2 SWAP1 POP JUMP JUMPDEST PUSH1 0x0 PUSH2 0x160 DUP3 ADD SWAP1 POP PUSH2 0x36CF PUSH1 0x0 DUP4 ADD DUP5 PUSH2 0x3327 JUMP JUMPDEST SWAP3 SWAP2 POP POP JUMP JUMPDEST PUSH1 0x0 PUSH1 0x60 DUP3 ADD SWAP1 POP PUSH2 0x36EA PUSH1 0x0 DUP4 ADD DUP7 PUSH2 0x2CB4 JUMP JUMPDEST PUSH2 0x36F7 PUSH1 0x20 DUP4 ADD DUP6 PUSH2 0x2CB4 JUMP JUMPDEST PUSH2 0x3704 PUSH1 0x40 DUP4 ADD DUP5 PUSH2 0x28B4 JUMP JUMPDEST SWAP5 SWAP4 POP POP POP POP JUMP JUMPDEST PUSH1 0x0 PUSH1 0x20 DUP3 ADD SWAP1 POP PUSH2 0x3721 PUSH1 0x0 DUP4 ADD DUP5 PUSH2 0x2CB4 JUMP JUMPDEST SWAP3 SWAP2 POP POP JUMP JUMPDEST PUSH1 0x0 DUP2 MLOAD SWAP1 POP SWAP2 SWAP1 POP JUMP JUMPDEST PUSH1 0x0 DUP2 SWAP1 POP SWAP3 SWAP2 POP POP JUMP JUMPDEST PUSH1 0x0 JUMPDEST DUP4 DUP2 LT ISZERO PUSH2 0x375B JUMPI DUP1 DUP3 ADD MLOAD DUP2 DUP5 ADD MSTORE PUSH1 0x20 DUP2 ADD SWAP1 POP PUSH2 0x3740 JUMP JUMPDEST PUSH1 0x0 DUP5 DUP5 ADD MSTORE POP POP POP POP JUMP JUMPDEST PUSH1 0x0 PUSH2 0x3772 DUP3 PUSH2 0x3727 JUMP JUMPDEST PUSH2 0x377C DUP2 DUP6 PUSH2 0x3732 JUMP JUMPDEST SWAP4 POP PUSH2 0x378C DUP2 DUP6 PUSH1 0x20 DUP7 ADD PUSH2 0x373D JUMP JUMPDEST DUP1 DUP5 ADD SWAP2 POP POP SWAP3 SWAP2 POP POP JUMP JUMPDEST PUSH1 0x0 PUSH2 0x37A4 DUP3 DUP5 PUSH2 0x3767 JUMP JUMPDEST SWAP2 POP DUP2 SWAP1 POP SWAP3 SWAP2 POP POP JUMP INVALID LOG2 PUSH5 0x6970667358 0x22 SLT KECCAK256 0x2F KECCAK256 PUSH8 0xE667DC9FA17BB5C2 0xC2 INVALID AND 0x4E 0x5D PUSH24 0xC667530A6EA82451A3E57F03F78F7F64736F6C6343000814 STOP CALLER "},"methodIdentifiers":{"auctions(uint256)":"571a26a0","bid(uint256)":"454a2ab3","borrowerLoans(address,uint256)":"e3ed1902","createLoan(address,address,address,address,uint256,uint256,uint256,uint256,uint256,bytes32)":"1e24865a","createLoan(address,address,address,uint256,uint256,uint256,uint256,uint256)":"1d67d6a6","durations(uint256)":"bc20a7af","getCurrentPrice(uint256)":"c55d0f56","getLoan(uint256)":"504006ca","lenderLoans(address,uint256)":"3cdb72f1","liquidateLoan(uint256)":"ccdd9f5d","loanCount()":"ce63094d","loanIdToAuction(uint256)":"a53af07e","loanTerms(uint256)":"b10b8a2c","loans(uint256)":"e1ec3c68","rebalanceRate(uint256,uint256)":"8dfa0272","reclaim(uint256)":"2dabbeed","repayLoan(uint256)":"ab7b1c89","repayLoan(uint256,address)":"918344d3","setTerms((uint256,uint256,uint256,uint256))":"aad402ac","updateBorrower(uint256,address)":"983e892b"}}}}}