{
  "_format": "hh-sol-artifact-1",
  "contractName": "TransactionStorage",
  "sourceName": "contracts/TransactionPlaid.sol",
  "abi": [
    {
      "anonymous": false,
      "inputs": [
        {
          "indexed": false,
          "internalType": "bytes32",
          "name": "transaction_id",
          "type": "bytes32"
        },
        {
          "indexed": false,
          "internalType": "int256",
          "name": "amount",
          "type": "int256"
        }
      ],
      "name": "NewTransaction",
      "type": "event"
    },
    {
      "inputs": [
        {
          "internalType": "bytes",
          "name": "serializedData",
          "type": "bytes"
        },
        {
          "internalType": "bytes32",
          "name": "r",
          "type": "bytes32"
        },
        {
          "internalType": "bytes32",
          "name": "s",
          "type": "bytes32"
        },
        {
          "internalType": "uint8",
          "name": "v",
          "type": "uint8"
        }
      ],
      "name": "addTransaction",
      "outputs": [],
      "stateMutability": "nonpayable",
      "type": "function"
    },
    {
      "inputs": [
        {
          "internalType": "bytes32",
          "name": "transaction_id",
          "type": "bytes32"
        }
      ],
      "name": "getTransaction",
      "outputs": [
        {
          "components": [
            {
              "internalType": "int256",
              "name": "amount",
              "type": "int256"
            },
            {
              "internalType": "string",
              "name": "name",
              "type": "string"
            },
            {
              "internalType": "int256",
              "name": "timestamp",
              "type": "int256"
            },
            {
              "internalType": "address",
              "name": "sender",
              "type": "address"
            }
          ],
          "internalType": "struct TransactionStorage.Transaction",
          "name": "",
          "type": "tuple"
        }
      ],
      "stateMutability": "view",
      "type": "function"
    }
  ],
  "bytecode": "0x608060405234801561001057600080fd5b50610d6a806100206000396000f3fe608060405234801561001057600080fd5b50600436106100365760003560e01c80634aae13ca1461003b578063535d5a111461006b575b600080fd5b61005560048036038101906100509190610442565b610087565b60405161006291906105bc565b60405180910390f35b6100856004803603810190610080919061074c565b6101af565b005b61008f6103ba565b600080838152602001908152602001600020604051806080016040529081600082015481526020016001820180546100c6906107fe565b80601f01602080910402602001604051908101604052809291908181526020018280546100f2906107fe565b801561013f5780601f106101145761010080835404028352916020019161013f565b820191906000526020600020905b81548152906001019060200180831161012257829003601f168201915b50505050508152602001600282015481526020016003820160009054906101000a900473ffffffffffffffffffffffffffffffffffffffff1673ffffffffffffffffffffffffffffffffffffffff1673ffffffffffffffffffffffffffffffffffffffff16815250509050919050565b6000848051906020012090506000600182848787604051600081526020016040526040516101e0949392919061084d565b6020604051602081039080840390855afa158015610202573d6000803e3d6000fd5b50505060206040510351905073e156276e5d9c5920661f90c3c35906adefd6c43773ffffffffffffffffffffffffffffffffffffffff168173ffffffffffffffffffffffffffffffffffffffff1614610290576040517f08c379a0000000000000000000000000000000000000000000000000000000008152600401610287906108ef565b60405180910390fd5b600080600080898060200190518101906102aa91906109f1565b9350935093509350600060405180608001604052808581526020018481526020018381526020013373ffffffffffffffffffffffffffffffffffffffff1681525090507f8f581100ad78b58e54cc9e8c1c0233b217a3978294d90c0a124a0d0925fdf15c858560405161031e929190610a83565b60405180910390a1806000808781526020019081526020016000206000820151816000015560208201518160010190816103589190610c62565b506040820151816002015560608201518160030160006101000a81548173ffffffffffffffffffffffffffffffffffffffff021916908373ffffffffffffffffffffffffffffffffffffffff1602179055509050505050505050505050505050565b6040518060800160405280600081526020016060815260200160008152602001600073ffffffffffffffffffffffffffffffffffffffff1681525090565b6000604051905090565b600080fd5b600080fd5b6000819050919050565b61041f8161040c565b811461042a57600080fd5b50565b60008135905061043c81610416565b92915050565b60006020828403121561045857610457610402565b5b60006104668482850161042d565b91505092915050565b6000819050919050565b6104828161046f565b82525050565b600081519050919050565b600082825260208201905092915050565b60005b838110156104c25780820151818401526020810190506104a7565b60008484015250505050565b6000601f19601f8301169050919050565b60006104ea82610488565b6104f48185610493565b93506105048185602086016104a4565b61050d816104ce565b840191505092915050565b600073ffffffffffffffffffffffffffffffffffffffff82169050919050565b600061054382610518565b9050919050565b61055381610538565b82525050565b60006080830160008301516105716000860182610479565b506020830151848203602086015261058982826104df565b915050604083015161059e6040860182610479565b5060608301516105b1606086018261054a565b508091505092915050565b600060208201905081810360008301526105d68184610559565b905092915050565b600080fd5b600080fd5b7f4e487b7100000000000000000000000000000000000000000000000000000000600052604160045260246000fd5b610620826104ce565b810181811067ffffffffffffffff8211171561063f5761063e6105e8565b5b80604052505050565b60006106526103f8565b905061065e8282610617565b919050565b600067ffffffffffffffff82111561067e5761067d6105e8565b5b610687826104ce565b9050602081019050919050565b82818337600083830152505050565b60006106b66106b184610663565b610648565b9050828152602081018484840111156106d2576106d16105e3565b5b6106dd848285610694565b509392505050565b600082601f8301126106fa576106f96105de565b5b813561070a8482602086016106a3565b91505092915050565b600060ff82169050919050565b61072981610713565b811461073457600080fd5b50565b60008135905061074681610720565b92915050565b6000806000806080858703121561076657610765610402565b5b600085013567ffffffffffffffff81111561078457610783610407565b5b610790878288016106e5565b94505060206107a18782880161042d565b93505060406107b28782880161042d565b92505060606107c387828801610737565b91505092959194509250565b7f4e487b7100000000000000000000000000000000000000000000000000000000600052602260045260246000fd5b6000600282049050600182168061081657607f821691505b602082108103610829576108286107cf565b5b50919050565b6108388161040c565b82525050565b61084781610713565b82525050565b6000608082019050610862600083018761082f565b61086f602083018661083e565b61087c604083018561082f565b610889606083018461082f565b95945050505050565b600082825260208201905092915050565b7f496e76616c6964207369676e6174757265000000000000000000000000000000600082015250565b60006108d9601183610892565b91506108e4826108a3565b602082019050919050565b60006020820190508181036000830152610908816108cc565b9050919050565b60008151905061091e81610416565b92915050565b61092d8161046f565b811461093857600080fd5b50565b60008151905061094a81610924565b92915050565b600067ffffffffffffffff82111561096b5761096a6105e8565b5b610974826104ce565b9050602081019050919050565b600061099461098f84610950565b610648565b9050828152602081018484840111156109b0576109af6105e3565b5b6109bb8482856104a4565b509392505050565b600082601f8301126109d8576109d76105de565b5b81516109e8848260208601610981565b91505092915050565b60008060008060808587031215610a0b57610a0a610402565b5b6000610a198782880161090f565b9450506020610a2a8782880161093b565b935050604085015167ffffffffffffffff811115610a4b57610a4a610407565b5b610a57878288016109c3565b9250506060610a688782880161093b565b91505092959194509250565b610a7d8161046f565b82525050565b6000604082019050610a98600083018561082f565b610aa56020830184610a74565b9392505050565b60008190508160005260206000209050919050565b60006020601f8301049050919050565b600082821b905092915050565b600060088302610b0e7fffffffffffffffffffffffffffffffffffffffffffffffffffffffffffffffff82610ad1565b610b188683610ad1565b95508019841693508086168417925050509392505050565b6000819050919050565b6000819050919050565b6000610b5f610b5a610b5584610b30565b610b3a565b610b30565b9050919050565b6000819050919050565b610b7983610b44565b610b8d610b8582610b66565b848454610ade565b825550505050565b600090565b610ba2610b95565b610bad818484610b70565b505050565b5b81811015610bd157610bc6600082610b9a565b600181019050610bb3565b5050565b601f821115610c1657610be781610aac565b610bf084610ac1565b81016020851015610bff578190505b610c13610c0b85610ac1565b830182610bb2565b50505b505050565b600082821c905092915050565b6000610c3960001984600802610c1b565b1980831691505092915050565b6000610c528383610c28565b9150826002028217905092915050565b610c6b82610488565b67ffffffffffffffff811115610c8457610c836105e8565b5b610c8e82546107fe565b610c99828285610bd5565b600060209050601f831160018114610ccc5760008415610cba578287015190505b610cc48582610c46565b865550610d2c565b601f198416610cda86610aac565b60005b82811015610d0257848901518255600182019150602085019450602081019050610cdd565b86831015610d1f5784890151610d1b601f891682610c28565b8355505b6001600288020188555050505b50505050505056fea264697066735822122031ea3218b2f6c39ab7912db4750d6c12d2d10d1949934e0693140d792dcdf4f364736f6c63430008140033",
  "linkReferences": {},
  "deployedLinkReferences": {}
}