{
  "_format": "hh-sol-artifact-1",
  "contractName": "LoanManager",
  "sourceName": "contracts/LoanManager.sol",
  "abi": [
    {
      "inputs": [],
      "stateMutability": "nonpayable",
      "type": "constructor"
    },
    {
      "inputs": [
        {
          "internalType": "address",
          "name": "target",
          "type": "address"
        }
      ],
      "name": "AddressEmptyCode",
      "type": "error"
    },
    {
      "inputs": [
        {
          "internalType": "address",
          "name": "account",
          "type": "address"
        }
      ],
      "name": "AddressInsufficientBalance",
      "type": "error"
    },
    {
      "inputs": [],
      "name": "FailedInnerCall",
      "type": "error"
    },
    {
      "inputs": [
        {
          "internalType": "address",
          "name": "token",
          "type": "address"
        }
      ],
      "name": "SafeERC20FailedOperation",
      "type": "error"
    },
    {
      "anonymous": false,
      "inputs": [
        {
          "indexed": true,
          "internalType": "uint256",
          "name": "id",
          "type": "uint256"
        },
        {
          "indexed": true,
          "internalType": "uint256",
          "name": "loanId",
          "type": "uint256"
        },
        {
          "indexed": false,
          "internalType": "uint256",
          "name": "duration",
          "type": "uint256"
        },
        {
          "indexed": false,
          "internalType": "uint256",
          "name": "startingPrice",
          "type": "uint256"
        },
        {
          "indexed": false,
          "internalType": "uint256",
          "name": "startingTime",
          "type": "uint256"
        },
        {
          "indexed": false,
          "internalType": "uint256",
          "name": "endingPrice",
          "type": "uint256"
        }
      ],
      "name": "AuctionCreated",
      "type": "event"
    },
    {
      "anonymous": false,
      "inputs": [
        {
          "indexed": true,
          "internalType": "uint256",
          "name": "loanId",
          "type": "uint256"
        },
        {
          "indexed": false,
          "internalType": "uint256",
          "name": "amount",
          "type": "uint256"
        }
      ],
      "name": "AuctionReclaimed",
      "type": "event"
    },
    {
      "anonymous": false,
      "inputs": [
        {
          "indexed": true,
          "internalType": "uint256",
          "name": "auction",
          "type": "uint256"
        },
        {
          "indexed": false,
          "internalType": "address",
          "name": "bidder",
          "type": "address"
        },
        {
          "indexed": false,
          "internalType": "uint256",
          "name": "price",
          "type": "uint256"
        }
      ],
      "name": "AuctionSettled",
      "type": "event"
    },
    {
      "anonymous": false,
      "inputs": [
        {
          "indexed": true,
          "internalType": "uint256",
          "name": "id",
          "type": "uint256"
        },
        {
          "indexed": true,
          "internalType": "address",
          "name": "borrower",
          "type": "address"
        },
        {
          "indexed": true,
          "internalType": "address",
          "name": "lender",
          "type": "address"
        },
        {
          "indexed": false,
          "internalType": "contract ERC20",
          "name": "collateralToken",
          "type": "address"
        },
        {
          "indexed": false,
          "internalType": "contract ERC20",
          "name": "debtToken",
          "type": "address"
        },
        {
          "indexed": false,
          "internalType": "uint256",
          "name": "collateralAmount",
          "type": "uint256"
        },
        {
          "indexed": false,
          "internalType": "uint256",
          "name": "debtAmount",
          "type": "uint256"
        },
        {
          "indexed": false,
          "internalType": "uint256",
          "name": "interestRate",
          "type": "uint256"
        },
        {
          "indexed": false,
          "internalType": "uint256",
          "name": "startingTime",
          "type": "uint256"
        },
        {
          "indexed": false,
          "internalType": "uint256",
          "name": "duration",
          "type": "uint256"
        },
        {
          "indexed": false,
          "internalType": "uint256",
          "name": "terms",
          "type": "uint256"
        }
      ],
      "name": "LoanCreated",
      "type": "event"
    },
    {
      "anonymous": false,
      "inputs": [
        {
          "indexed": true,
          "internalType": "uint256",
          "name": "id",
          "type": "uint256"
        },
        {
          "indexed": true,
          "internalType": "address",
          "name": "borrower",
          "type": "address"
        },
        {
          "indexed": true,
          "internalType": "address",
          "name": "lender",
          "type": "address"
        },
        {
          "indexed": false,
          "internalType": "uint256",
          "name": "amount",
          "type": "uint256"
        }
      ],
      "name": "LoanRepaid",
      "type": "event"
    },
    {
      "anonymous": false,
      "inputs": [
        {
          "indexed": false,
          "internalType": "uint256",
          "name": "termId",
          "type": "uint256"
        },
        {
          "components": [
            {
              "internalType": "uint256",
              "name": "liquidationBonus",
              "type": "uint256"
            },
            {
              "internalType": "uint256",
              "name": "dutchAuctionMultiplier",
              "type": "uint256"
            },
            {
              "internalType": "uint256",
              "name": "settlementMultiplier",
              "type": "uint256"
            },
            {
              "internalType": "uint256",
              "name": "auctionLength",
              "type": "uint256"
            }
          ],
          "indexed": false,
          "internalType": "struct Terms",
          "name": "term",
          "type": "tuple"
        }
      ],
      "name": "TermsSet",
      "type": "event"
    },
    {
      "inputs": [
        {
          "internalType": "uint256",
          "name": "",
          "type": "uint256"
        }
      ],
      "name": "auctions",
      "outputs": [
        {
          "internalType": "uint256",
          "name": "id",
          "type": "uint256"
        },
        {
          "internalType": "uint256",
          "name": "loanId",
          "type": "uint256"
        },
        {
          "internalType": "uint256",
          "name": "duration",
          "type": "uint256"
        },
        {
          "internalType": "uint256",
          "name": "startingPrice",
          "type": "uint256"
        },
        {
          "internalType": "uint256",
          "name": "startingTime",
          "type": "uint256"
        },
        {
          "internalType": "uint256",
          "name": "endingPrice",
          "type": "uint256"
        }
      ],
      "stateMutability": "view",
      "type": "function"
    },
    {
      "inputs": [
        {
          "internalType": "uint256",
          "name": "_auctionId",
          "type": "uint256"
        }
      ],
      "name": "bid",
      "outputs": [],
      "stateMutability": "nonpayable",
      "type": "function"
    },
    {
      "inputs": [
        {
          "internalType": "address",
          "name": "",
          "type": "address"
        },
        {
          "internalType": "uint256",
          "name": "",
          "type": "uint256"
        }
      ],
      "name": "borrowerLoans",
      "outputs": [
        {
          "internalType": "uint256",
          "name": "",
          "type": "uint256"
        }
      ],
      "stateMutability": "view",
      "type": "function"
    },
    {
      "inputs": [
        {
          "internalType": "address",
          "name": "_lender",
          "type": "address"
        },
        {
          "internalType": "contract ERC20",
          "name": "_collateral",
          "type": "address"
        },
        {
          "internalType": "contract ERC20",
          "name": "_debt",
          "type": "address"
        },
        {
          "internalType": "uint256",
          "name": "_collateralAmount",
          "type": "uint256"
        },
        {
          "internalType": "uint256",
          "name": "_debtAmount",
          "type": "uint256"
        },
        {
          "internalType": "uint256",
          "name": "_interestRate",
          "type": "uint256"
        },
        {
          "internalType": "uint256",
          "name": "_duration",
          "type": "uint256"
        },
        {
          "internalType": "uint256",
          "name": "_terms",
          "type": "uint256"
        }
      ],
      "name": "createLoan",
      "outputs": [],
      "stateMutability": "nonpayable",
      "type": "function"
    },
    {
      "inputs": [
        {
          "internalType": "address",
          "name": "_lender",
          "type": "address"
        },
        {
          "internalType": "address",
          "name": "_borrower",
          "type": "address"
        },
        {
          "internalType": "contract ERC20",
          "name": "_collateral",
          "type": "address"
        },
        {
          "internalType": "contract ERC20",
          "name": "_debt",
          "type": "address"
        },
        {
          "internalType": "uint256",
          "name": "_collateralAmount",
          "type": "uint256"
        },
        {
          "internalType": "uint256",
          "name": "_debtAmount",
          "type": "uint256"
        },
        {
          "internalType": "uint256",
          "name": "_interestRate",
          "type": "uint256"
        },
        {
          "internalType": "uint256",
          "name": "_duration",
          "type": "uint256"
        },
        {
          "internalType": "uint256",
          "name": "_terms",
          "type": "uint256"
        },
        {
          "internalType": "bytes32",
          "name": "_data",
          "type": "bytes32"
        }
      ],
      "name": "createLoan",
      "outputs": [],
      "stateMutability": "nonpayable",
      "type": "function"
    },
    {
      "inputs": [
        {
          "internalType": "uint256",
          "name": "",
          "type": "uint256"
        }
      ],
      "name": "durations",
      "outputs": [
        {
          "internalType": "uint256",
          "name": "",
          "type": "uint256"
        }
      ],
      "stateMutability": "view",
      "type": "function"
    },
    {
      "inputs": [
        {
          "internalType": "uint256",
          "name": "_auctionId",
          "type": "uint256"
        }
      ],
      "name": "getCurrentPrice",
      "outputs": [
        {
          "internalType": "uint256",
          "name": "",
          "type": "uint256"
        }
      ],
      "stateMutability": "view",
      "type": "function"
    },
    {
      "inputs": [
        {
          "internalType": "uint256",
          "name": "_loanId",
          "type": "uint256"
        }
      ],
      "name": "getLoan",
      "outputs": [
        {
          "components": [
            {
              "internalType": "uint256",
              "name": "id",
              "type": "uint256"
            },
            {
              "internalType": "address",
              "name": "borrower",
              "type": "address"
            },
            {
              "internalType": "address",
              "name": "lender",
              "type": "address"
            },
            {
              "internalType": "contract ERC20",
              "name": "collateralToken",
              "type": "address"
            },
            {
              "internalType": "contract ERC20",
              "name": "debtToken",
              "type": "address"
            },
            {
              "internalType": "uint256",
              "name": "collateralAmount",
              "type": "uint256"
            },
            {
              "internalType": "uint256",
              "name": "debtAmount",
              "type": "uint256"
            },
            {
              "internalType": "uint256",
              "name": "interestRate",
              "type": "uint256"
            },
            {
              "internalType": "uint256",
              "name": "startingTime",
              "type": "uint256"
            },
            {
              "internalType": "uint256",
              "name": "duration",
              "type": "uint256"
            },
            {
              "internalType": "uint256",
              "name": "terms",
              "type": "uint256"
            }
          ],
          "internalType": "struct Loan",
          "name": "loan",
          "type": "tuple"
        }
      ],
      "stateMutability": "view",
      "type": "function"
    },
    {
      "inputs": [
        {
          "internalType": "address",
          "name": "",
          "type": "address"
        },
        {
          "internalType": "uint256",
          "name": "",
          "type": "uint256"
        }
      ],
      "name": "lenderLoans",
      "outputs": [
        {
          "internalType": "uint256",
          "name": "",
          "type": "uint256"
        }
      ],
      "stateMutability": "view",
      "type": "function"
    },
    {
      "inputs": [
        {
          "internalType": "uint256",
          "name": "_loanId",
          "type": "uint256"
        }
      ],
      "name": "liquidateLoan",
      "outputs": [],
      "stateMutability": "nonpayable",
      "type": "function"
    },
    {
      "inputs": [],
      "name": "loanCount",
      "outputs": [
        {
          "internalType": "uint256",
          "name": "",
          "type": "uint256"
        }
      ],
      "stateMutability": "view",
      "type": "function"
    },
    {
      "inputs": [
        {
          "internalType": "uint256",
          "name": "",
          "type": "uint256"
        }
      ],
      "name": "loanIdToAuction",
      "outputs": [
        {
          "internalType": "uint256",
          "name": "",
          "type": "uint256"
        }
      ],
      "stateMutability": "view",
      "type": "function"
    },
    {
      "inputs": [
        {
          "internalType": "uint256",
          "name": "",
          "type": "uint256"
        }
      ],
      "name": "loanTerms",
      "outputs": [
        {
          "internalType": "uint256",
          "name": "liquidationBonus",
          "type": "uint256"
        },
        {
          "internalType": "uint256",
          "name": "dutchAuctionMultiplier",
          "type": "uint256"
        },
        {
          "internalType": "uint256",
          "name": "settlementMultiplier",
          "type": "uint256"
        },
        {
          "internalType": "uint256",
          "name": "auctionLength",
          "type": "uint256"
        }
      ],
      "stateMutability": "view",
      "type": "function"
    },
    {
      "inputs": [
        {
          "internalType": "uint256",
          "name": "",
          "type": "uint256"
        }
      ],
      "name": "loans",
      "outputs": [
        {
          "internalType": "uint256",
          "name": "id",
          "type": "uint256"
        },
        {
          "internalType": "address",
          "name": "borrower",
          "type": "address"
        },
        {
          "internalType": "address",
          "name": "lender",
          "type": "address"
        },
        {
          "internalType": "contract ERC20",
          "name": "collateralToken",
          "type": "address"
        },
        {
          "internalType": "contract ERC20",
          "name": "debtToken",
          "type": "address"
        },
        {
          "internalType": "uint256",
          "name": "collateralAmount",
          "type": "uint256"
        },
        {
          "internalType": "uint256",
          "name": "debtAmount",
          "type": "uint256"
        },
        {
          "internalType": "uint256",
          "name": "interestRate",
          "type": "uint256"
        },
        {
          "internalType": "uint256",
          "name": "startingTime",
          "type": "uint256"
        },
        {
          "internalType": "uint256",
          "name": "duration",
          "type": "uint256"
        },
        {
          "internalType": "uint256",
          "name": "terms",
          "type": "uint256"
        }
      ],
      "stateMutability": "view",
      "type": "function"
    },
    {
      "inputs": [
        {
          "internalType": "uint256",
          "name": "_loanId",
          "type": "uint256"
        },
        {
          "internalType": "uint256",
          "name": "_newRate",
          "type": "uint256"
        }
      ],
      "name": "rebalanceRate",
      "outputs": [],
      "stateMutability": "nonpayable",
      "type": "function"
    },
    {
      "inputs": [
        {
          "internalType": "uint256",
          "name": "_auctionId",
          "type": "uint256"
        }
      ],
      "name": "reclaim",
      "outputs": [],
      "stateMutability": "nonpayable",
      "type": "function"
    },
    {
      "inputs": [
        {
          "internalType": "uint256",
          "name": "_loanId",
          "type": "uint256"
        },
        {
          "internalType": "address",
          "name": "onBehalfof",
          "type": "address"
        }
      ],
      "name": "repayLoan",
      "outputs": [],
      "stateMutability": "nonpayable",
      "type": "function"
    },
    {
      "inputs": [
        {
          "internalType": "uint256",
          "name": "_loanId",
          "type": "uint256"
        }
      ],
      "name": "repayLoan",
      "outputs": [],
      "stateMutability": "nonpayable",
      "type": "function"
    },
    {
      "inputs": [
        {
          "components": [
            {
              "internalType": "uint256",
              "name": "liquidationBonus",
              "type": "uint256"
            },
            {
              "internalType": "uint256",
              "name": "dutchAuctionMultiplier",
              "type": "uint256"
            },
            {
              "internalType": "uint256",
              "name": "settlementMultiplier",
              "type": "uint256"
            },
            {
              "internalType": "uint256",
              "name": "auctionLength",
              "type": "uint256"
            }
          ],
          "internalType": "struct Terms",
          "name": "_terms",
          "type": "tuple"
        }
      ],
      "name": "setTerms",
      "outputs": [
        {
          "internalType": "uint256",
          "name": "",
          "type": "uint256"
        }
      ],
      "stateMutability": "nonpayable",
      "type": "function"
    },
    {
      "inputs": [
        {
          "internalType": "uint256",
          "name": "_loanId",
          "type": "uint256"
        },
        {
          "internalType": "address",
          "name": "_borrower",
          "type": "address"
        }
      ],
      "name": "updateBorrower",
      "outputs": [],
      "stateMutability": "nonpayable",
      "type": "function"
    }
  ],
  "bytecode": "0x60806040526040518060a0016040528061708062ffffff1681526020016201518062ffffff1681526020016202a30062ffffff16815260200162093a8062ffffff168152602001600062ffffff1681525060019060056200006292919062000077565b503480156200007057600080fd5b50620000ef565b828054828255906000526020600020908101928215620000bd579160200282015b82811115620000bc578251829062ffffff1690559160200191906001019062000098565b5b509050620000cc9190620000d0565b5090565b5b80821115620000eb576000816000905550600101620000d1565b5090565b6137e580620000ff6000396000f3fe608060405234801561001057600080fd5b506004361061012c5760003560e01c8063a53af07e116100ad578063c55d0f5611610071578063c55d0f5614610369578063ccdd9f5d14610399578063ce63094d146103b5578063e1ec3c68146103d3578063e3ed19021461040d5761012c565b8063a53af07e1461028a578063aad402ac146102ba578063ab7b1c89146102ea578063b10b8a2c14610306578063bc20a7af146103395761012c565b8063504006ca116100f4578063504006ca146101d1578063571a26a0146102015780638dfa027214610236578063918344d314610252578063983e892b1461026e5761012c565b80631d67d6a6146101315780631e24865a1461014d5780632dabbeed146101695780633cdb72f114610185578063454a2ab3146101b5575b600080fd5b61014b6004803603810190610146919061267c565b61043d565b005b61016760048036038101906101629190612768565b61045a565b005b610183600480360381019061017e9190612847565b610805565b005b61019f600480360381019061019a9190612874565b610bbe565b6040516101ac91906128c3565b60405180910390f35b6101cf60048036038101906101ca9190612847565b610bef565b005b6101eb60048036038101906101e69190612847565b611158565b6040516101f89190612a3c565b60405180910390f35b61021b60048036038101906102169190612847565b611355565b60405161022d96959493929190612a58565b60405180910390f35b610250600480360381019061024b9190612ab9565b6113a1565b005b61026c60048036038101906102679190612af9565b6115b0565b005b61028860048036038101906102839190612af9565b61192b565b005b6102a4600480360381019061029f9190612847565b611a1c565b6040516102b191906128c3565b60405180910390f35b6102d460048036038101906102cf9190612c42565b611a34565b6040516102e191906128c3565b60405180910390f35b61030460048036038101906102ff9190612847565b611aef565b005b610320600480360381019061031b9190612847565b611afc565b6040516103309493929190612c6f565b60405180910390f35b610353600480360381019061034e9190612847565b611b3c565b60405161036091906128c3565b60405180910390f35b610383600480360381019061037e9190612847565b611b60565b60405161039091906128c3565b60405180910390f35b6103b360048036038101906103ae9190612847565b611c6d565b005b6103bd611ec5565b6040516103ca91906128c3565b60405180910390f35b6103ed60048036038101906103e89190612847565b611ecb565b6040516104049b9a99989796959493929190612cd2565b60405180910390f35b61042760048036038101906104229190612874565b611fa5565b60405161043491906128c3565b60405180910390f35b610450883389898989898989600061045a565b5050505050505050565b60008081548092919061046c90612dac565b9190505550600060405180610160016040528060005481526020018b73ffffffffffffffffffffffffffffffffffffffff1681526020018c73ffffffffffffffffffffffffffffffffffffffff1681526020018a73ffffffffffffffffffffffffffffffffffffffff1681526020018973ffffffffffffffffffffffffffffffffffffffff1681526020018881526020018781526020018681526020014281526020016001868154811061052357610522612df4565b5b906000526020600020015481526020018481525090508060056000805481526020019081526020016000206000820151816000015560208201518160010160006101000a81548173ffffffffffffffffffffffffffffffffffffffff021916908373ffffffffffffffffffffffffffffffffffffffff16021790555060408201518160020160006101000a81548173ffffffffffffffffffffffffffffffffffffffff021916908373ffffffffffffffffffffffffffffffffffffffff16021790555060608201518160030160006101000a81548173ffffffffffffffffffffffffffffffffffffffff021916908373ffffffffffffffffffffffffffffffffffffffff16021790555060808201518160040160006101000a81548173ffffffffffffffffffffffffffffffffffffffff021916908373ffffffffffffffffffffffffffffffffffffffff16021790555060a0820151816005015560c0820151816006015560e082015181600701556101008201518160080155610120820151816009015561014082015181600a01559050508a73ffffffffffffffffffffffffffffffffffffffff16630955a20c82846040518363ffffffff1660e01b81526004016106f1929190612e32565b6020604051808303816000875af1158015610710573d6000803e3d6000fd5b505050506040513d601f19601f820116820180604052508101906107349190612e95565b610773576040517f08c379a000000000000000000000000000000000000000000000000000000000815260040161076a90612f1f565b60405180910390fd5b6107a03330898c73ffffffffffffffffffffffffffffffffffffffff16611fd6909392919063ffffffff16565b6107cd8b30888b73ffffffffffffffffffffffffffffffffffffffff16611fd6909392919063ffffffff16565b6107f833878a73ffffffffffffffffffffffffffffffffffffffff166120589092919063ffffffff16565b5050505050505050505050565b60006002828154811061081b5761081a612df4565b5b90600052602060002090600602016040518060c00160405290816000820154815260200160018201548152602001600282015481526020016003820154815260200160048201548152602001600582015481525050905042816040015182608001516108879190612f3f565b106108c7576040517f08c379a00000000000000000000000000000000000000000000000000000000081526004016108be90612fbf565b60405180910390fd5b80606001518160a0015114610911576040517f08c379a000000000000000000000000000000000000000000000000000000000815260040161090890612fbf565b60405180910390fd5b6000600560008360200151815260200190815260200160002060405180610160016040529081600082015481526020016001820160009054906101000a900473ffffffffffffffffffffffffffffffffffffffff1673ffffffffffffffffffffffffffffffffffffffff1673ffffffffffffffffffffffffffffffffffffffff1681526020016002820160009054906101000a900473ffffffffffffffffffffffffffffffffffffffff1673ffffffffffffffffffffffffffffffffffffffff1673ffffffffffffffffffffffffffffffffffffffff1681526020016003820160009054906101000a900473ffffffffffffffffffffffffffffffffffffffff1673ffffffffffffffffffffffffffffffffffffffff1673ffffffffffffffffffffffffffffffffffffffff1681526020016004820160009054906101000a900473ffffffffffffffffffffffffffffffffffffffff1673ffffffffffffffffffffffffffffffffffffffff1673ffffffffffffffffffffffffffffffffffffffff1681526020016005820154815260200160068201548152602001600782015481526020016008820154815260200160098201548152602001600a820154815250509050610b0d81604001518260a00151836060015173ffffffffffffffffffffffffffffffffffffffff166120589092919063ffffffff16565b60028381548110610b2157610b20612df4565b5b9060005260206000209060060201600080820160009055600182016000905560028201600090556003820160009055600482016000905560058201600090555050600460008360200151815260200190815260200160002060009055827f652729794a355f8eb8421b2de81e61cfeba43988a3a8f664b779b189137bfa608260a00151604051610bb191906128c3565b60405180910390a2505050565b60076020528160005260406000208181548110610bda57600080fd5b90600052602060002001600091509150505481565b600060028281548110610c0557610c04612df4565b5b90600052602060002090600602016040518060c0016040529081600082015481526020016001820154815260200160028201548152602001600382015481526020016004820154815260200160058201548152505090506000600560008360200151815260200190815260200160002060405180610160016040529081600082015481526020016001820160009054906101000a900473ffffffffffffffffffffffffffffffffffffffff1673ffffffffffffffffffffffffffffffffffffffff1673ffffffffffffffffffffffffffffffffffffffff1681526020016002820160009054906101000a900473ffffffffffffffffffffffffffffffffffffffff1673ffffffffffffffffffffffffffffffffffffffff1673ffffffffffffffffffffffffffffffffffffffff1681526020016003820160009054906101000a900473ffffffffffffffffffffffffffffffffffffffff1673ffffffffffffffffffffffffffffffffffffffff1673ffffffffffffffffffffffffffffffffffffffff1681526020016004820160009054906101000a900473ffffffffffffffffffffffffffffffffffffffff1673ffffffffffffffffffffffffffffffffffffffff1673ffffffffffffffffffffffffffffffffffffffff1681526020016005820154815260200160068201548152602001600782015481526020016008820154815260200160098201548152602001600a8201548152505090506000600382610140015181548110610e3c57610e3b612df4565b5b906000526020600020906004020160405180608001604052908160008201548152602001600182015481526020016002820154815260200160038201548152505090504283604001518460800151610e949190612f3f565b11610ed4576040517f08c379a0000000000000000000000000000000000000000000000000000000008152600401610ecb9061302b565b60405180910390fd5b6000610edf85611b60565b9050610f12333083866080015173ffffffffffffffffffffffffffffffffffffffff16611fd6909392919063ffffffff16565b610f45338460a00151856060015173ffffffffffffffffffffffffffffffffffffffff166120589092919063ffffffff16565b6000610f608460e001518560c00151866101000151426120d7565b90506000620f42408460000151838760c00151610f7d9190612f3f565b610f87919061304b565b610f9191906130bc565b90506000838211610fa25781610fa4565b835b905060008185610fb491906130ed565b9050610fe9876040015183896080015173ffffffffffffffffffffffffffffffffffffffff166120589092919063ffffffff16565b866040015173ffffffffffffffffffffffffffffffffffffffff16630e864fb68884846040518463ffffffff1660e01b815260040161102a93929190613121565b600060405180830381600087803b15801561104457600080fd5b505af1925050508015611055575060015b506110638760200151612127565b156110d657866020015173ffffffffffffffffffffffffffffffffffffffff16630e864fb68884846040518463ffffffff1660e01b81526004016110a993929190613121565b600060405180830381600087803b1580156110c357600080fd5b505af19250505080156110d4575060015b505b600081111561111357611112876020015182896080015173ffffffffffffffffffffffffffffffffffffffff166120589092919063ffffffff16565b5b887fc9f72b276a388619c6d185d146697036241880c36654b1a3ffdad07c24038d99338760405161114592919061315b565b60405180910390a2505050505050505050565b6111606124e9565b6005600083815260200190815260200160002060405180610160016040529081600082015481526020016001820160009054906101000a900473ffffffffffffffffffffffffffffffffffffffff1673ffffffffffffffffffffffffffffffffffffffff1673ffffffffffffffffffffffffffffffffffffffff1681526020016002820160009054906101000a900473ffffffffffffffffffffffffffffffffffffffff1673ffffffffffffffffffffffffffffffffffffffff1673ffffffffffffffffffffffffffffffffffffffff1681526020016003820160009054906101000a900473ffffffffffffffffffffffffffffffffffffffff1673ffffffffffffffffffffffffffffffffffffffff1673ffffffffffffffffffffffffffffffffffffffff1681526020016004820160009054906101000a900473ffffffffffffffffffffffffffffffffffffffff1673ffffffffffffffffffffffffffffffffffffffff1673ffffffffffffffffffffffffffffffffffffffff1681526020016005820154815260200160068201548152602001600782015481526020016008820154815260200160098201548152602001600a8201548152505090506113388160e001518260c00151836101000151426120d7565b8160c0018181516113499190612f3f565b91508181525050919050565b6002818154811061136557600080fd5b90600052602060002090600602016000915090508060000154908060010154908060020154908060030154908060040154908060050154905086565b60006005600084815260200190815260200160002090503373ffffffffffffffffffffffffffffffffffffffff168160020160009054906101000a900473ffffffffffffffffffffffffffffffffffffffff1673ffffffffffffffffffffffffffffffffffffffff161461144a576040517f08c379a0000000000000000000000000000000000000000000000000000000008152600401611441906131f6565b60405180910390fd5b428160080154826009015461145f9190612f3f565b11156114a0576040517f08c379a000000000000000000000000000000000000000000000000000000000815260040161149790613262565b60405180910390fd5b60006114ba826007015483600601548460080154426120d7565b905060008183600601546114ce9190612f3f565b90508083600601819055504283600801819055508383600701819055506115188360010160009054906101000a900473ffffffffffffffffffffffffffffffffffffffff16612127565b156115a9578260010160009054906101000a900473ffffffffffffffffffffffffffffffffffffffff1673ffffffffffffffffffffffffffffffffffffffff1663093de10184866040518363ffffffff1660e01b815260040161157c929190613480565b600060405180830381600087803b15801561159657600080fd5b505af19250505080156115a7575060015b505b5050505050565b60006005600084815260200190815260200160002060405180610160016040529081600082015481526020016001820160009054906101000a900473ffffffffffffffffffffffffffffffffffffffff1673ffffffffffffffffffffffffffffffffffffffff1673ffffffffffffffffffffffffffffffffffffffff1681526020016002820160009054906101000a900473ffffffffffffffffffffffffffffffffffffffff1673ffffffffffffffffffffffffffffffffffffffff1673ffffffffffffffffffffffffffffffffffffffff1681526020016003820160009054906101000a900473ffffffffffffffffffffffffffffffffffffffff1673ffffffffffffffffffffffffffffffffffffffff1673ffffffffffffffffffffffffffffffffffffffff1681526020016004820160009054906101000a900473ffffffffffffffffffffffffffffffffffffffff1673ffffffffffffffffffffffffffffffffffffffff1673ffffffffffffffffffffffffffffffffffffffff1681526020016005820154815260200160068201548152602001600782015481526020016008820154815260200160098201548152602001600a820154815250509050600061178c8260e001518360c00151846101000151426120d7565b90506000818360c001516117a09190612f3f565b90506117d784846040015183866080015173ffffffffffffffffffffffffffffffffffffffff16611fd6909392919063ffffffff16565b826040015173ffffffffffffffffffffffffffffffffffffffff16836020015173ffffffffffffffffffffffffffffffffffffffff16867f710e531990ea39fba48230679094c845e457119cedc84798e6f0e1eb2422ac598460405161183d91906128c3565b60405180910390a4826040015173ffffffffffffffffffffffffffffffffffffffff16630e71d91f846040518263ffffffff1660e01b81526004016118829190612a3c565b600060405180830381600087803b15801561189c57600080fd5b505af19250505080156118ad575060015b506000836101200151036119245760026004600087815260200190815260200160002054815481106118e2576118e1612df4565b5b90600052602060002090600602016000808201600090556001820160009055600282016000905560038201600090556004820160009055600582016000905550505b5050505050565b60006005600084815260200190815260200160002090503373ffffffffffffffffffffffffffffffffffffffff168160020160009054906101000a900473ffffffffffffffffffffffffffffffffffffffff1673ffffffffffffffffffffffffffffffffffffffff16146119d4576040517f08c379a00000000000000000000000000000000000000000000000000000000081526004016119cb9061351d565b60405180910390fd5b818160010160006101000a81548173ffffffffffffffffffffffffffffffffffffffff021916908373ffffffffffffffffffffffffffffffffffffffff160217905550505050565b60046020528060005260406000206000915090505481565b600060038290806001815401808255809150506001900390600052602060002090600402016000909190919091506000820151816000015560208201518160010155604082015181600201556060820151816003015550507fa2c2679a578a75705566f226e5e44abef52a51eadded9a83173775ae871bc8be6001600380549050611abf91906130ed565b83604051611ace929190613592565b60405180910390a16001600380549050611ae891906130ed565b9050919050565b611af981336115b0565b50565b60038181548110611b0c57600080fd5b90600052602060002090600402016000915090508060000154908060010154908060020154908060030154905084565b60018181548110611b4c57600080fd5b906000526020600020016000915090505481565b60008060028381548110611b7757611b76612df4565b5b90600052602060002090600602016040518060c00160405290816000820154815260200160018201548152602001600282015481526020016003820154815260200160048201548152602001600582015481525050905060008160600151905060008260a0015190506000836080015190506000846040015190508082611bfe9190612f3f565b4210611c11578295505050505050611c68565b60008242611c1f91906130ed565b905060008183611c2f91906130ed565b905080828688611c3f91906130ed565b611c49919061304b565b611c5391906130bc565b86611c5e91906130ed565b9750505050505050505b919050565b60006005600083815260200190815260200160002090503373ffffffffffffffffffffffffffffffffffffffff168160020160009054906101000a900473ffffffffffffffffffffffffffffffffffffffff1673ffffffffffffffffffffffffffffffffffffffff1614611d16576040517f08c379a0000000000000000000000000000000000000000000000000000000008152600401611d0d90613607565b60405180910390fd5b4281600801548260090154611d2b9190612f3f565b1180611d5a57507fffffffffffffffffffffffffffffffffffffffffffffffffffffffffffffffff8160090154145b15611d9a576040517f08c379a0000000000000000000000000000000000000000000000000000000008152600401611d9190613699565b60405180910390fd5b6000611db4826007015483600601548460080154426120d7565b90506000818360060154611dc89190612f3f565b9050611dda84828486600a015461213a565b7fffffffffffffffffffffffffffffffffffffffffffffffffffffffffffffffff8360090181905550611e308360010160009054906101000a900473ffffffffffffffffffffffffffffffffffffffff16612127565b15611ebf578260010160009054906101000a900473ffffffffffffffffffffffffffffffffffffffff1673ffffffffffffffffffffffffffffffffffffffff1663aee307b2846040518263ffffffff1660e01b8152600401611e9291906136b9565b600060405180830381600087803b158015611eac57600080fd5b505af1925050508015611ebd575060015b505b50505050565b60005481565b60056020528060005260406000206000915090508060000154908060010160009054906101000a900473ffffffffffffffffffffffffffffffffffffffff16908060020160009054906101000a900473ffffffffffffffffffffffffffffffffffffffff16908060030160009054906101000a900473ffffffffffffffffffffffffffffffffffffffff16908060040160009054906101000a900473ffffffffffffffffffffffffffffffffffffffff169080600501549080600601549080600701549080600801549080600901549080600a015490508b565b60066020528160005260406000208181548110611fc157600080fd5b90600052602060002001600091509150505481565b612052848573ffffffffffffffffffffffffffffffffffffffff166323b872dd86868660405160240161200b939291906136d5565b604051602081830303815290604052915060e01b6020820180517bffffffffffffffffffffffffffffffffffffffffffffffffffffffff838183161783525050505061229b565b50505050565b6120d2838473ffffffffffffffffffffffffffffffffffffffff1663a9059cbb858560405160240161208b92919061315b565b604051602081830303815290604052915060e01b6020820180517bffffffffffffffffffffffffffffffffffffffffffffffffffffffff838183161783525050505061229b565b505050565b60008083836120e691906130ed565b9050620f42406301e133806120fb919061304b565b818688612108919061304b565b612112919061304b565b61211c91906130bc565b915050949350505050565b600080823b905060008111915050919050565b6000600382815481106121505761214f612df4565b5b906000526020600020906004020160405180608001604052908160008201548152602001600182015481526020016002820154815260200160038201548152505090506000620f4240826020015185876121aa9190612f3f565b6121b4919061304b565b6121be91906130bc565b90506000620f424083604001516121d5919061304b565b85876121e1919061304b565b6121eb91906130bc565b905060006040518060c001604052806002805490508152602001898152602001856060015181526020018481526020014281526020018381525090506002819080600181540180825580915050600190039060005260206000209060060201600090919091909150600082015181600001556020820151816001015560408201518160020155606082015181600301556080820151816004015560a0820151816005015550505050505050505050565b60006122c6828473ffffffffffffffffffffffffffffffffffffffff1661233290919063ffffffff16565b905060008151141580156122eb5750808060200190518101906122e99190612e95565b155b1561232d57826040517f5274afe7000000000000000000000000000000000000000000000000000000008152600401612324919061370c565b60405180910390fd5b505050565b606061234083836000612348565b905092915050565b60608147101561238f57306040517fcd786059000000000000000000000000000000000000000000000000000000008152600401612386919061370c565b60405180910390fd5b6000808573ffffffffffffffffffffffffffffffffffffffff1684866040516123b89190613798565b60006040518083038185875af1925050503d80600081146123f5576040519150601f19603f3d011682016040523d82523d6000602084013e6123fa565b606091505b509150915061240a868383612415565b925050509392505050565b60608261242a57612425826124a4565b61249c565b60008251148015612452575060008473ffffffffffffffffffffffffffffffffffffffff163b145b1561249457836040517f9996b31500000000000000000000000000000000000000000000000000000000815260040161248b919061370c565b60405180910390fd5b81905061249d565b5b9392505050565b6000815111156124b75780518082602001fd5b6040517f1425ea4200000000000000000000000000000000000000000000000000000000815260040160405180910390fd5b60405180610160016040528060008152602001600073ffffffffffffffffffffffffffffffffffffffff168152602001600073ffffffffffffffffffffffffffffffffffffffff168152602001600073ffffffffffffffffffffffffffffffffffffffff168152602001600073ffffffffffffffffffffffffffffffffffffffff1681526020016000815260200160008152602001600081526020016000815260200160008152602001600081525090565b6000604051905090565b600080fd5b600073ffffffffffffffffffffffffffffffffffffffff82169050919050565b60006125d5826125aa565b9050919050565b6125e5816125ca565b81146125f057600080fd5b50565b600081359050612602816125dc565b92915050565b6000612613826125ca565b9050919050565b61262381612608565b811461262e57600080fd5b50565b6000813590506126408161261a565b92915050565b6000819050919050565b61265981612646565b811461266457600080fd5b50565b60008135905061267681612650565b92915050565b600080600080600080600080610100898b03121561269d5761269c6125a5565b5b60006126ab8b828c016125f3565b98505060206126bc8b828c01612631565b97505060406126cd8b828c01612631565b96505060606126de8b828c01612667565b95505060806126ef8b828c01612667565b94505060a06127008b828c01612667565b93505060c06127118b828c01612667565b92505060e06127228b828c01612667565b9150509295985092959890939650565b6000819050919050565b61274581612732565b811461275057600080fd5b50565b6000813590506127628161273c565b92915050565b6000806000806000806000806000806101408b8d03121561278c5761278b6125a5565b5b600061279a8d828e016125f3565b9a505060206127ab8d828e016125f3565b99505060406127bc8d828e01612631565b98505060606127cd8d828e01612631565b97505060806127de8d828e01612667565b96505060a06127ef8d828e01612667565b95505060c06128008d828e01612667565b94505060e06128118d828e01612667565b9350506101006128238d828e01612667565b9250506101206128358d828e01612753565b9150509295989b9194979a5092959850565b60006020828403121561285d5761285c6125a5565b5b600061286b84828501612667565b91505092915050565b6000806040838503121561288b5761288a6125a5565b5b6000612899858286016125f3565b92505060206128aa85828601612667565b9150509250929050565b6128bd81612646565b82525050565b60006020820190506128d860008301846128b4565b92915050565b6128e781612646565b82525050565b6128f6816125ca565b82525050565b6000819050919050565b600061292161291c612917846125aa565b6128fc565b6125aa565b9050919050565b600061293382612906565b9050919050565b600061294582612928565b9050919050565b6129558161293a565b82525050565b6101608201600082015161297260008501826128de565b50602082015161298560208501826128ed565b50604082015161299860408501826128ed565b5060608201516129ab606085018261294c565b5060808201516129be608085018261294c565b5060a08201516129d160a08501826128de565b5060c08201516129e460c08501826128de565b5060e08201516129f760e08501826128de565b50610100820151612a0c6101008501826128de565b50610120820151612a216101208501826128de565b50610140820151612a366101408501826128de565b50505050565b600061016082019050612a52600083018461295b565b92915050565b600060c082019050612a6d60008301896128b4565b612a7a60208301886128b4565b612a8760408301876128b4565b612a9460608301866128b4565b612aa160808301856128b4565b612aae60a08301846128b4565b979650505050505050565b60008060408385031215612ad057612acf6125a5565b5b6000612ade85828601612667565b9250506020612aef85828601612667565b9150509250929050565b60008060408385031215612b1057612b0f6125a5565b5b6000612b1e85828601612667565b9250506020612b2f858286016125f3565b9150509250929050565b600080fd5b6000601f19601f8301169050919050565b7f4e487b7100000000000000000000000000000000000000000000000000000000600052604160045260246000fd5b612b8782612b3e565b810181811067ffffffffffffffff82111715612ba657612ba5612b4f565b5b80604052505050565b6000612bb961259b565b9050612bc58282612b7e565b919050565b600060808284031215612be057612bdf612b39565b5b612bea6080612baf565b90506000612bfa84828501612667565b6000830152506020612c0e84828501612667565b6020830152506040612c2284828501612667565b6040830152506060612c3684828501612667565b60608301525092915050565b600060808284031215612c5857612c576125a5565b5b6000612c6684828501612bca565b91505092915050565b6000608082019050612c8460008301876128b4565b612c9160208301866128b4565b612c9e60408301856128b4565b612cab60608301846128b4565b95945050505050565b612cbd816125ca565b82525050565b612ccc8161293a565b82525050565b600061016082019050612ce8600083018e6128b4565b612cf5602083018d612cb4565b612d02604083018c612cb4565b612d0f606083018b612cc3565b612d1c608083018a612cc3565b612d2960a08301896128b4565b612d3660c08301886128b4565b612d4360e08301876128b4565b612d516101008301866128b4565b612d5f6101208301856128b4565b612d6d6101408301846128b4565b9c9b505050505050505050505050565b7f4e487b7100000000000000000000000000000000000000000000000000000000600052601160045260246000fd5b6000612db782612646565b91507fffffffffffffffffffffffffffffffffffffffffffffffffffffffffffffffff8203612de957612de8612d7d565b5b600182019050919050565b7f4e487b7100000000000000000000000000000000000000000000000000000000600052603260045260246000fd5b612e2c81612732565b82525050565b600061018082019050612e48600083018561295b565b612e56610160830184612e23565b9392505050565b60008115159050919050565b612e7281612e5d565b8114612e7d57600080fd5b50565b600081519050612e8f81612e69565b92915050565b600060208284031215612eab57612eaa6125a5565b5b6000612eb984828501612e80565b91505092915050565b600082825260208201905092915050565b7f4c6f616e206e6f74207665726966696564000000000000000000000000000000600082015250565b6000612f09601183612ec2565b9150612f1482612ed3565b602082019050919050565b60006020820190508181036000830152612f3881612efc565b9050919050565b6000612f4a82612646565b9150612f5583612646565b9250828201905080821115612f6d57612f6c612d7d565b5b92915050565b7f41756374696f6e20686173206e6f7420656e6465640000000000000000000000600082015250565b6000612fa9601583612ec2565b9150612fb482612f73565b602082019050919050565b60006020820190508181036000830152612fd881612f9c565b9050919050565b7f41756374696f6e2068617320656e646564000000000000000000000000000000600082015250565b6000613015601183612ec2565b915061302082612fdf565b602082019050919050565b6000602082019050818103600083015261304481613008565b9050919050565b600061305682612646565b915061306183612646565b925082820261306f81612646565b9150828204841483151761308657613085612d7d565b5b5092915050565b7f4e487b7100000000000000000000000000000000000000000000000000000000600052601260045260246000fd5b60006130c782612646565b91506130d283612646565b9250826130e2576130e161308d565b5b828204905092915050565b60006130f882612646565b915061310383612646565b925082820390508181111561311b5761311a612d7d565b5b92915050565b60006101a082019050613137600083018661295b565b6131456101608301856128b4565b6131536101808301846128b4565b949350505050565b60006040820190506131706000830185612cb4565b61317d60208301846128b4565b9392505050565b7f4f6e6c79206c656e6465722063616e20726562616c616e63652074686520726160008201527f7465000000000000000000000000000000000000000000000000000000000000602082015250565b60006131e0602283612ec2565b91506131eb82613184565b604082019050919050565b6000602082019050818103600083015261320f816131d3565b9050919050565b7f4c6f616e206e6f74207965742061646a75737461626c65000000000000000000600082015250565b600061324c601783612ec2565b915061325782613216565b602082019050919050565b6000602082019050818103600083015261327b8161323f565b9050919050565b60008160001c9050919050565b6000819050919050565b60006132ac6132a783613282565b61328f565b9050919050565b600073ffffffffffffffffffffffffffffffffffffffff82169050919050565b60006132e66132e183613282565b6132b3565b9050919050565b600073ffffffffffffffffffffffffffffffffffffffff82169050919050565b600061332061331b83613282565b6132ed565b9050919050565b6101608201600080830154905061333d81613299565b61334a60008601826128de565b506001830154905061335b816132d3565b61336860208601826128ed565b5060028301549050613379816132d3565b61338660408601826128ed565b50600383015490506133978161330d565b6133a4606086018261294c565b50600483015490506133b58161330d565b6133c2608086018261294c565b50600583015490506133d381613299565b6133e060a08601826128de565b50600683015490506133f181613299565b6133fe60c08601826128de565b506007830154905061340f81613299565b61341c60e08601826128de565b506008830154905061342d81613299565b61343b6101008601826128de565b506009830154905061344c81613299565b61345a6101208601826128de565b50600a830154905061346b81613299565b6134796101408601826128de565b5050505050565b6000610180820190506134966000830185613327565b6134a46101608301846128b4565b9392505050565b7f4f6e6c7920426f72726f7765722063616e2075706461746520626f72726f776560008201527f7200000000000000000000000000000000000000000000000000000000000000602082015250565b6000613507602183612ec2565b9150613512826134ab565b604082019050919050565b60006020820190508181036000830152613536816134fa565b9050919050565b60808201600082015161355360008501826128de565b50602082015161356660208501826128de565b50604082015161357960408501826128de565b50606082015161358c60608501826128de565b50505050565b600060a0820190506135a760008301856128b4565b6135b4602083018461353d565b9392505050565b7f4f6e6c79206c656e6465722063616e206c697175696461746500000000000000600082015250565b60006135f1601983612ec2565b91506135fc826135bb565b602082019050919050565b60006020820190508181036000830152613620816135e4565b9050919050565b7f4c6f616e206e6f7420796574206c6971756964617461626c65206f722069732060008201527f616c726561647920696e2061756374696f6e0000000000000000000000000000602082015250565b6000613683603283612ec2565b915061368e82613627565b604082019050919050565b600060208201905081810360008301526136b281613676565b9050919050565b6000610160820190506136cf6000830184613327565b92915050565b60006060820190506136ea6000830186612cb4565b6136f76020830185612cb4565b61370460408301846128b4565b949350505050565b60006020820190506137216000830184612cb4565b92915050565b600081519050919050565b600081905092915050565b60005b8381101561375b578082015181840152602081019050613740565b60008484015250505050565b600061377282613727565b61377c8185613732565b935061378c81856020860161373d565b80840191505092915050565b60006137a48284613767565b91508190509291505056fea26469706673582212202f2067e667dc9fa17bb5c2c2fe164e5d77c667530a6ea82451a3e57f03f78f7f64736f6c63430008140033",
  "linkReferences": {},
  "deployedLinkReferences": {}
}