{
  "_format": "hh-sol-artifact-1",
  "contractName": "P2PPayments",
  "sourceName": "contracts/SwapP2P.sol",
  "abi": [
    {
      "inputs": [
        {
          "internalType": "address",
          "name": "_usdtToken",
          "type": "address"
        },
        {
          "internalType": "address",
          "name": "_checkerContract",
          "type": "address"
        }
      ],
      "stateMutability": "nonpayable",
      "type": "constructor"
    },
    {
      "anonymous": false,
      "inputs": [
        {
          "indexed": false,
          "internalType": "uint256",
          "name": "requestId",
          "type": "uint256"
        },
        {
          "indexed": true,
          "internalType": "address",
          "name": "confirmer",
          "type": "address"
        }
      ],
      "name": "PaymentConfirmed",
      "type": "event"
    },
    {
      "anonymous": false,
      "inputs": [
        {
          "indexed": false,
          "internalType": "uint256",
          "name": "requestId",
          "type": "uint256"
        },
        {
          "indexed": true,
          "internalType": "address",
          "name": "requester",
          "type": "address"
        },
        {
          "indexed": false,
          "internalType": "uint256",
          "name": "amount",
          "type": "uint256"
        },
        {
          "indexed": false,
          "internalType": "bytes32",
          "name": "zelleEmailHash",
          "type": "bytes32"
        }
      ],
      "name": "PaymentRequested",
      "type": "event"
    },
    {
      "anonymous": false,
      "inputs": [
        {
          "indexed": false,
          "internalType": "uint256",
          "name": "requestId",
          "type": "uint256"
        },
        {
          "indexed": true,
          "internalType": "address",
          "name": "reserver",
          "type": "address"
        }
      ],
      "name": "PaymentReserved",
      "type": "event"
    },
    {
      "inputs": [],
      "name": "checkerContract",
      "outputs": [
        {
          "internalType": "contract ITransactionChecker",
          "name": "",
          "type": "address"
        }
      ],
      "stateMutability": "view",
      "type": "function"
    },
    {
      "inputs": [
        {
          "internalType": "uint256",
          "name": "requestId",
          "type": "uint256"
        },
        {
          "internalType": "bytes32",
          "name": "transactionId",
          "type": "bytes32"
        }
      ],
      "name": "confirmPayment",
      "outputs": [],
      "stateMutability": "nonpayable",
      "type": "function"
    },
    {
      "inputs": [
        {
          "internalType": "uint256",
          "name": "amount",
          "type": "uint256"
        },
        {
          "internalType": "bytes32",
          "name": "_zelleEmailHash",
          "type": "bytes32"
        }
      ],
      "name": "createPaymentRequest",
      "outputs": [],
      "stateMutability": "nonpayable",
      "type": "function"
    },
    {
      "inputs": [
        {
          "internalType": "uint256[]",
          "name": "requestIds",
          "type": "uint256[]"
        }
      ],
      "name": "getPaymentRequestsByIds",
      "outputs": [
        {
          "components": [
            {
              "internalType": "address payable",
              "name": "requester",
              "type": "address"
            },
            {
              "internalType": "uint256",
              "name": "amount",
              "type": "uint256"
            },
            {
              "internalType": "bytes32",
              "name": "zelleEmailHash",
              "type": "bytes32"
            },
            {
              "internalType": "address payable",
              "name": "executor",
              "type": "address"
            }
          ],
          "internalType": "struct P2PPayments.PaymentRequest[]",
          "name": "",
          "type": "tuple[]"
        }
      ],
      "stateMutability": "view",
      "type": "function"
    },
    {
      "inputs": [],
      "name": "minEthReserveAmount",
      "outputs": [
        {
          "internalType": "uint256",
          "name": "",
          "type": "uint256"
        }
      ],
      "stateMutability": "view",
      "type": "function"
    },
    {
      "inputs": [],
      "name": "nextRequestId",
      "outputs": [
        {
          "internalType": "uint256",
          "name": "",
          "type": "uint256"
        }
      ],
      "stateMutability": "view",
      "type": "function"
    },
    {
      "inputs": [
        {
          "internalType": "uint256",
          "name": "",
          "type": "uint256"
        }
      ],
      "name": "requests",
      "outputs": [
        {
          "internalType": "address payable",
          "name": "requester",
          "type": "address"
        },
        {
          "internalType": "uint256",
          "name": "amount",
          "type": "uint256"
        },
        {
          "internalType": "bytes32",
          "name": "zelleEmailHash",
          "type": "bytes32"
        },
        {
          "internalType": "address payable",
          "name": "executor",
          "type": "address"
        }
      ],
      "stateMutability": "view",
      "type": "function"
    },
    {
      "inputs": [
        {
          "internalType": "uint256",
          "name": "requestId",
          "type": "uint256"
        }
      ],
      "name": "reservePayment",
      "outputs": [],
      "stateMutability": "payable",
      "type": "function"
    },
    {
      "inputs": [
        {
          "internalType": "uint256",
          "name": "_minEthReserveAmount",
          "type": "uint256"
        }
      ],
      "name": "set_minEthReserveAmount",
      "outputs": [],
      "stateMutability": "nonpayable",
      "type": "function"
    },
    {
      "inputs": [],
      "name": "usdtToken",
      "outputs": [
        {
          "internalType": "contract IERC20",
          "name": "",
          "type": "address"
        }
      ],
      "stateMutability": "view",
      "type": "function"
    },
    {
      "inputs": [],
      "name": "withdrawEther",
      "outputs": [],
      "stateMutability": "nonpayable",
      "type": "function"
    }
  ],
  "bytecode": "0x6080604052600160035566038d7ea4c680006004553480156200002157600080fd5b5060405162001ef138038062001ef183398181016040528101906200004791906200017b565b816000806101000a81548173ffffffffffffffffffffffffffffffffffffffff021916908373ffffffffffffffffffffffffffffffffffffffff16021790555080600160006101000a81548173ffffffffffffffffffffffffffffffffffffffff021916908373ffffffffffffffffffffffffffffffffffffffff16021790555033600560006101000a81548173ffffffffffffffffffffffffffffffffffffffff021916908373ffffffffffffffffffffffffffffffffffffffff1602179055505050620001c2565b600080fd5b600073ffffffffffffffffffffffffffffffffffffffff82169050919050565b6000620001438262000116565b9050919050565b620001558162000136565b81146200016157600080fd5b50565b60008151905062000175816200014a565b92915050565b6000806040838503121562000195576200019462000111565b5b6000620001a58582860162000164565b9250506020620001b88582860162000164565b9150509250929050565b611d1f80620001d26000396000f3fe60806040526004361061009c5760003560e01c80637362377b116100645780637362377b1461017257806381d12c5814610189578063a29c3714146101c9578063a98ad46c146101f4578063bbab5e2d1461021f578063bdecdc3c1461023b5761009c565b80630546a05b146100a157806321635928146100ca57806339e91709146100f35780635d79ded91461011c5780636a84a98514610147575b600080fd5b3480156100ad57600080fd5b506100c860048036038101906100c39190610fb9565b610278565b005b3480156100d657600080fd5b506100f160048036038101906100ec9190610ff9565b61043e565b005b3480156100ff57600080fd5b5061011a60048036038101906101159190610fb9565b6104d8565b005b34801561012857600080fd5b506101316108cb565b60405161013e91906110a5565b60405180910390f35b34801561015357600080fd5b5061015c6108f1565b60405161016991906110cf565b60405180910390f35b34801561017e57600080fd5b506101876108f7565b005b34801561019557600080fd5b506101b060048036038101906101ab9190610ff9565b6109f2565b6040516101c0949392919061111a565b60405180910390f35b3480156101d557600080fd5b506101de610a62565b6040516101eb91906110cf565b60405180910390f35b34801561020057600080fd5b50610209610a68565b6040516102169190611180565b60405180910390f35b61023960048036038101906102349190610ff9565b610a8c565b005b34801561024757600080fd5b50610262600480360381019061025d91906112f4565b610ced565b60405161026f919061146e565b60405180910390f35b600a8214806102875750606482145b6102c6576040517f08c379a00000000000000000000000000000000000000000000000000000000081526004016102bd906114ed565b60405180910390fd5b60405180608001604052803373ffffffffffffffffffffffffffffffffffffffff168152602001838152602001828152602001600073ffffffffffffffffffffffffffffffffffffffff1681525060026000600354815260200190815260200160002060008201518160000160006101000a81548173ffffffffffffffffffffffffffffffffffffffff021916908373ffffffffffffffffffffffffffffffffffffffff160217905550602082015181600101556040820151816002015560608201518160030160006101000a81548173ffffffffffffffffffffffffffffffffffffffff021916908373ffffffffffffffffffffffffffffffffffffffff1602179055509050503373ffffffffffffffffffffffffffffffffffffffff167fef60ef606dff9630129f2628c3eac0a80a1b4501bc7d495492ef25716c5fbb3f600354848460405161041a9392919061150d565b60405180910390a26003600081548092919061043590611573565b91905055505050565b600560009054906101000a900473ffffffffffffffffffffffffffffffffffffffff1673ffffffffffffffffffffffffffffffffffffffff163373ffffffffffffffffffffffffffffffffffffffff16146104ce576040517f08c379a00000000000000000000000000000000000000000000000000000000081526004016104c59061162d565b60405180910390fd5b8060048190555050565b816002600082815260200190815260200160002060000160009054906101000a900473ffffffffffffffffffffffffffffffffffffffff1673ffffffffffffffffffffffffffffffffffffffff163373ffffffffffffffffffffffffffffffffffffffff161461057d576040517f08c379a0000000000000000000000000000000000000000000000000000000008152600401610574906116bf565b60405180910390fd5b60006002600085815260200190815260200160002090503373ffffffffffffffffffffffffffffffffffffffff168160030160009054906101000a900473ffffffffffffffffffffffffffffffffffffffff1673ffffffffffffffffffffffffffffffffffffffff1614610626576040517f08c379a000000000000000000000000000000000000000000000000000000000815260040161061d9061172b565b60405180910390fd5b6000600160009054906101000a900473ffffffffffffffffffffffffffffffffffffffff1673ffffffffffffffffffffffffffffffffffffffff16634aae13ca856040518263ffffffff1660e01b8152600401610683919061174b565b600060405180830381865afa1580156106a0573d6000803e3d6000fd5b505050506040513d6000823e3d601f19601f820116820180604052508101906106c99190611948565b9050816002015481602001516040516020016106e591906119d8565b604051602081830303815290604052805190602001201461073b576040517f08c379a000000000000000000000000000000000000000000000000000000000815260040161073290611a3b565b60405180910390fd5b60008054906101000a900473ffffffffffffffffffffffffffffffffffffffff1673ffffffffffffffffffffffffffffffffffffffff1663a9059cbb8360030160009054906101000a900473ffffffffffffffffffffffffffffffffffffffff1684600101546040518363ffffffff1660e01b81526004016107be929190611a7c565b6020604051808303816000875af11580156107dd573d6000803e3d6000fd5b505050506040513d601f19601f820116820180604052508101906108019190611add565b5060026000868152602001908152602001600020600080820160006101000a81549073ffffffffffffffffffffffffffffffffffffffff0219169055600182016000905560028201600090556003820160006101000a81549073ffffffffffffffffffffffffffffffffffffffff021916905550503373ffffffffffffffffffffffffffffffffffffffff167f2bce41b08631cf63c2dfd0b519d88a1e3db7e906ba6f0234f853996915e09028866040516108bc91906110cf565b60405180910390a25050505050565b600160009054906101000a900473ffffffffffffffffffffffffffffffffffffffff1681565b60035481565b600560009054906101000a900473ffffffffffffffffffffffffffffffffffffffff1673ffffffffffffffffffffffffffffffffffffffff163373ffffffffffffffffffffffffffffffffffffffff1614610987576040517f08c379a000000000000000000000000000000000000000000000000000000000815260040161097e9061162d565b60405180910390fd5b600560009054906101000a900473ffffffffffffffffffffffffffffffffffffffff1673ffffffffffffffffffffffffffffffffffffffff166108fc479081150290604051600060405180830381858888f193505050501580156109ef573d6000803e3d6000fd5b50565b60026020528060005260406000206000915090508060000160009054906101000a900473ffffffffffffffffffffffffffffffffffffffff16908060010154908060020154908060030160009054906101000a900473ffffffffffffffffffffffffffffffffffffffff16905084565b60045481565b60008054906101000a900473ffffffffffffffffffffffffffffffffffffffff1681565b80600073ffffffffffffffffffffffffffffffffffffffff166002600083815260200190815260200160002060030160009054906101000a900473ffffffffffffffffffffffffffffffffffffffff1673ffffffffffffffffffffffffffffffffffffffff1614610b32576040517f08c379a0000000000000000000000000000000000000000000000000000000008152600401610b2990611b56565b60405180910390fd5b600454341015610b77576040517f08c379a0000000000000000000000000000000000000000000000000000000008152600401610b6e90611be8565b60405180910390fd5b600060026000848152602001908152602001600020905060008054906101000a900473ffffffffffffffffffffffffffffffffffffffff1673ffffffffffffffffffffffffffffffffffffffff166323b872dd8260000160009054906101000a900473ffffffffffffffffffffffffffffffffffffffff163084600101546040518463ffffffff1660e01b8152600401610c1393929190611c17565b6020604051808303816000875af1158015610c32573d6000803e3d6000fd5b505050506040513d601f19601f82011682018060405250810190610c569190611add565b50338160030160006101000a81548173ffffffffffffffffffffffffffffffffffffffff021916908373ffffffffffffffffffffffffffffffffffffffff1602179055503373ffffffffffffffffffffffffffffffffffffffff167ff762db8d802692ae6ee9130d3d3c3e3820887ffd8a248642a45de4f74e78b86884604051610ce091906110cf565b60405180910390a2505050565b606060008251905060008167ffffffffffffffff811115610d1157610d106111b1565b5b604051908082528060200260200182016040528015610d4a57816020015b610d37610ee2565b815260200190600190039081610d2f5790505b50905060005b82811015610ed7576000858281518110610d6d57610d6c611c4e565b5b60200260200101519050600081118015610d88575060035481105b610dc7576040517f08c379a0000000000000000000000000000000000000000000000000000000008152600401610dbe90611cc9565b60405180910390fd5b600260008281526020019081526020016000206040518060800160405290816000820160009054906101000a900473ffffffffffffffffffffffffffffffffffffffff1673ffffffffffffffffffffffffffffffffffffffff1673ffffffffffffffffffffffffffffffffffffffff16815260200160018201548152602001600282015481526020016003820160009054906101000a900473ffffffffffffffffffffffffffffffffffffffff1673ffffffffffffffffffffffffffffffffffffffff1673ffffffffffffffffffffffffffffffffffffffff1681525050838381518110610eb857610eb7611c4e565b5b6020026020010181905250508080610ecf90611573565b915050610d50565b508092505050919050565b6040518060800160405280600073ffffffffffffffffffffffffffffffffffffffff1681526020016000815260200160008019168152602001600073ffffffffffffffffffffffffffffffffffffffff1681525090565b6000604051905090565b600080fd5b600080fd5b6000819050919050565b610f6081610f4d565b8114610f6b57600080fd5b50565b600081359050610f7d81610f57565b92915050565b6000819050919050565b610f9681610f83565b8114610fa157600080fd5b50565b600081359050610fb381610f8d565b92915050565b60008060408385031215610fd057610fcf610f43565b5b6000610fde85828601610f6e565b9250506020610fef85828601610fa4565b9150509250929050565b60006020828403121561100f5761100e610f43565b5b600061101d84828501610f6e565b91505092915050565b600073ffffffffffffffffffffffffffffffffffffffff82169050919050565b6000819050919050565b600061106b61106661106184611026565b611046565b611026565b9050919050565b600061107d82611050565b9050919050565b600061108f82611072565b9050919050565b61109f81611084565b82525050565b60006020820190506110ba6000830184611096565b92915050565b6110c981610f4d565b82525050565b60006020820190506110e460008301846110c0565b92915050565b60006110f582611026565b9050919050565b611105816110ea565b82525050565b61111481610f83565b82525050565b600060808201905061112f60008301876110fc565b61113c60208301866110c0565b611149604083018561110b565b61115660608301846110fc565b95945050505050565b600061116a82611072565b9050919050565b61117a8161115f565b82525050565b60006020820190506111956000830184611171565b92915050565b600080fd5b6000601f19601f8301169050919050565b7f4e487b7100000000000000000000000000000000000000000000000000000000600052604160045260246000fd5b6111e9826111a0565b810181811067ffffffffffffffff82111715611208576112076111b1565b5b80604052505050565b600061121b610f39565b905061122782826111e0565b919050565b600067ffffffffffffffff821115611247576112466111b1565b5b602082029050602081019050919050565b600080fd5b600061127061126b8461122c565b611211565b9050808382526020820190506020840283018581111561129357611292611258565b5b835b818110156112bc57806112a88882610f6e565b845260208401935050602081019050611295565b5050509392505050565b600082601f8301126112db576112da61119b565b5b81356112eb84826020860161125d565b91505092915050565b60006020828403121561130a57611309610f43565b5b600082013567ffffffffffffffff81111561132857611327610f48565b5b611334848285016112c6565b91505092915050565b600081519050919050565b600082825260208201905092915050565b6000819050602082019050919050565b611372816110ea565b82525050565b61138181610f4d565b82525050565b61139081610f83565b82525050565b6080820160008201516113ac6000850182611369565b5060208201516113bf6020850182611378565b5060408201516113d26040850182611387565b5060608201516113e56060850182611369565b50505050565b60006113f78383611396565b60808301905092915050565b6000602082019050919050565b600061141b8261133d565b6114258185611348565b935061143083611359565b8060005b8381101561146157815161144888826113eb565b975061145383611403565b925050600181019050611434565b5085935050505092915050565b600060208201905081810360008301526114888184611410565b905092915050565b600082825260208201905092915050565b7f496e76616c696420616d6f756e74000000000000000000000000000000000000600082015250565b60006114d7600e83611490565b91506114e2826114a1565b602082019050919050565b60006020820190508181036000830152611506816114ca565b9050919050565b600060608201905061152260008301866110c0565b61152f60208301856110c0565b61153c604083018461110b565b949350505050565b7f4e487b7100000000000000000000000000000000000000000000000000000000600052601160045260246000fd5b600061157e82610f4d565b91507fffffffffffffffffffffffffffffffffffffffffffffffffffffffffffffffff82036115b0576115af611544565b5b600182019050919050565b7f4f6e6c7920746865206f776e65722063616e2063616c6c20746869732066756e60008201527f6374696f6e000000000000000000000000000000000000000000000000000000602082015250565b6000611617602583611490565b9150611622826115bb565b604082019050919050565b600060208201905081810360008301526116468161160a565b9050919050565b7f4f6e6c7920746865207265717565737465722063616e20706572666f726d207460008201527f68697320616374696f6e00000000000000000000000000000000000000000000602082015250565b60006116a9602a83611490565b91506116b48261164d565b604082019050919050565b600060208201905081810360008301526116d88161169c565b9050919050565b7f4f6e6c79206578656375746f722063616e20636c6f7365207265717565737400600082015250565b6000611715601f83611490565b9150611720826116df565b602082019050919050565b6000602082019050818103600083015261174481611708565b9050919050565b6000602082019050611760600083018461110b565b92915050565b600080fd5b600080fd5b6000819050919050565b61178381611770565b811461178e57600080fd5b50565b6000815190506117a08161177a565b92915050565b600080fd5b600067ffffffffffffffff8211156117c6576117c56111b1565b5b6117cf826111a0565b9050602081019050919050565b60005b838110156117fa5780820151818401526020810190506117df565b60008484015250505050565b6000611819611814846117ab565b611211565b905082815260208101848484011115611835576118346117a6565b5b6118408482856117dc565b509392505050565b600082601f83011261185d5761185c61119b565b5b815161186d848260208601611806565b91505092915050565b600061188182611026565b9050919050565b61189181611876565b811461189c57600080fd5b50565b6000815190506118ae81611888565b92915050565b6000608082840312156118ca576118c9611766565b5b6118d46080611211565b905060006118e484828501611791565b600083015250602082015167ffffffffffffffff8111156119085761190761176b565b5b61191484828501611848565b602083015250604061192884828501611791565b604083015250606061193c8482850161189f565b60608301525092915050565b60006020828403121561195e5761195d610f43565b5b600082015167ffffffffffffffff81111561197c5761197b610f48565b5b611988848285016118b4565b91505092915050565b600081519050919050565b600081905092915050565b60006119b282611991565b6119bc818561199c565b93506119cc8185602086016117dc565b80840191505092915050565b60006119e482846119a7565b915081905092915050565b7f496e76616c6964207472616e73616374696f6e206e616d652068617368000000600082015250565b6000611a25601d83611490565b9150611a30826119ef565b602082019050919050565b60006020820190508181036000830152611a5481611a18565b9050919050565b6000611a6682611072565b9050919050565b611a7681611a5b565b82525050565b6000604082019050611a916000830185611a6d565b611a9e60208301846110c0565b9392505050565b60008115159050919050565b611aba81611aa5565b8114611ac557600080fd5b50565b600081519050611ad781611ab1565b92915050565b600060208284031215611af357611af2610f43565b5b6000611b0184828501611ac8565b91505092915050565b7f5061796d656e7420616c72656164792072657365727665640000000000000000600082015250565b6000611b40601883611490565b9150611b4b82611b0a565b602082019050919050565b60006020820190508181036000830152611b6f81611b33565b9050919050565b7f5472616e73616374696f6e206d75737420696e636c756465206174206c65617360008201527f7420302e30303120455448000000000000000000000000000000000000000000602082015250565b6000611bd2602b83611490565b9150611bdd82611b76565b604082019050919050565b60006020820190508181036000830152611c0181611bc5565b9050919050565b611c1181611876565b82525050565b6000606082019050611c2c6000830186611a6d565b611c396020830185611c08565b611c4660408301846110c0565b949350505050565b7f4e487b7100000000000000000000000000000000000000000000000000000000600052603260045260246000fd5b7f496e76616c696420726571756573742049440000000000000000000000000000600082015250565b6000611cb3601283611490565b9150611cbe82611c7d565b602082019050919050565b60006020820190508181036000830152611ce281611ca6565b905091905056fea26469706673582212203874b8fb895971fc311db7c7ca20413e3ce9d107b3b89f53b4457dd552f5fbd664736f6c63430008140033",
  "linkReferences": {},
  "deployedLinkReferences": {}
}