{
  "_format": "hh-sol-artifact-1",
  "contractName": "GovernanceTokenVoting",
  "sourceName": "contracts/Vote.sol",
  "abi": [
    {
      "inputs": [
        {
          "internalType": "contract ERC20",
          "name": "_governanceToken",
          "type": "address"
        }
      ],
      "stateMutability": "nonpayable",
      "type": "constructor"
    },
    {
      "inputs": [
        {
          "internalType": "address",
          "name": "owner",
          "type": "address"
        }
      ],
      "name": "OwnableInvalidOwner",
      "type": "error"
    },
    {
      "inputs": [
        {
          "internalType": "address",
          "name": "account",
          "type": "address"
        }
      ],
      "name": "OwnableUnauthorizedAccount",
      "type": "error"
    },
    {
      "anonymous": false,
      "inputs": [
        {
          "indexed": true,
          "internalType": "address",
          "name": "previousOwner",
          "type": "address"
        },
        {
          "indexed": true,
          "internalType": "address",
          "name": "newOwner",
          "type": "address"
        }
      ],
      "name": "OwnershipTransferred",
      "type": "event"
    },
    {
      "anonymous": false,
      "inputs": [
        {
          "indexed": true,
          "internalType": "address",
          "name": "voter",
          "type": "address"
        },
        {
          "indexed": false,
          "internalType": "address",
          "name": "proposal",
          "type": "address"
        },
        {
          "indexed": false,
          "internalType": "uint256",
          "name": "epoch",
          "type": "uint256"
        }
      ],
      "name": "UserVote",
      "type": "event"
    },
    {
      "inputs": [],
      "name": "VOTING_PERIOD",
      "outputs": [
        {
          "internalType": "uint256",
          "name": "",
          "type": "uint256"
        }
      ],
      "stateMutability": "view",
      "type": "function"
    },
    {
      "inputs": [
        {
          "internalType": "address",
          "name": "_proposal",
          "type": "address"
        },
        {
          "internalType": "uint256",
          "name": "_amount",
          "type": "uint256"
        },
        {
          "internalType": "uint256",
          "name": "_epoch",
          "type": "uint256"
        }
      ],
      "name": "coverShortfall",
      "outputs": [],
      "stateMutability": "nonpayable",
      "type": "function"
    },
    {
      "inputs": [],
      "name": "currentEpoch",
      "outputs": [
        {
          "internalType": "uint256",
          "name": "",
          "type": "uint256"
        }
      ],
      "stateMutability": "view",
      "type": "function"
    },
    {
      "inputs": [
        {
          "internalType": "address",
          "name": "_proposal",
          "type": "address"
        },
        {
          "internalType": "uint256",
          "name": "_amount",
          "type": "uint256"
        }
      ],
      "name": "depositTokens",
      "outputs": [],
      "stateMutability": "nonpayable",
      "type": "function"
    },
    {
      "inputs": [
        {
          "internalType": "uint256",
          "name": "timestamp",
          "type": "uint256"
        }
      ],
      "name": "epoch",
      "outputs": [
        {
          "internalType": "uint256",
          "name": "",
          "type": "uint256"
        }
      ],
      "stateMutability": "pure",
      "type": "function"
    },
    {
      "inputs": [],
      "name": "governanceToken",
      "outputs": [
        {
          "internalType": "contract IERC20",
          "name": "",
          "type": "address"
        }
      ],
      "stateMutability": "view",
      "type": "function"
    },
    {
      "inputs": [],
      "name": "owner",
      "outputs": [
        {
          "internalType": "address",
          "name": "",
          "type": "address"
        }
      ],
      "stateMutability": "view",
      "type": "function"
    },
    {
      "inputs": [
        {
          "internalType": "address",
          "name": "",
          "type": "address"
        },
        {
          "internalType": "uint256",
          "name": "",
          "type": "uint256"
        }
      ],
      "name": "proposals",
      "outputs": [
        {
          "internalType": "uint256",
          "name": "totalVotes",
          "type": "uint256"
        },
        {
          "internalType": "uint256",
          "name": "slashingRatio",
          "type": "uint256"
        }
      ],
      "stateMutability": "view",
      "type": "function"
    },
    {
      "inputs": [],
      "name": "renounceOwnership",
      "outputs": [],
      "stateMutability": "nonpayable",
      "type": "function"
    },
    {
      "inputs": [
        {
          "internalType": "address",
          "name": "_proposal",
          "type": "address"
        }
      ],
      "name": "shortfallCoverage",
      "outputs": [
        {
          "internalType": "uint256",
          "name": "",
          "type": "uint256"
        }
      ],
      "stateMutability": "view",
      "type": "function"
    },
    {
      "inputs": [
        {
          "internalType": "uint256",
          "name": "",
          "type": "uint256"
        }
      ],
      "name": "totalVotes",
      "outputs": [
        {
          "internalType": "uint256",
          "name": "",
          "type": "uint256"
        }
      ],
      "stateMutability": "view",
      "type": "function"
    },
    {
      "inputs": [
        {
          "internalType": "address",
          "name": "newOwner",
          "type": "address"
        }
      ],
      "name": "transferOwnership",
      "outputs": [],
      "stateMutability": "nonpayable",
      "type": "function"
    },
    {
      "inputs": [
        {
          "internalType": "address",
          "name": "",
          "type": "address"
        },
        {
          "internalType": "uint256",
          "name": "",
          "type": "uint256"
        }
      ],
      "name": "userDeposits",
      "outputs": [
        {
          "internalType": "uint256",
          "name": "",
          "type": "uint256"
        }
      ],
      "stateMutability": "view",
      "type": "function"
    },
    {
      "inputs": [
        {
          "internalType": "address",
          "name": "_proposal",
          "type": "address"
        },
        {
          "internalType": "uint256",
          "name": "_epoch",
          "type": "uint256"
        },
        {
          "internalType": "uint256",
          "name": "_amount",
          "type": "uint256"
        }
      ],
      "name": "withdrawTokens",
      "outputs": [],
      "stateMutability": "nonpayable",
      "type": "function"
    }
  ],
  "bytecode": "0x60a06040523480156200001157600080fd5b50604051620016873803806200168783398181016040528101906200003791906200025e565b600460009054906101000a900473ffffffffffffffffffffffffffffffffffffffff16600073ffffffffffffffffffffffffffffffffffffffff168173ffffffffffffffffffffffffffffffffffffffff1603620000cf5760006040517f1e4fbdf7000000000000000000000000000000000000000000000000000000008152600401620000c69190620002a1565b60405180910390fd5b620000e0816200011c60201b60201c565b508073ffffffffffffffffffffffffffffffffffffffff1660808173ffffffffffffffffffffffffffffffffffffffff168152505050620002be565b60008060009054906101000a900473ffffffffffffffffffffffffffffffffffffffff169050816000806101000a81548173ffffffffffffffffffffffffffffffffffffffff021916908373ffffffffffffffffffffffffffffffffffffffff1602179055508173ffffffffffffffffffffffffffffffffffffffff168173ffffffffffffffffffffffffffffffffffffffff167f8be0079c531659141344cd1fd0a4f28419497f9722a3daafe3b4186f6b6457e060405160405180910390a35050565b600080fd5b600073ffffffffffffffffffffffffffffffffffffffff82169050919050565b60006200021282620001e5565b9050919050565b6000620002268262000205565b9050919050565b620002388162000219565b81146200024457600080fd5b50565b60008151905062000258816200022d565b92915050565b600060208284031215620002775762000276620001e0565b5b6000620002878482850162000247565b91505092915050565b6200029b8162000205565b82525050565b6000602082019050620002b8600083018462000290565b92915050565b608051611398620002ef600039600081816105650152818161065e0152818161090d0152610bda01526113986000f3fe608060405234801561001057600080fd5b50600436106100ea5760003560e01c8063766718081161008c578063ad113b1e11610066578063ad113b1e1461024a578063b1610d7e1461027a578063f2fde38b14610298578063f96dae0a146102b4576100ea565b806376671808146101dd5780638da5cb5b146101fb5780638e23a2f514610219576100ea565b80635487c577116100c85780635487c5771461016b57806366168bd71461019b5780636c4c0e52146101b7578063715018a6146101d3576100ea565b806308f43333146100ef57806319e6e1581461011f5780634c1d1fde1461014f575b600080fd5b61010960048036038101906101049190610e02565b6102d2565b6040516101169190610e51565b60405180910390f35b61013960048036038101906101349190610e6c565b6102f7565b6040516101469190610e51565b60405180910390f35b61016960048036038101906101649190610e99565b61030f565b005b61018560048036038101906101809190610e6c565b61060b565b6040516101929190610e51565b60405180910390f35b6101b560048036038101906101b09190610e02565b610623565b005b6101d160048036038101906101cc9190610e99565b61084e565b005b6101db6109f6565b005b6101e5610a0a565b6040516101f29190610e51565b60405180910390f35b610203610a1a565b6040516102109190610efb565b60405180910390f35b610233600480360381019061022e9190610e02565b610a43565b604051610241929190610f16565b60405180910390f35b610264600480360381019061025f9190610f3f565b610a74565b6040516102719190610e51565b60405180910390f35b610282610b4b565b60405161028f9190610e51565b60405180910390f35b6102b260048036038101906102ad9190610f3f565b610b52565b005b6102bc610bd8565b6040516102c99190610fcb565b60405180910390f35b6001602052816000526040600020602052806000526040600020600091509150505481565b60036020528060005260406000206000915090505481565b6001610319610a0a565b6103239190611015565b8203610364576040517f08c379a000000000000000000000000000000000000000000000000000000000815260040161035b906110a6565b60405180910390fd5b6000838360405160200161037992919061112f565b6040516020818303038152906040528051906020012090506000600260008673ffffffffffffffffffffffffffffffffffffffff1673ffffffffffffffffffffffffffffffffffffffff168152602001908152602001600020600085815260200190815260200160002090506000600160003373ffffffffffffffffffffffffffffffffffffffff1673ffffffffffffffffffffffffffffffffffffffff16815260200190815260200160002060008681526020019081526020016000205490508084111561047d576040517f08c379a0000000000000000000000000000000000000000000000000000000008152600401610474906111a7565b60405180910390fd5b83600160003373ffffffffffffffffffffffffffffffffffffffff1673ffffffffffffffffffffffffffffffffffffffff168152602001908152602001600020600087815260200190815260200160002060008282546104dd9190611015565b92505081905550838260000160008282546104f89190611015565b92505081905550836003600087815260200190815260200160002060008282546105229190611015565b925050819055506000670de0b6b3a76400008360010154670de0b6b3a764000061054c9190611015565b8661055791906111c7565b6105619190611238565b90507f000000000000000000000000000000000000000000000000000000000000000073ffffffffffffffffffffffffffffffffffffffff1663a9059cbb33836040518363ffffffff1660e01b81526004016105be929190611269565b6020604051808303816000875af11580156105dd573d6000803e3d6000fd5b505050506040513d601f19601f8201168201806040525081019061060191906112ca565b5050505050505050565b600062093a808261061c9190611238565b9050919050565b600061062d610a0a565b90506000838260405160200161064492919061112f565b6040516020818303038152906040528051906020012090507f000000000000000000000000000000000000000000000000000000000000000073ffffffffffffffffffffffffffffffffffffffff166323b872dd3330866040518463ffffffff1660e01b81526004016106b9939291906112f7565b6020604051808303816000875af11580156106d8573d6000803e3d6000fd5b505050506040513d601f19601f820116820180604052508101906106fc91906112ca565b5082600160003373ffffffffffffffffffffffffffffffffffffffff1673ffffffffffffffffffffffffffffffffffffffff1681526020019081526020016000206000848152602001908152602001600020600082825461075d919061132e565b9250508190555082600260008673ffffffffffffffffffffffffffffffffffffffff1673ffffffffffffffffffffffffffffffffffffffff168152602001908152602001600020600084815260200190815260200160002060000160008282546107c7919061132e565b92505081905550826003600084815260200190815260200160002060008282546107f1919061132e565b925050819055503373ffffffffffffffffffffffffffffffffffffffff167f3772b1d7788336cf02abc096e80a0045761cc5a8c188936475f1c7b41f014a598584604051610840929190611269565b60405180910390a250505050565b610856610bfc565b6000838260405160200161086b92919061112f565b6040516020818303038152906040528051906020012090506000600260008673ffffffffffffffffffffffffffffffffffffffff1673ffffffffffffffffffffffffffffffffffffffff1681526020019081526020016000206000848152602001908152602001600020905060006109098583600001548460010154670de0b6b3a76400006108fa9190611015565b61090491906111c7565b610c83565b90507f000000000000000000000000000000000000000000000000000000000000000073ffffffffffffffffffffffffffffffffffffffff1663a9059cbb61094f610a1a565b836040518363ffffffff1660e01b815260040161096d929190611269565b6020604051808303816000875af115801561098c573d6000803e3d6000fd5b505050506040513d601f19601f820116820180604052508101906109b091906112ca565b508160000154670de0b6b3a7640000826109ca91906111c7565b6109d49190611238565b8260010160008282546109e7919061132e565b92505081905550505050505050565b6109fe610bfc565b610a086000610c9d565b565b6000610a154261060b565b905090565b60008060009054906101000a900473ffffffffffffffffffffffffffffffffffffffff16905090565b6002602052816000526040600020602052806000526040600020600091509150508060000154908060010154905082565b600080610a7f610a0a565b9050600083600183610a919190611015565b604051602001610aa292919061112f565b6040516020818303038152906040528051906020012090506000600260008673ffffffffffffffffffffffffffffffffffffffff1673ffffffffffffffffffffffffffffffffffffffff1681526020019081526020016000206000600185610b0a9190611015565b8152602001908152602001600020905080600001548160010154670de0b6b3a7640000610b379190611015565b610b4191906111c7565b9350505050919050565b62093a8081565b610b5a610bfc565b600073ffffffffffffffffffffffffffffffffffffffff168173ffffffffffffffffffffffffffffffffffffffff1603610bcc5760006040517f1e4fbdf7000000000000000000000000000000000000000000000000000000008152600401610bc39190610efb565b60405180910390fd5b610bd581610c9d565b50565b7f000000000000000000000000000000000000000000000000000000000000000081565b610c04610d61565b73ffffffffffffffffffffffffffffffffffffffff16610c22610a1a565b73ffffffffffffffffffffffffffffffffffffffff1614610c8157610c45610d61565b6040517f118cdaa7000000000000000000000000000000000000000000000000000000008152600401610c789190610efb565b60405180910390fd5b565b600081831115610c935781610c95565b825b905092915050565b60008060009054906101000a900473ffffffffffffffffffffffffffffffffffffffff169050816000806101000a81548173ffffffffffffffffffffffffffffffffffffffff021916908373ffffffffffffffffffffffffffffffffffffffff1602179055508173ffffffffffffffffffffffffffffffffffffffff168173ffffffffffffffffffffffffffffffffffffffff167f8be0079c531659141344cd1fd0a4f28419497f9722a3daafe3b4186f6b6457e060405160405180910390a35050565b600033905090565b600080fd5b600073ffffffffffffffffffffffffffffffffffffffff82169050919050565b6000610d9982610d6e565b9050919050565b610da981610d8e565b8114610db457600080fd5b50565b600081359050610dc681610da0565b92915050565b6000819050919050565b610ddf81610dcc565b8114610dea57600080fd5b50565b600081359050610dfc81610dd6565b92915050565b60008060408385031215610e1957610e18610d69565b5b6000610e2785828601610db7565b9250506020610e3885828601610ded565b9150509250929050565b610e4b81610dcc565b82525050565b6000602082019050610e666000830184610e42565b92915050565b600060208284031215610e8257610e81610d69565b5b6000610e9084828501610ded565b91505092915050565b600080600060608486031215610eb257610eb1610d69565b5b6000610ec086828701610db7565b9350506020610ed186828701610ded565b9250506040610ee286828701610ded565b9150509250925092565b610ef581610d8e565b82525050565b6000602082019050610f106000830184610eec565b92915050565b6000604082019050610f2b6000830185610e42565b610f386020830184610e42565b9392505050565b600060208284031215610f5557610f54610d69565b5b6000610f6384828501610db7565b91505092915050565b6000819050919050565b6000610f91610f8c610f8784610d6e565b610f6c565b610d6e565b9050919050565b6000610fa382610f76565b9050919050565b6000610fb582610f98565b9050919050565b610fc581610faa565b82525050565b6000602082019050610fe06000830184610fbc565b92915050565b7f4e487b7100000000000000000000000000000000000000000000000000000000600052601160045260246000fd5b600061102082610dcc565b915061102b83610dcc565b925082820390508181111561104357611042610fe6565b5b92915050565b600082825260208201905092915050565b7f546f6b656e7320617265206c6f636b656420666f72207769746864726177616c600082015250565b6000611090602083611049565b915061109b8261105a565b602082019050919050565b600060208201905081810360008301526110bf81611083565b9050919050565b60008160601b9050919050565b60006110de826110c6565b9050919050565b60006110f0826110d3565b9050919050565b61110861110382610d8e565b6110e5565b82525050565b6000819050919050565b61112961112482610dcc565b61110e565b82525050565b600061113b82856110f7565b60148201915061114b8284611118565b6020820191508190509392505050565b7f496e76616c6964207769746864726177616c20616d6f756e7400000000000000600082015250565b6000611191601983611049565b915061119c8261115b565b602082019050919050565b600060208201905081810360008301526111c081611184565b9050919050565b60006111d282610dcc565b91506111dd83610dcc565b92508282026111eb81610dcc565b9150828204841483151761120257611201610fe6565b5b5092915050565b7f4e487b7100000000000000000000000000000000000000000000000000000000600052601260045260246000fd5b600061124382610dcc565b915061124e83610dcc565b92508261125e5761125d611209565b5b828204905092915050565b600060408201905061127e6000830185610eec565b61128b6020830184610e42565b9392505050565b60008115159050919050565b6112a781611292565b81146112b257600080fd5b50565b6000815190506112c48161129e565b92915050565b6000602082840312156112e0576112df610d69565b5b60006112ee848285016112b5565b91505092915050565b600060608201905061130c6000830186610eec565b6113196020830185610eec565b6113266040830184610e42565b949350505050565b600061133982610dcc565b915061134483610dcc565b925082820190508082111561135c5761135b610fe6565b5b9291505056fea26469706673582212208715c50e44651958459ae1c87d9265886630ca6b013225ffe3446b36971a78ef64736f6c63430008140033",
  "linkReferences": {},
  "deployedLinkReferences": {}
}